:100000000C947E010C94A6010C94A6010C94A601FC
:100010000C94A6010C94A6010C94A6010C94A601C4
:100020000C94A6010C94A6010C940F040C9481046A
:100030000C94A6010C94A6010C94A6010C94A601A4
:100040000C94A6010C94A6010C94A6010C94A60194
:100050000C9483080C94A6010C94A6010C94C00F78
:100060000C94A6010C94A6010C94A6010C94A60174
:100070000C94A6010C94A6010C94A6010C94A60164
:100080000C94A6010C94A6010C94A6010C945C0897
:100090000C94BF060C94A6010C94A6010C94A60126
:1000A0000C94A6010C94A6010C94A601DC0AE80AA3
:1000B000F50AFB0ACA0C010BCA0C240B2F0B590BB7
:1000C000640B8E0BC70BD40BE30BFB0B140C090C4E
:1000D000410C5C0C6A0C800CAD0CEE0CF10CE00CCD
:1000E000E40CEA0C120D120D120DF50CF90CFD0CBE
:1000F000030D070D120D0D0D00407A10F35A00A0EC
:10010000724E18090010A5D4E80000E876481700E0
:1001100000E40B54020000CA9A3B000000E1F50520
:10012000000080969800000040420F000000A0866A
:1001300001000000102700000000E803000000009C
:100140006400000000000A00000000000100000040
:1001500000002C76D888DC674F0823DFC1DFAE595A
:10016000E1B1B796E5E3E453C63AE651997696E8ED
:10017000E6C28426EB898C9B62ED407C6FFCEFBC71
:100180009C9F40F2BAA56FA5F490055A2AF75C939C
:100190006B6CF9676DC11BFCE0E40D47FEF520E6D2
:1001A000B500D0ED902E0300943577050080841EB5
:1001B000080000204E0A000000C80C333333330F10
:1001C000986E12831141EF8D2114893BE65516CFAD
:1001D000FEE6DB18D1844B381BF77C1D901DA4BBB9
:1001E000E424203284725E228100C9F124ECA1E56E
:1001F0003D27080B00020202010009040000010271
:10020000020000052400100105240101010424025C
:1002100006052406000107058103100040090401BA
:1002200000020A00000007050202400000070583E3
:10023000024000000403090412010002EF02014021
:100240004123368000010102030141726475696E29
:100250006F204C4C430041726475696E6F204C6591
:100260006F6E6172646F00070605040100080A0BD7
:100270000C0D0900000000240027002A002D00308A
:100280000000000000250028002B002E0031000097
:100290000000002300260029002C002F0004040485
:1002A000040403040502020202040302020202061D
:1002B00006060606060404020202040404080201FB
:1002C000104080401020408040800802040180409F
:1002D0002010020110801020404020000000020089
:1002E000090F0000030401000C00000000000000E2
:1002F000000000000000000000008A1511241FBE4D
:10030000CFEFDAE0DEBFCDBF27E0A4E9B6E001C061
:100310001D92AD3DB207E1F716E0A0E0B1E0E4EEDA
:10032000FFE302C005900D92A439B107D9F711E09F
:10033000CEE7D1E004C02197FE010E94401BCD37DB
:10034000D107C9F70E9458100C94F01F0C940000BC
:10035000089540911D0750911E0720911B07309171
:100360001C0742175307B4F49091E8009570E1F32D
:100370009091E80092FD19C08093F10080911D07D3
:1003800090911E0701968F739927892B19F48EEF90
:100390008093E80080911D0790911E07019690932D
:1003A0001E0780931D0781E0089580E00895DF9285
:1003B000EF92FF920F931F93CF93DF93D82EF92ED6
:1003C000E42E062F10E0C8010196880F0E94A901B3
:1003D00083E00E94A901CD2DDF2D0C0F1D1FC0173A
:1003E000D10789F0E7FE03C0FE01849101C0888136
:1003F0000E94A901F82E80E00E94A9018F21219678
:100400008111EDCF01C081E0DF91CF911F910F915C
:10041000FF90EF90DF900895DF92EF92FF920F939D
:100420001F93CF93DF93D82E8A017B01E40EF51E34
:10043000EB01CE15DF0571F0D7FE03C0FE018491FC
:1004400001C088810E94A90121968111F2CF8FEF0E
:100450009FEF01C0C801DF91CF911F910F91FF90D5
:10046000EF90DF900895615030F02091F100FC0191
:1004700020830196F8CF289884E680935407089546
:10048000CF92DF92EF92FF920F931F93CF93DF9360
:100490006C017A018B01C0E0D0E0CE15DF0581F060
:1004A000D8016D918D01D601ED91FC910190F08103
:1004B000E02DC6010995892B11F02196EECF7E0122
:1004C000C701DF91CF911F910F91FF90EF90DF90C7
:1004D000CF900895CF93DF931F92CDB7DEB7698396
:1004E000DC01ED91FC910280F381E02D41E050E0D0
:1004F000BE016F5F7F4F09950F90DF91CF910895F7
:1005000083E08093E9008091F200882319F08AE368
:100510008093E8000895FC018485958597FD0BC0C4
:100520009FB7F89482E08093E9008091F2009FBF2A
:1005300090E0019608959FB7F89482E08093E900D7
:100540008091F2009FBF90E0089585ED8093BC00FC
:100550008091BC0084FDFCCF109229070895E091A2
:100560003007F0913107309729F010922B07109245
:100570002A0709940895CF93DF93AC01E0912E07E9
:10058000F0912F073097F1F090912D0780912C0773
:100590009817C0F090E0292F30E02617370754F461
:1005A000D901AC56B94FEA01C20FD31F28812C9351
:1005B0009F5FF1CF10922D0760932C07CB01DF9145
:1005C000CF910994DF91CF9108950895E0912D077F
:1005D00080912C07E81730F4F0E0EC56F94F808159
:1005E00090E008958FEF9FEF089590912D078091EF
:1005F0002C07981750F4E92FF0E0EC56F94F2081C2
:1006000030E09F5F90932D0702C02FEF3FEFC901AD
:10061000089580912C0790E020912D07821B91096D
:1006200008950F931F93CF93DF931F92CDB7DEB73B
:1006300082E0898342E450E062EF71E080E80E944A
:100640000C020E94B90EDC0112960D911C911397B9
:100650000115110589F0D801ED91FC910280F3811B
:10066000E02DBE016F5F7F4FC801099597FD04C063
:10067000F80100851185ECCF89810F90DF91CF9132
:100680001F910F9108958F929F92AF92BF92CF9238
:10069000DF92EF92FF920F931F93CF93DF936C0142
:1006A0007B018A0180910C01882309F45CC0809150
:1006B0005507882309F457C08091210780FF05C0A2
:1006C0008091E00082608093E000E801B12C8AEF25
:1006D000A82E93E0892E2AE3922E209711F4BB20B6
:1006E000D9F10E94A80E81110AC0AA94AA20D9F1BA
:1006F00061E070E080E090E00E94860FEECF282F4E
:1007000030E0C217D3070CF48C2F9FB7F894809277
:10071000E9002091E80025FF1DC0282F30E0C21B12
:10072000D30BF701815020F041914093F100FACFB3
:10073000E20EF31EBB2019F09092E8000AC08091EF
:10074000E80085FD07C09092E800BB24B394209791
:1007500009F0B12C9FBFC1CF5D9884E6809320073C
:100760001016110644F081E090E0F6019383828335
:1007700080E090E001C0C801DF91CF911F910F91FF
:10078000FF90EF90DF90CF90BF90AF909F908F90B1
:1007900008950E94A80E90E008950F931F93CF93A1
:1007A000DF931F92CDB7DEB78C01FC018485958560
:1007B00097FF0EC0CE0101960E947A0E019719F4A0
:1007C000898190E002C08FEF9FEFF80195878487C1
:1007D000F801848595850F90DF91CF911F910F913E
:1007E0000895CF93DF931F92CDB7DEB7FC018485C8
:1007F000958597FD05C02FEF3FEF358724870BC008
:10080000CE0101960E947A0E019719F4898190E039
:1008100002C08FEF9FEF0F90DF91CF9108951F924D
:100820000F920FB60F9211248F939F938091E10046
:100830009091E100937F9093E10083FF0FC01092AD
:10084000E90091E09093EB001092EC0092E390931A
:10085000ED001092550798E09093F00082FF20C0C1
:1008600093E09093E9009091F200992319F09AE3B4
:100870009093E80090912007992339F090912007F8
:10088000915090932007992389F1909154079923CF
:1008900039F090915407915090935407992341F166
:1008A00084FF10C08091E2008E7E81608093E20020
:1008B0008091E1008F7E8093E100809121078E7E00
:1008C000806111C080FF16C08091E2008E7E806141
:1008D0008093E2008091E1008E7E8093E100809120
:1008E00021078E7E81608093210704C05D9ACDCF61
:1008F000289AD6CF9F918F910F900FBE0F901F9087
:1009000018951F920F920FB60F921124CF92DF927B
:10091000EF92FF920F931F932F933F934F935F9309
:100920006F937F938F939F93AF93BF93EF93FF93B7
:10093000CF93DF93CDB7DEB76C97DEBFCDBF1092FC
:10094000E9008091E80083FFFBC168E0CE01459695
:100950000E94330282EF8093E8008D8987FF05C0F3
:100960009091E80090FFFCCF03C09EEF9093E800C9
:10097000982F907609F0C6C09E894F89588D2F898F
:10098000F88C91110CC0803829F480912207809353
:10099000F10002C01092F1001092F10045C19130B7
:1009A00051F4811141C14130510509F03DC180919F
:1009B00022078D7F0BC0933061F4811135C1413026
:1009C000510509F031C1809122078260809322078E
:1009D0002BC1953049F48091E80080FFFCCF822F35
:1009E00080688093E30020C1963009F05EC00B8DD3
:1009F0001C8D22E01092E90010921E0710921D0734
:100A0000F21232C010921C0710921B070E941103B1
:100A100099E0BE016F5F7F4FDB01E92F1D92EA95E0
:100A2000E9F79983FA8291E09E8390EA98879AEF9A
:100A3000998720911D0730911E07275F3F4F3C8308
:100A40002B838D831092E90010921E0710921D07D0
:100A500010931C0700931B0749E050E080E00E94C0
:100A60000C020E941103E0C010931C0700931B07A7
:100A70000E94B90EDC0112960D911C91139701157D
:100A8000110509F4BBC0D801ED91FC910480F581FA
:100A9000E02DBE016B5E7F4FC8010995009709F0FC
:100AA000C7C0F80100851185EACF973009F445C128
:100AB000983021F481E08093F100B6C0993009F0BC
:100AC000B3C0837009F039C1EBE8F1E081E031E0B7
:100AD00096E32081211109C08EE78093EA001092ED
:100AE000EA008F89809355079FC08093E900309377
:100AF000EB0021912093EC009093ED008F5F873005
:100B000041F7EACF8B8D9C8D1092E90010921E0761
:100B100010921D0790931C0780931B07898D8111EC
:100B200053C08E899D89913A49F4813209F005C1FB
:100B300047E050E065E071E080E0BBC0913209F031
:100B4000FCC0833269F48F89988DA0E0B0E0809377
:100B5000000190930101A0930201B093030164C0CE
:100B6000803269F48091E80082FFFCCF67E085E085
:100B700091E00E9433028BEF8093E80055C08232EF
:100B800009F052C08F8980930C01EEEFFFE7859149
:100B900094918B3F9C4D19F0E0E0F8E002C0EEEF3D
:100BA000FAE08091050190910601A0910701B091B2
:100BB0000801803B9440A105B10509F09EC08091D9
:100BC0000C0180FF79C099C00E94B90EFC0102811E
:100BD00013810115110509F4B0C0D801ED91FC9104
:100BE0000190F081E02DBE016B5E7F4FC801099539
:100BF00081111AC0F80100851185EBCFF1E0FF16D5
:100C000009F44EC0F3E0FF1298C08F89882309F4DD
:100C10004AC0823089F440E860E186E592E00E94B3
:100C2000D701882309F489C08EEF8093E80088C03B
:100C300018161906CCF381C0813029F440E86BE026
:100C40008AE492E0ECCF833009F077C00E94B90EBD
:100C5000DC011296ED90FC9013978E010F5F1F4FF1
:100C60006801E114F10479F0D701ED91FC9106805F
:100C7000F781E02DB801C7010995080F111DF70193
:100C8000E084F184EECFD8011C92F601019000209F
:100C9000E9F73197BF016C197D0940E0C601BFCF6C
:100CA00068E372E002C064E372E0FB01449150E04B
:100CB00080E80E940C02B8CFEE3F2AE0F20751F024
:100CC000808191818737A7E79A0721F09093FF0AE7
:100CD0008093FE0A87E797E7918380838091600085
:100CE00080931F079BE088E10FB6F894A895809346
:100CF00060000FBE9093600097CF8081918187370D
:100D0000974709F091CFA895809160008861809302
:100D1000600080911F0780936000EE3FBAE0FB0700
:100D200039F08091FE0A9091FF0A918380837CCFF5
:100D30001092FF0A1092FE0A77CF81E28093EB00B7
:100D40006C960FB6F894DEBF0FBECDBFDF91CF918A
:100D5000FF91EF91BF91AF919F918F917F916F9193
:100D60005F914F913F912F911F910F91FF90EF90C5
:100D7000DF90CF900F900FBE0F901F9018951F928D
:100D80000F920FB60F9211242F933F934F935F93BF
:100D90006F937F938F939F93AF93BF93EF93FF9343
:100DA0008091B900887F803609F49CC068F588324C
:100DB00009F45BC090F4803109F454C038F48823FE
:100DC00009F4F6C0883009F44DC0F6C0883109F442
:100DD0004CC0803209F45DC0EFC0803409F468C0B3
:100DE00048F4803309F455C0883309F0E5C0809396
:100DF000F706D8C0803509F44FC0883509F45DC0C6
:100E0000883409F0D9C0D6C0883909F4C7C0A8F41D
:100E1000883709F467C038F4883609F463C080372E
:100E200009F460C0C9C0883809F4B8C0803909F431
:100E30005FC0803809F0C0C05BC0803B09F486C049
:100E400038F4803A09F466C0883A09F47FC0B4C027
:100E5000803C09F4A7C0883C09F4A4C0883B09F48D
:100E60008AC0AAC080911A0710C09091190780917A
:100E70001807981770F5E091190781E08E0F80939D
:100E80001907F0E0E850F94F80818093BB0085ECB2
:100E900086C08093F7068EC0E091190781E08E0F1F
:100EA000809319078091BB00F0E0E850F94F8083F0
:100EB00090911907809118076EC0E091190781E0A1
:100EC0008E0F809319078091BB00F0E0E850F94F36
:100ED00080838091280781116DC081E0809327076E
:100EE00084EA61C083E0809329071092F606CFCF91
:100EF0008091F606803208F051C0E091F60681E05C
:100F00008E0F8093F6068091BB00F0E0EA52F94F15
:100F10008083BDCF85EC8093BC001092290780911F
:100F2000F606803230F4E091F606F0E0EA52F94F2E
:100F300010826091F60670E0E0912307F09124079B
:100F400086ED96E009951092F60636C084E080930F
:100F500029071092D5061092D406E0912507F0914A
:100F6000260709958091D406811105C081E0809300
:100F7000D4061092B406E091D50681E08E0F8093DE
:100F8000D506F0E0EC54F94F80818093BB0090913E
:100F9000D5068091D406981708F479CF85E8809318
:100FA000BC000AC085EC8093BC001092290704C0E5
:100FB0001092F7060E94A502FF91EF91BF91AF91A9
:100FC0009F918F917F916F915F914F913F912F9161
:100FD0000F900FBE0F901F9018954091D406262FAA
:100FE00030E0240F311D21323105DCF42091290736
:100FF0002430C9F4FC0180E090E0861758F4309169
:10100000D4062191DC01AC54B94FA30FB11D2C9330
:101010000196F3CF8091D406680F6093D40680E0E8
:10102000089581E0089582E00895CF93DF93CB0186
:10103000EA01642F0E94ED07CE01DF91CF91089560
:1010400080E090E00895E82FF0E0EE54F84F228120
:101050006381862F90E0A0E0B0E0DC01992788272B
:10106000922B2181822B2481BC01CD01922B0895EA
:10107000CF93DF931F92CDB7DEB7698361E0CE01D6
:1010800001960E94ED0781E090E00F90DF91CF91F3
:10109000089589E00E94CD0E61E0892B09F060E09F
:1010A00089E00C94F60E4091510750E061E477E03E
:1010B00086EA97E00C9415081F920F920FB60F92D4
:1010C00011242F933F934F935F936F937F938F934D
:1010D0009F93AF93BF93EF93FF93E0915207F091EB
:1010E00053070995FF91EF91BF91AF919F918F9118
:1010F0007F916F915F914F913F912F910F900FBE14
:101100000F901F9018951F920F920FB60F921124F7
:101110002F933F934F935F936F937F938F939F93FF
:10112000AF93BF93EF93FF93E0E0F0E00995FF9159
:10113000EF91BF91AF919F918F917F916F915F914F
:101140004F913F912F910F900FBE0F901F901895C8
:101150000C94A619E1E9F0E080E180831092900000
:1011600084ED90E3909397008093960083E18083D1
:1011700089E498E0909353078093520781E080932D
:10118000710008951F93CF93DF93182F80933C072E
:10119000C82FD0E0BE01759567957595679561700C
:1011A00088E00E94F60ED595C7956C2F617086E099
:1011B0000E94F60E612F617084E0DF91CF911F9144
:1011C0000C94F60ECF92DF92EF92FF92CF93DF93C3
:1011D000BC01ECE6F2E0E49180917B00E3FB222786
:1011E00020F930E095E0220F331F9A95E1F78F7DCB
:1011F000282B20937B002091040180E4289F9001FC
:101200001124E770E22BE0937C0080917A008064E7
:1012100080937A0080917A0086FDFCCFC09178009F
:10122000D0917900072E000C880B990B0E94891829
:101230006B017C016C2F70E07D2B072E000C880B5E
:10124000990B0E94891820E030E040E85AE30E94A0
:10125000E8182AE037ED43E250E40E94E81826E956
:1012600033E44BE05FE30E94601AA70196010E94FD
:10127000E8180E94D21A072E000C880B990B0E94C6
:101280008918A70196010E94601ADF91CF91FF9003
:10129000EF90DF90CF900895CF92DF92EF92FF9280
:1012A00082E594E00E94660D8EE794E00E94660D50
:1012B0008BEA94E00E94660D81EE94E00E94660D38
:1012C00088E195E00E94660D8FE495E00E94660D2E
:1012D00089E193E00E94660D86E895E00E94660D24
:1012E00085EB95E00E94460E42E066E676E686E6ED
:1012F0009FE30E94740D87E193E00E94130D89E142
:1013000093E00E94660D8FEC95E00E94460E80915E
:101310003207909133070E94480E84EE95E00E94B8
:10132000460E80910D0190910E010E94480E84E6B8
:1013300090E00E94E20862E370E080E090E00E94AA
:10134000860F84E690E00E94E2086B017C0189EF41
:1013500095E00E94460E60917F017091800180911E
:1013600081019091820142E00E94740D8EE096E02E
:101370000E94460E42E0C701B6010E94740D89EC3E
:1013800093E00E94660DA701960160917F01709124
:10139000800180918101909182010E94F3196B017B
:1013A0007C0120E030E0A9010E94081B18165CF4C3
:1013B0002DEC3CEC4CE45DE3C701B6010E94081B38
:1013C00018165CF01DC02DEC3CEC4CE45DEBC70145
:1013D000B6010E94821887FF13C081E08093350711
:1013E0000E94AA08F0900C016AE070E080E090E0B2
:1013F0000E94860FFF20B1F383E196E00E94660D04
:1014000080913507811110C089E193E00E94660D3B
:1014100088E496E00E94660D8FE596E0FF90EF90DD
:10142000DF90CF900C94660DFF90EF90DF90CF90FF
:101430000895CF93C82F60E081E10E94F60ECEBDE3
:1014400000000DB407FEFDCF8EB561E081E10E9482
:10145000F60EC0933B07CF91089521E030E0082EAF
:1014600001C0220F0A94EAF7209590913B072923A7
:10147000462F417050E0BA0102C0660F771F8A956F
:10148000E2F7CB01822B0C94190ACF92DF92EF92F4
:10149000FF92CF93DF936A017B01C82FD0E08CE1EC
:1014A0008C9FF0018D9FF00D1124E15FFE4F77FFBF
:1014B00009C08FEF8487FE01EE0FFF1FE755FE4F37
:1014C00061E008C081E08487FE01EE0FFF1FE75551
:1014D000FE4F60E080810E942D0A8CE18C9FF0011C
:1014E0008D9FF00D1124E15FFE4FB701A601F7FEBD
:1014F00007C070956095509541955F4F6F4F7F4F36
:101500004087518762877387DF91CF91FF90EF907B
:10151000DF90CF9008959F92AF92BF92CF92DF92CB
:10152000EF92FF920F931F93CF93DF93EC0102EBA7
:1015300017E0C801825B97408C179D074CF486EA40
:1015400097E00E94F502F80181830F5F1F4FF1CFF2
:10155000FE01D7FF02C0E0E0F0E0EE54F84FCF010B
:10156000825B974040971CF411823196F8CF81E05E
:101570008093B207109251078091B40780FD0AC092
:1015800081FD0AC082FD0AC0C82FC87083FF07C052
:10159000C3E005C0C0E003C0C1E001C0C2E0E0910B
:1015A000B3074E2F50E04731510508F0F3C1FA015F
:1015B000EA5AFF4F0C94401B81E00E94230860937D
:1015C0003D0770933E0780933F0790934007E2C129
:1015D000DF91CF911F910F91FF90EF90DF90CF900F
:1015E000BF90AF909F900C94C20881E08093510708
:1015F00080913C07D6C082E00E942308AB01BC0169
:1016000015C082E00E9423082CE1C29FF001112442
:10161000E15FFE4F058516852785308968017901D0
:10162000C61AD70AE80AF90AB701A6018C2FDF917A
:10163000CF911F910F91FF90EF90DF90CF90BF90CF
:10164000AF909F900C94450A2CE1C29FF0011124A9
:10165000E15FFE4F308521859285838545C182E01B
:101660000E9423084CE1C49FE0011124C15FDE4FBA
:10167000698B7A8B8B8B9C8B0E9489189B01AC01A8
:1016800060E070E080E89FE30E94601A20E034E2AE
:1016900044E759E40E94E81820E030E048EC52E4C6
:1016A0000E94601A0E94D21A688379838A839B837E
:1016B00071C18CE1C89FF0011124E15FFE4F3189B7
:1016C00022899389848910C180913407811162C174
:1016D0000C2F10E09CE1C99FF0011124E15FFE4F47
:1016E000838D811157C181E09091B507911101C09F
:1016F00080E0818FF801EE0FFF1FE756FE4F60E09C
:1017000080810E942D0A8CE1809FF001819FF00D65
:101710001124E15FFE4F81E0828F3CC1A090B507AC
:101720000FE011E059E9C52E51E0D52EEE24E394E7
:10173000F12CC82FD0E0B12C99249394CE018E21A6
:101740009F21892BC1F080913407811114C0F801C9
:10175000838D811110C021E0C5018E219F21892B2D
:1017600009F420E0F801218F60E0F60180810E94F9
:101770002D0AF801928EEE0CFF1C045E1F4FF2E062
:10178000CF0ED11C21E00F371207C1F603C181E053
:10179000809351074CE1C49FF0011124E15FFE4F9B
:1017A000828D80934107F6C081E080935107EDE779
:1017B000F1E080E0880F9081892B7C9791E0ED30FB
:1017C000F907C1F7EECF81E0809351072CE1C29F6A
:1017D000F0011124E15FFE4F238D822F880F90913D
:1017E000340744E0949F90011124282B828D282BEC
:1017F00020934107CFC082E00E9423082CE1C29FC2
:10180000F0011124E15FFE4F658776878787908B13
:10181000C1C04CE1C49FF0011124E15FFE4F35854A
:1018200026859785808960C081E00E9423086093A7
:101830001C0170931D0180931E0190931F0185E090
:101840000E942308609338017093390180933A0114
:1018500090933B0189E00E942308609354017093A8
:10186000550180935601909357018DE00E94230803
:101870006093700170937101809372019093730172
:1018800089C0EFE0F1E080E0458556856785708985
:1018900094E0980FA82FB0E0AF5BB84F4C93452F62
:1018A000562F672F772767FD7A958F5F8913F2CFC1
:1018B0007C96803149F721C082E00E9423082CE108
:1018C000C29FF0011124E15FFE4F658B768B878B01
:1018D000908F60C04CE1C49FF0011124E15FFE4F86
:1018E000358926899789808D309341072093420757
:1018F000909343078093440784E0809351074AC044
:1019000081E00E9423086093240170932501809355
:1019100026019093270185E00E94230860934001EF
:1019200070934101809342019093430189E00E94AA
:10193000230860935C0170935D0180935E01909336
:101940005F018DE00E942308609378017093790114
:1019500080937A0190937B011DC0EFE0F1E080E07D
:10196000458956896789708D94E0980FA82FB0E05B
:10197000AF5BB84F4C93452F562F672F772767FDE6
:101980007A958F5F9813F2CF7C96892F903141F72B
:1019900090935107DF91CF911F910F91FF90EF909E
:1019A000DF90CF90BF90AF909F90089590E0FC01A2
:1019B0003197EF30F105B0F5E359FF4F0C94401B20
:1019C000809180008F7703C0809180008F7D80930D
:1019D0008000089580918000877FF9CF84B58F774C
:1019E00002C084B58F7D84BD0895809190008F776B
:1019F00007C0809190008F7D03C080919000877F09
:101A00008093900008958091C0008F7703C08091EB
:101A1000C0008F7D8093C00008958091C200877FB1
:101A20008093C2000895009769F0FC0101900020A6
:101A3000E9F73197AF01481B590BBC0186E597E0E8
:101A40000C94430380E090E008958F929F92AF92B0
:101A5000BF920F931F93CF93DF93CDB7DEB7A197BC
:101A60000FB6F894DEBF0FBECDBF19A2423008F406
:101A70004AE08E010F5D1F4F842E912CA12CB12CBA
:101A8000A50194010E941E1BE62FB901CA01015055
:101A90001109EA3014F4E05D01C0E95CD801EC936F
:101AA000232B242B252B61F7C8010E94130DA1962F
:101AB0000FB6F894DEBF0FBECDBFDF91CF911F915F
:101AC0000F91BF90AF909F908F900895CF93DF9329
:101AD0000E94130DEC0187E193E00E94130D8C0F1F
:101AE0009D1FDF91CF9108958F929F92AF92BF92E9
:101AF000CF92DF92EF92FF920F931F93CF93DF93DA
:101B00006B017C01142F9B01AC010E940D1B8823EB
:101B100019F088E896E027C046015701E894B7F825
:101B20002FEF3FEF4FE75FE7C501B4010E940D1BA8
:101B300081110DC02FEF3FEF4FE75FE7C501B40103
:101B40000E94821818161CF48CE896E00CC02FEF47
:101B50003FEF4FE75FE4C701B6010E94081B18166C
:101B600084F480E996E0DF91CF911F910F91FF906F
:101B7000EF90DF90CF90BF90AF909F908F900C949C
:101B8000130D2FEF3FEF4FE75FECC701B6010E9447
:101B9000821887FDE6CF20E030E0A901C701B60139
:101BA0000E94821887FF0BC06DE286E597E00E94D5
:101BB0006A02EC01F7FAF094F7F8F09402C0C0E082
:101BC000D0E000E060E070E080E09FE3101741F0BB
:101BD00020E030E040E251E40E94601A0F5FF6CF4F
:101BE000A70196010E94F4196B017C010E94D91A89
:101BF0004B015C014AE00E94250DC80FD91F11233B
:101C0000B9F1C501B4010E9487189B01AC01C7015D
:101C1000B6010E94F3196B017C016EE286E597E044
:101C20000E946A02C80FD91F20E030E040E251E470
:101C3000C701B6010E94E8184B015C010E94D91A45
:101C40006B01E12CF12C4AE0C701B6010E94250D81
:101C5000C80FD91FC701B6010E9487189B01AC01AC
:101C6000C501B4010E94F3196B017C011150E1F62A
:101C7000CE01DF91CF911F910F91FF90EF90DF90F8
:101C8000CF90BF90AF909F908F9008950C94130DBC
:101C9000CF92DF92EF92FF92CF93DF936C01990F77
:101CA000EE08FF08F7FE13C06DE286E597E00E949C
:101CB0006A02EC0166277727CB016C197D098E0932
:101CC0009F094AE00E94250DC80FD91F06C04AE0AF
:101CD000C701B6010E94250DEC0187E193E00E9447
:101CE000130D8C0F9D1FDF91CF91FF90EF90DF9030
:101CF000CF90089520915507211103C08FEF9FEFDA
:101D000008955FB7F89422E02093E9002091F20053
:101D100030E01216130614F421E030E0422FFC01EB
:101D200084E6415038F02898809354079091F10050
:101D30009193F7CF2115310521F08091F20088238E
:101D400019F05FBFC90108958BE68093E800F9CFD1
:101D50002FB7F89483E08093E9009091E800892FF1
:101D6000807295FF04C09091F20080E4891B2FBF20
:101D700008958091D00781110DC082E08093CC0737
:101D800084E08093CD071092CF071092CE0781E0B8
:101D90008093D0078CEC97E00895CF93DF93282FA2
:101DA00030E0F901E552FD4F8491F901E454FD4F13
:101DB000D491F901E356FD4FC491CC2391F08111E8
:101DC0000E94D60CEC2FF0E0EE0FFF1FE157FD4F05
:101DD000A591B491EC91ED2381E090E021F480E0B5
:101DE00002C080E090E0DF91CF9108951F93CF93E0
:101DF000DF93282F30E0F901E552FD4F8491F9017E
:101E0000E454FD4FD491F901E356FD4FC491CC2326
:101E1000C1F0162F81110E94D60CEC2FF0E0EE0FCE
:101E2000FF1FEF57FD4FA591B4919FB7F894111183
:101E300004C08C91D095D82302C0EC91DE2BDC93AA
:101E40009FBFDF91CF911F910895CF93DF9390E0D3
:101E5000FC01E454FD4F2491FC01E356FD4F8491B5
:101E6000882361F190E0880F991FFC01ED58FD4F28
:101E7000C591D491FC01EF57FD4FA591B49161112B
:101E800009C09FB7F8948881209582238883EC91BC
:101E90002E230BC0623061F49FB7F8948881322FF3
:101EA000309583238883EC912E2B2C939FBF06C003
:101EB0008FB7F894E8812E2B28838FBFDF91CF91C5
:101EC00008953FB7F8948091C8079091C907A091F1
:101ED000CA07B091CB0726B5A89B05C02F3F19F0C4
:101EE0000196A11DB11D3FBFBA2FA92F982F88279A
:101EF000820F911DA11DB11DBC01CD0142E0660FF5
:101F0000771F881F991F4A95D1F708958F929F9246
:101F1000AF92BF92CF92DF92EF92FF926B017C0162
:101F20000E94610F4B015C01C114D104E104F10472
:101F3000F1F00E94610FDC01CB0188199909AA090F
:101F4000BB09883E9340A105B10570F321E0C21A98
:101F5000D108E108F10888EE880E83E0981EA11CE4
:101F6000B11CC114D104E104F10419F7DDCFFF90D5
:101F7000EF90DF90CF90BF90AF909F908F9008959B
:101F80001F920F920FB60F9211242F933F938F93AE
:101F90009F93AF93BF938091C4079091C507A09181
:101FA000C607B091C7073091C30723E0230F2D3731
:101FB00020F40196A11DB11D05C026E8230F02964D
:101FC000A11DB11D2093C3078093C4079093C5073B
:101FD000A093C607B093C7078091C8079091C9071F
:101FE000A091CA07B091CB070196A11DB11D8093A6
:101FF000C8079093C907A093CA07B093CB07BF91B6
:10200000AF919F918F913F912F910F900FBE0F90A5
:102010001F901895EF92FF920F931F93CF93DF932A
:10202000EC01198218821B821A821D821C826115A2
:102030007105B9F17B01FB0101900020E9F73197AF
:102040008F01061B170BB8016F5F7F4F80E090E098
:102050000E94671C009759F0998388831B830A8329
:102060002C813D81232B81F4FC0110820DC08881DD
:102070009981009711F00E94DE1B198218821D823F
:102080001C821B821A820DC01D830C83B7018881BC
:102090009981DF91CF911F910F91FF90EF900C9458
:1020A000361DDF91CF911F910F91FF90EF90089512
:1020B000CF93DF93CDB7DEB7AA970FB6F894DEBF04
:1020C0000FBECDBF789484B5826084BD84B5816035
:1020D00084BD85B5826085BD85B5816085BD8091F3
:1020E0006E00816080936E0010928100809181006B
:1020F0008260809381008091810081608093810063
:102100008091800081608093800080919100826046
:1021100080939100809191008160809391008091E3
:1021200090008160809390008091C10084608093D2
:10213000C1008091C10082608093C1008091C10084
:1021400081608093C1008091C30081608093C3004F
:102150008091C00082608093C0008091C200816045
:102160008093C20080917A00846080937A0080918D
:102170007A00826080937A0080917A0081608093F7
:102180007A0080917A00806880937A0010925507D7
:1021900010922207109221078091D70081608093CE
:1021A000D70080EA8093D80089B5806189BD89B560
:1021B000826089BD09B400FEFDCF61E070E080E07F
:1021C00090E00E94860F8091D8008F7C8061809380
:1021D000D8008091E000807F8093E0008091E10052
:1021E0008E7E8093E1008DE08093E200559A209AE4
:1021F00080E090E00E94A808C82E81E090E00E9454
:10220000A808D82E82E090E00E94A808F82E83E06B
:1022100090E00E94A808182F84E090E00E94A8088F
:10222000E82E85E090E00E94A808082F86E090E064
:102230000E94A808282F3AE2C312E9C381E0D8120D
:10224000E6C38BE28F0D810F8E0D800F6AE00E9436
:10225000121B2913DCC38E2D90E090930E01809306
:102260000D01602F70E080E090E00E94871820E070
:1022700030E040E251E40E94601A60937F01709365
:1022800080018093810190938201812F90E0982FAB
:1022900088278F0D911D90933307809332071FB7C6
:1022A000F89480913607811127C0EEEAF2E084911C
:1022B000EDECF2E09491E82FF0E0EE0FFF1FED5807
:1022C000FD4FA591B491EC91E92321F461E081E106
:1022D0000E94F60E61E081E10E94250F8CB58061BD
:1022E0008CBD8CB580648CBD61E08FE00E94250FB1
:1022F00061E080E10E94250F809136078F5F809317
:1023000036071FBF8FE10E94190A51EAE52E51E0FE
:10231000F52E01E911E0F80180810E5F1F4F61E0A9
:102320000E94250FF7018081F2E0EF0EF11C62E0C0
:102330000E94250F21E00939120769F762E086E162
:102340000E94250F61E088E00E94250F61E086E091
:102350000E94250F61E084E00E94250F80E00E942A
:10236000C20861E089E00E94250F61E089E00E94D7
:10237000F60E60E087E10E94250F83E08093040160
:1023800010910D0110922D0710922C0710922B071F
:1023900010922A071092290781E080932807109253
:1023A000270761E082E00E94F60E61E083E00E9470
:1023B000F60E8091B9008E7F8093B9008091B900AC
:1023C0008D7F8093B90088E48093B80085E4809382
:1023D000BC008FEA92E090932607809325078BEB51
:1023E00092E09093240780932307110F1093BA0073
:1023F0008BE89AE090932F0780932E0783E598E06F
:1024000090933107809330078FEF9FEF909363078E
:102410008093620710925A0710925B0710925C0734
:1024200010925D070E944C0940E0642E40E0742E3B
:102430005524539486E597E00E948B02892B79F00E
:10244000509235070E94AA0886E597E00E948B0209
:10245000892B29F086E597E00E94F103F5CFC09023
:102460007F01D0908001E0908101F090820184E6AC
:1024700090E00E94E2089B01AC01C701B6010E94F6
:10248000F31920E030E0A9010E94081B18169CF403
:1024900084E690E00E94E2089B01AC01C701B6010E
:1024A0000E94F3192DEC3CEC4CE45DE30E94081B08
:1024B00018169CF016C084E690E00E94E2089B018A
:1024C000AC01C701B6010E94F3192DEC3CEC4CE4C1
:1024D0005DEB0E94821887FF04C0509235070E946E
:1024E000AA0880913507813009F0DFC18FE10E9491
:1024F000190A10910C016AE070E080E090E00E94FF
:10250000860F1123B1F30E944C0985ED91E00E94E2
:10251000660D8DE192E00E94660D89E193E00E94D4
:10252000660D8091320790913307FE0175966F0119
:102530009E012F5F3F4F7901892B61F569E173E0BF
:10254000CF010E940A1085E692E00E94660D6BEDB5
:1025500072E0C7010E943815B701C6010E94BB1581
:1025600089819A810E94DE1B0D891E890115110542
:1025700021F0C8010E94141603C060E070E0CB0196
:102580006115710521F37093330760933207C80119
:102590000E94DE1B69E173E0CE014F960E940A1093
:1025A00087EA92E00E94660DA12CB12C07ED12E0A3
:1025B000C50140978037910508F442C080910E0113
:1025C0008F9380910D018F931F930F93FF92EF9242
:1025D0000E943D1DB701C6010E943815B601CE010B
:1025E0004F960E94BB158D899E890E94DE1BCE01ED
:1025F0004F960E94AD150F900F900F900F900F9077
:102600000F90FC0180818A3029F4A0900D01B090D8
:102610000E010BC08F8D98A1009719F00E9414161F
:1026200003C060E070E0CB015B01C50140978037DB
:10263000910508F4BDCF8DED92E00E94660DB8CFF4
:10264000B0920E01A0920D01BF92AF9280E093E094
:102650009F938F93FF92EF920E943D1DC7010E94AE
:10266000660D8F8D98A10E94DE1B87E193E00E948A
:10267000130D69E173E0CE0185960E940A10609106
:102680007F0170918001809181019091820186018A
:1026900021E043E00E94F415DF92CF928AE193E0BB
:1026A0009F938F93FF92EF920E943D1D80E293E0F3
:1026B0000E94660D89E493E00E94660D8AE893E02B
:1026C0000E94660D0FB6F894DEBF0FBECDBF812C01
:1026D000912C5401B701CE014F960E943815BE01CE
:1026E000615E7F4FCE0185960E94BB158F8D98A1AC
:1026F0000E94DE1BCE0185960E94AD15FC018081F3
:102700008A3091F480907F0190908001A0908101A7
:10271000B090820120E030E0A901C501B4010E941F
:1027200082188823B9F213C0CE0185960E94AD1598
:10273000FC01808180330CF46EC1CE0185960E942D
:10274000AD15FC0180818A330CF065C169C18AE056
:1027500090E00E94E208A50194010E948218811174
:1027600062C080927F0190928001A0928101B0921C
:1027700082018BEC93E00E94460E42E0C501B40159
:102780000E94740D87E193E00E94130D8DA19EA11C
:102790000E94DE1B8FED93E00E94460EE090320710
:1027A000F090330710910D0120E030E040E251E459
:1027B00060917F01709180018091810190918201EF
:1027C0000E94E8180E94D91A062F6AE280E090E081
:1027D0000E94361561E081E090E00E9436156E2D72
:1027E00082E090E00E9436156F2D83E090E00E9419
:1027F0003615612F84E090E00E943615602F85E049
:1028000090E00E9436151E0D155D1F0D812F800F63
:102810006AE00E94121B692F86E090E00E94361544
:1028200003E010E026C082EF93E00E94660D84E68C
:1028300090E00E94E2086B017C018AE294E00E9431
:10284000460E42E0C701B6010E94740D89EC93E088
:102850000E94660D64E670E080E090E00E94860FC2
:10286000A5019401C701B6010E9482188111DFCF32
:1028700078CF68EE73E080E090E00E94860F85EDEF
:1028800092E00E94460E0150110999F789E193E008
:102890000E94660D88E394E00E94660D60E177E295
:1028A00080E090E00E94860FF9CF0E94610F0091B6
:1028B0003707109138072091390730913A07601790
:1028C00071078207930780F00C591F4F2F4F3F4F1E
:1028D000061717072807390738F06114710409F43F
:1028E000A9CD0E940000A6CD6093370770933807EA
:1028F0008093390790933A0786E10E94CD0E4C01F0
:1029000081E08114910409F080E0809334070FE0A6
:1029100011E089E9C82E81E0D82E91E9A92E91E035
:10292000B92E21EAE22E21E0F22EF7018081F2E0B9
:10293000EF0EF11C0E94CD0E21E0009709F020E07F
:10294000F801238F228D222309F452C0F801892B2C
:1029500019F08114910431F4128E108611861286BA
:10296000138641C084819581A681B7810197A10911
:10297000B10984839583A683B783181619061A06AE
:102980001B06B4F180819181A281B38184839583F8
:10299000A683B783F501408061E0842D0E94F60E86
:1029A00060E0842D0E94F60EF80180859185A28555
:1029B000B3850197A109B10980879187A287B38761
:1029C00024854585568567857089420F511D611D97
:1029D000711D458756876787708B181619061A066A
:1029E0001B0634F0128E618DF60180810E942D0A43
:1029F000045E1F4FF2E0CF0ED11C22E0A20EB11CEC
:102A000039EAE31631E0F30609F08FCF66CF81E0B3
:102A10008093350744CC8DED92E00E94660D7ACE0E
:102A20008DA19EA10097F1F00E9414160E948918B2
:102A30004B015C0120E030E0A9010E948218811165
:102A400006C0812C912C30E2A32E31E4B32E20E07D
:102A500030E040E251E4C501B4010E94601A4B012C
:102A60005C0158CE60E070E0CB01E0CF0C94AE1971
:102A7000CF92DF92FF920F931F93CF93DF93CDB747
:102A8000DEB72A970FB6F894DEBF0FBECDBF6C013C
:102A9000CB010E94460EF12C00E010E08AE0F8160F
:102AA000E9F086E597E00E948B02892BB9F386E571
:102AB00097E00E94F103F82E682F86E597E00E94C8
:102AC0006A020930110554F7E1E0F0E0EC0FFD1F58
:102AD000E00FF11FF0820F5F1F4FE0CFE1E0F0E069
:102AE000EC0FFD1FE00FF11F1082BE016F5F7F4FE3
:102AF000C6010E940A10C6012A960FB6F894DEBFDE
:102B00000FBECDBFDF91CF911F910F91FF90DF904E
:102B1000CF900895E6E5F7E01382128288EE93E005
:102B2000A0E0B0E084839583A683B78325EB31E0F2
:102B3000318320832FEF3FEF35872487E6EAF7E0E4
:102B40001382128284839583A683B78387EC91E0F6
:102B5000918380831092B2070895FC01248135810E
:102B6000232B21F080819181009721F41092D807C6
:102B700088ED97E008950F931F93CF93DF938C0117
:102B8000EB01FC01808191810097B1F0688179812E
:102B90006115710579F0428153812C813D81421785
:102BA000530740F00E94361D8C819D81F80195836A
:102BB000848313C00E94DE1B88819981F801918370
:102BC00080838A819B81938382838C819D8195837D
:102BD0008483198218821B821A821D821C82DF91D3
:102BE000CF911F910F910895EF920F931F93CF9361
:102BF000DF93E80147FD02C034E001C034E1042E58
:102C0000000C550B57FF03C0519541955109E32E18
:102C1000022F242FAE010E945016CE01DF91CF91DA
:102C20001F910F91EF9008951F93FC01992788271A
:102C3000BC01E89411911032E9F3193010F01E3004
:102C4000C8F31B3251F01D3249F4689406C00E944B
:102C50003B16610F711D811D911D119110531A308A
:102C6000B0F33EF490958095709561957F4F8F4FAE
:102C70009F4F1F910895592F482F372F262F660FEA
:102C8000771F881F991F660F771F881F991F620F74
:102C9000731F841F951F660F771F881F991F089544
:102CA000A9E0B0E0E6E5F6E10C94C2196A01122F42
:102CB000B02E2BE3201720F0FF24F394F00E02C077
:102CC0002CE3F22E0F2D27E0AE014F5F5F4F0E94E5
:102CD000AA17BC014981842F8970813031F0E1FC51
:102CE00006C0E0FE06C090E205C09DE203C09BE284
:102CF00001C090E05E2D507143FF3CC0911102C0B5
:102D000083E001C084E0811718F4212F281B01C043
:102D100020E051110BC0F601822F30E2882319F018
:102D200031938150FBCFC20ED11C20E0992329F0B2
:102D3000D6019C93F60131966F01C6010396E2FE1F
:102D40000AC03EE4D6013C9341E411964C9311979E
:102D500012963C9306C03EE6F601308341E641837D
:102D60003283FC01322F40E2332309F442C0419305
:102D70003150FACF42FF44C0911102C083E001C03C
:102D800084E0811718F4212F281B01C020E0511185
:102D90000BC0F601822F30E2882319F03193815065
:102DA000FBCFC20ED11C20E0992329F0D6019C93C1
:102DB000F60131966F01C6010396E2FE0BC039E4BD
:102DC000D6013C933EE411963C93119736E412965B
:102DD0003C9307C039E6F60130833EE6318336E6A0
:102DE0003283FC01322F40E2332319F041933150FA
:102DF000FBCFFC01E20FF11D10828EEF9FEFA6C00A
:102E000021E030E0911102C020E030E016161706F4
:102E10001CF4FB01319602C0E1E0F0E02E0F3F1FF1
:102E2000BB2021F0EB2DF0E0319602C0E0E0F0E0B5
:102E30002E0F3F1FE12FF0E02E173F071CF4121B4F
:102E4000212F01C020E08E2D887159F4F601822FC8
:102E500030E2882319F031938150FBCFC20ED11C90
:102E600020E0992329F0D6019C93F60131966F0159
:102E700051110BC0F601822F90E3882319F0919332
:102E80008150FBCFC20ED11C20E00F2D060F9A817E
:102E9000342F307144FF03C0913309F401501016F0
:102EA00024F4093018F008E001C001E0AB0177FF1D
:102EB00002C040E050E0FB01E41BF50BA1E0B0E0F4
:102EC000AC0FBD1FEA0FFB1F8EE2A82E4B01801A2C
:102ED00091080B2D10E01195019511094F3FBFEF9F
:102EE0005B0721F4D601AC9211966D01641775074A
:102EF0002CF08416950614F4818101C080E34150C2
:102F000051093196D60111967D014017510724F0E1
:102F1000D6018C936701E2CF6417750739F49633B5
:102F200020F4953319F4311101C081E3F601808357
:102F3000F701822F90E2882319F091938150FBCF03
:102F4000F701E20FF11D108280E090E02996ECE09D
:102F50000C94DE19283008F027E03327DA01990FA6
:102F6000311D87FD916000966105710539F432606D
:102F70002E5F3D9330E32A95E1F708959F3F30F0AF
:102F800080387105610509F03C5F3C5F3D939130ED
:102F900008F08068911DDF93CF931F930F93FF92EA
:102FA000EF92192F987F9695E92F96959695E90FB0
:102FB000FF27EE5AFE4F99273327EE24FF24A7015F
:102FC000E70105900894079428F4360FE71EF81ED1
:102FD000491F511D660F771F881F991F0694A1F77F
:102FE0000590079428F4E70EF81E491F561FC11DCF
:102FF000770F881F991F661F0694A1F70590079405
:1030000028F4F80E491F561FC71FD11D880F991F9E
:10301000661F771F0694A1F70590079420F4490FC7
:10302000561FC71FD81F990F661F771F881F06944A
:10303000A9F784911095177041F0D695C7955795CB
:103040004795F794E7941A95C1F7E8EFF0E0689494
:103050001590159135916591959105907FE2739545
:10306000E118F10A430B560BC90BD009C0F7E10C6C
:10307000F11E431F561FC91FD01D7EF4703311F47B
:103080008A95E6CFE894015030F0080F0AF4002743
:10309000021708F4202F2395022F7A3328F079E3C2
:1030A0007D932A95E9F710C07D932A9589F60694B9
:1030B00097956795379517951794E118F10A430B83
:1030C000560BC90BD00998F023957E9173957A33EE
:1030D00008F070E37C932013B8F77E9170617D93C4
:1030E00030F0839571E37D9370E32A95E1F7112425
:1030F000EF90FF900F911F91CF91DF91992787FD5E
:10310000909508950E94C41808F481E00895E89409
:1031100009C097FB3EF490958095709561957F4F1F
:103120008F4F9F4F9923A9F0F92F96E9BB279395CD
:10313000F695879577956795B795F111F8CFFAF4DD
:10314000BB0F11F460FF1BC06F5F7F4F8F4F9F4F0E
:1031500016C0882311F096E911C0772321F09EE86C
:10316000872F762F05C0662371F096E8862F70E0D2
:1031700060E02AF09A95660F771F881FDAF7880FAC
:103180009695879597F90895990F0008550FAA0B02
:10319000E0E8FEEF16161706E807F907C0F012166A
:1031A0001306E407F50798F0621B730B840B950B6D
:1031B00039F40A2661F0232B242B252B21F40895C2
:1031C0000A2609F4A140A6958FEF811D811D08955F
:1031D0000E94FB180C946C190E945E1938F00E9432
:1031E000651920F0952311F00C9455190C945B1976
:1031F00011240C94A0190E947D1970F3959FC1F3BE
:10320000950F50E0551F629FF001729FBB27F00D94
:10321000B11D639FAA27F00DB11DAA1F649F6627E9
:10322000B00DA11D661F829F2227B00DA11D621F38
:10323000739FB00DA11D621F839FA00D611D221FF2
:10324000749F3327A00D611D231F849F600D211DD6
:10325000822F762F6A2F11249F5750409AF0F1F059
:1032600088234AF0EE0FFF1FBB1F661F771F881FC2
:1032700091505040A9F79E3F510580F00C9455198C
:103280000C94A0195F3FE4F3983ED4F386957795AC
:103290006795B795F795E7959F5FC1F7FE2B880F68
:1032A000911D9695879597F9089597F99F6780E8FE
:1032B00070E060E008959FEF80EC089500240A9488
:1032C0001616170618060906089500240A94121601
:1032D0001306140605060895092E0394000C11F434
:1032E000882352F0BB0F40F4BF2B11F460FF04C0E1
:1032F0006F5F7F4F8F4F9F4F089557FD9058440F3A
:10330000551F59F05F3F71F04795880F97FB991F44
:1033100061F09F3F79F08795089512161306140601
:10332000551FF2CF4695F1DF08C01616170618068E
:10333000991FF1CF86957105610508940895E89469
:10334000BB2766277727CB0197F90895F999FECF18
:1033500092BD81BDF89A992780B50895262FF999D5
:10336000FECF1FBA92BD81BD20BD0FB6F894FA9A68
:10337000F99A0FBE019608952F923F924F925F9255
:103380006F927F928F929F92AF92BF92CF92DF9275
:10339000EF92FF920F931F93CF93DF93CDB7DEB7DA
:1033A000CA1BDB0B0FB6F894DEBF0FBECDBF09946E
:1033B0002A88398848885F846E847D848C849B84C5
:1033C000AA84B984C884DF80EE80FD800C811B81D3
:1033D000AA81B981CE0FD11D0FB6F894DEBF0FBE02
:1033E000CDBFED0108955058BB27AA270E940B1AA4
:1033F0000C946C190E945E1938F00E94651920F037
:1034000039F49F3F19F426F40C945B190EF4E095FF
:10341000E7FB0C945519E92F0E947D1958F3BA1750
:10342000620773078407950720F079F4A6F50C94DA
:103430009F190EF4E0950B2EBA2FA02D0B01B901A8
:1034400090010C01CA01A0011124FF27591B99F01A
:10345000593F50F4503E68F11A16F040A22F232F26
:10346000342F4427585FF3CF469537952795A79576
:10347000F0405395C9F77EF41F16BA0B620B730B1D
:10348000840BBAF09150A1F0FF0FBB1F661F771F8E
:10349000881FC2F70EC0BA0F621F731F841F48F443
:1034A000879577956795B795F7959E3F08F0B0CFCC
:1034B0009395880F08F09927EE0F979587950895B3
:1034C0000E94741A0C946C190E94651958F00E949D
:1034D0005E1940F029F45F3F29F00C945519511101
:1034E0000C94A0190C945B190E947D1968F3992320
:1034F000B1F3552391F3951B550BBB27AA276217F0
:103500007307840738F09F5F5F4F220F331F441FFC
:10351000AA1FA9F335D00E2E3AF0E0E832D0915030
:103520005040E695001CCAF72BD0FE2F29D0660F1D
:10353000771F881FBB1F261737074807AB07B0E860
:1035400009F0BB0B802DBF01FF2793585F4F3AF066
:103550009E3F510578F00C9455190C94A0195F3FCB
:10356000E4F3983ED4F3869577956795B795F795EC
:103570009F5FC9F7880F911D9695879597F90895D4
:10358000E1E0660F771F881FBB1F62177307840770
:10359000BA0720F0621B730B840BBA0BEE1F88F77F
:1035A000E09508950E94D91A6894B1110C94A0195D
:1035B00008950E94851988F09F5798F0B92F992790
:1035C000B751B0F0E1F0660F771F881F991F1AF00E
:1035D000BA95C9F714C0B13091F00E949F19B1E0BB
:1035E00008950C949F19672F782F8827B85F39F0BA
:1035F000B93FCCF3869577956795B395D9F73EF4A7
:1036000090958095709561957F4F8F4F9F4F08954E
:103610000E94C41808F48FEF08950E94C418880B04
:10362000990B0895991B79E004C0991F961708F02B
:10363000961B881F7A95C9F780950895A1E21A2EE6
:10364000AA1BBB1BFD010DC0AA1FBB1FEE1FFF1F46
:10365000A217B307E407F50720F0A21BB30BE40B96
:10366000F50B661F771F881F991F1A9469F76095DD
:103670007095809590959B01AC01BD01CF01089597
:10368000EE0FFF1F0590F491E02D09940F931F9307
:10369000CF93DF938230910510F482E090E0E091C7
:1036A000DB07F091DC0720E030E0A0E0B0E03097ED
:1036B00019F1408151810281138148175907C8F0DF
:1036C0008417950769F4109731F012960C931297AE
:1036D00013961C9327C00093DB071093DC0722C0CE
:1036E0002115310519F04217530718F49A01BD014D
:1036F000EF01DF01F801DBCF21153105F9F0281BBF
:10370000390B2430310580F48A819B816115710564
:1037100021F0FB019383828304C09093DC078093A4
:10372000DB07FE01329644C0FE01E20FF31F8193D6
:10373000919322503109398328833AC02091D907C7
:103740003091DA07232B41F42091850130918601D5
:103750003093DA072093D9072091830130918401B7
:103760002115310541F42DB73EB7409187015091A5
:103770008801241B350BE091D907F091DA07E21795
:10378000F307A0F42E1B3F0B2817390778F0AC0184
:103790004E5F5F4F2417350748F04E0F5F1F509361
:1037A000DA074093D9078193919302C0E0E0F0E0FB
:1037B000CF01DF91CF911F910F910895CF93DF93A8
:1037C000009709F481C0FC01329713821282A09104
:1037D000DB07B091DC07109781F420813181820FE3
:1037E000931F2091D9073091DA072817390751F52F
:1037F000F093DA07E093D90767C0ED0120E030E0ED
:10380000CE17DF0740F44A815B819E0141155105C7
:10381000F1F0EA01F5CFD383C28340815181840F57
:10382000951FC817D90759F488819981840F951F6E
:103830000296918380838A819B8193838283211561
:10384000310529F4F093DC07E093DB073DC0E90183
:10385000FB83EA8349915991C40FD51FEC17FD07EB
:1038600061F480819181840F951F0296E90199830B
:103870008883828193819B838A83E0E0F0E01296C3
:103880008D919C911397009719F0FD01DC01F7CF02
:103890008D919C9111979D012E5F3F4F820F931F39
:1038A0002091D9073091DA072817390769F4309742
:1038B00029F41092DC071092DB0702C013821282F7
:1038C000B093DA07A093D907DF91CF910895A0E0D4
:1038D000B0E0EDE6FCE10C94C019EC01009721F496
:1038E000CB010E94461BB4C0FC01E60FF71F9C01F0
:1038F00022503109E217F30708F4A8C0D9010D914D
:103900001C91119706171707B0F00530110508F440
:103910009BC0C80104978617970708F495C002500A
:103920001109061B170B019311936D937C93CF0123
:103930000E94DE1B89C05B01A01AB10A4C01800EF7
:10394000911EA091DB07B091DC07612C712CE12C5A
:10395000F12C109709F446C08D919C911197A815F0
:10396000B905B1F56C0142E0C40ED11CCA14DB04E8
:1039700078F14C018A189B08640142E0C40ED11C06
:103980001296BC9012971396AC91B5E0CB16D10469
:1039900040F0B282A38391828082D9016D937C939F
:1039A00009C00E5F1F4F800F911FF9019183808323
:1039B000EB2DFA2FE114F10431F0D7011396FC93AB
:1039C000EE93129741C0F093DC07E093DB073CC015
:1039D0006816790608F43C017D0112960D90BC91A1
:1039E000A02DB7CF8091D9079091DA078816990654
:1039F000E1F466167706C8F4809183019091840102
:103A0000009741F48DB79EB740918701509188018E
:103A1000841B950BE817F907C8F4F093DA07E093D5
:103A2000D907F901718360830FC0CB010E94461B47
:103A30007C01009759F0A801BE010E942D1DCE0106
:103A40000E94DE1BC70104C0CE0102C080E090E0EE
:103A5000CDB7DEB7EEE00C94DC19FB01DC0102C04F
:103A600001900D9241505040D8F70895FB01DC01C0
:103A700001900D920020E1F70895AEE0B0E0E3E49C
:103A8000FDE10C94CA190D891E8986E08C831A8386
:103A900009838FEF9FE79E838D83AE01475E5F4F63
:103AA0006F89788DCE0101960E945F1DEF81F885A8
:103AB000E00FF11F10822E96E4E00C94E619ABE0C3
:103AC000B0E0E5E6FDE10C94BC196C017B018A01D4
:103AD000FC0117821682838181FFCCC1CE01019641
:103AE0003C01F6019381F70193FD859193FF81914C
:103AF0007F01882309F4BAC1853239F493FD859199
:103B000093FF81917F01853229F4B60190E00E94F4
:103B1000561FE7CF912C212C312CFFE1F315D8F063
:103B20008B3279F038F4803279F08332A1F4232D8E
:103B300020611DC08D3261F0803369F4232D216036
:103B400016C0832D8260382EE32DE4603E2E2AC0FD
:103B5000F32DF8601DC037FC2DC020ED280F2A3052
:103B600040F08E32B9F436FC81C1232D2064322E10
:103B700019C036FE06C08AE0989E200D1124922EB0
:103B800011C0EAE02E9E200D1124222EF32DF062AA
:103B90003F2E08C08C3621F4832D8068382E02C059
:103BA000883641F4F70193FD859193FF81917F0160
:103BB0008111B3CF982F9F7D9554933028F40C5FDB
:103BC0001F4F9FE399830DC0833631F0833771F027
:103BD000833509F059C021C0F801808189830E5FC7
:103BE0001F4F88248394912C530113C02801F2E0C5
:103BF0004F0E511CF801A080B18036FE03C0692D24
:103C000070E002C06FEF7FEFC5010E944B1F4C01B7
:103C10008201F32DFF773F2E16C0280122E0420ECD
:103C2000511CF801A080B18036FE03C0692D70E000
:103C300002C06FEF7FEFC5010E94401F4C01F32DC2
:103C4000F0683F2E820133FC1BC0822D90E0881665
:103C50009906B0F4B60180E290E00E94561F2A94C3
:103C6000F4CFF50137FC859137FE81915F01B601F4
:103C700090E00E94561F21102A9421E0821A910898
:103C80008114910471F7E8C0843611F0893641F54A
:103C9000F80137FE07C060817181828193810C5FDA
:103CA0001F4F08C060817181072E000C880B990B93
:103CB0000E5F1F4FF32DFF763F2E97FF09C09095A3
:103CC0008095709561957F4F8F4F9F4FF0683F2E85
:103CD0002AE030E0A3010E94921F882E861845C07A
:103CE000853731F4232D2F7EB22E2AE030E025C017
:103CF000932D997FB92E8F36C1F018F4883579F05D
:103D0000B5C0803719F0883721F0B0C0E92FE061E5
:103D1000BE2EB4FE0DC0FB2DF460BF2E09C034FED4
:103D20000AC0292F2660B22E06C028E030E005C068
:103D300020E130E002C020E132E0F801B7FE07C028
:103D400060817181828193810C5F1F4F06C0608109
:103D5000718180E090E00E5F1F4FA3010E94921FCF
:103D6000882E8618FB2DFF773F2E36FE0DC0232DA3
:103D70002E7FA22E891458F434FE0BC032FC09C0E9
:103D8000832D8E7EA82E05C0B82CA32C03C0B82C82
:103D900001C0B92CA4FE0FC0FE01E80DF11D808109
:103DA000803321F49A2D997EA92E09C0A2FE06C067
:103DB000B394B39404C08A2D867809F0B394A3FC1D
:103DC00011C0A0FE06C0B21488F4280C922C9B18D7
:103DD0000EC0B21460F4B60180E290E00E94561F5B
:103DE000B394F7CFB21418F42B1802C0982C212CDE
:103DF000A4FE10C0B60180E390E00E94561FA2FE10
:103E000017C0A1FC03C088E790E002C088E590E0FD
:103E1000B6010CC08A2D867859F0A1FE02C08BE253
:103E200001C080E2A7FC8DE2B60190E00E94561F1F
:103E3000891438F4B60180E390E00E94561F9A94EA
:103E4000F7CF8A94F301E80DF11D8081B60190E06F
:103E50000E94561F8110F5CF222009F442CEB601F0
:103E600080E290E00E94561F2A94F6CFF6018681E8
:103E7000978102C08FEF9FEF2B96E2E10C94D81947
:103E8000FC010590615070400110D8F78095909525
:103E90008E0F9F1F0895FC0161507040019001102A
:103EA000D8F7809590958E0F9F1F08950F931F93BD
:103EB000CF93DF93FB01238121FD03C08FEF9FEFA1
:103EC0002CC022FF16C046815781248135814217BC
:103ED000530744F4A081B1819D012F5F3F4F31838F
:103EE00020838C93268137812F5F3F4F3783268332
:103EF00014C08B01EC01FB010084F185E02D0995D4
:103F0000892BE1F6D80116968D919C911797019611
:103F100017969C938E931697CE01DF91CF911F91A8
:103F20000F910895FA01AA27283051F1203181F12B
:103F3000E8946F936E7F6E5F7F4F8F4F9F4FAF4FB1
:103F4000B1E03ED0B4E03CD0670F781F891F9A1FC4
:103F5000A11D680F791F8A1F911DA11D6A0F711D78
:103F6000811D911DA11D20D009F468943F912AE084
:103F7000269F11243019305D3193DEF6CF0108956C
:103F8000462F4770405D4193B3E00FD0C9F7F6CF9D
:103F9000462F4F70405D4A3318F0495D31FD405265
:103FA000419302D0A9F7EACFB4E0A69597958795FB
:103FB00077956795BA95C9F70097610571050895DA
:103FC0009B01AC010A2E0694579547953795279586
:103FD000BA95C9F7620F731F841F951FA01D08951E
:043FE000F894FFCF83
:103FE400FFFFFFFF0100E1000000000000200000CF
:103FF40000000000000000000000000100000000BC
:1040040000000000000000000100000000000000AB
:10401400000000000000000100000000000000009B
:10402400000000000100000000000000000000008B
:10403400000000010000000000000000000000007B
:10404400010000000000000000000000000000016A
:104054000000000000000000000000000100003328
:1040640033333F0000DD0780000000C18081000081
:104074000001000C00070000000000010002000322
:1040840000150014001300120004000500060007C8
:1040940000000000006A024303C90380028B02F19E
:1040A40003CD0300000000380815082008E50209C4
:1040B40003F502E6022D2D2D2D2D2D2D2D2D2D2D2B
:1040C4002D2D2D2D2D2D2D2D2D2D2D2D2D2D2D2D1C
:1040D4002D2D2D2D2D2D2D2D2D2D2D2D2D2D2D2D0C
:1040E4002D2D2D2D2D2D2D2D2D2D2D2D2D2D2D2DFC
:1040F4002D2D2D2D2D2D2D2D2D2D2D2D0053746178
:104104007274696E67206D61696E74656E616E6349
:1041140065206D6F64652E204D6F746F722064721C
:10412400697665727320616E642049324320696E3A
:104134007465726661636520617265206F66666C82
:10414400696E652E00454550524F4D206E6F7420A8
:10415400696E697469616C697A65642E20506C6556
:1041640061736520656E746572207468652073657B
:104174007269616C206E756D6265722028312E2E15
:1041840036353533352900506C6561736520656EAD
:10419400746572207468652064657669636573204C
:1041A4004932432D61646472657373202831362E5D
:1041B4002E313237292E00282564293E004572729B
:1041C4006F723A20706C6561736520656E746572F8
:1041D40020612076616C69642076616C75652E00BF
:1041E4004E6577204932432061646472657373209D
:1041F40069732025642E000D0A00282573293E00CA
:10420400506C656173652073656C65637420796FA8
:104214007572206D6F746F722773206D61782E2014
:1042240063757272656E743A0028312920302E311C
:1042340041202020202028332920302E33204120E3
:104244002020202028352920302E352041202020F0
:10425400202028372920302E3720412020202020DC
:1042640028392920302E3920410028322920302EA7
:104274003241202020202028342920302E3420418F
:10428400202020202028362920302E3620412020AE
:1042940020202028382920302E382041202020209A
:1042A4002028302920312E302041004E6577206DA2
:1042B40061782063757272656E742069732000538F
:1042C4006176696E6720636F6E66696720646174E6
:1042D4006100506C65617365207475726E2074683A
:1042E40065207472696D207265736973746F7220CE
:1042F400746F2073657420746865206D6F746F72B9
:104304002063757272656E742E006D61782063751A
:104314007272656E743A2000506C65617365207228
:1043240065626F6F7420746865206465766963657F
:104334002E0020205F5F205F2020205F5F5F5F5F93
:104344002020202020202020202020202020202069
:104354005F5F5F5F5F202020202020205F00202FF0
:10436400205F7C207C207C20205F5F205C2020203C
:1043740020202020202020202020207C20205F5F5F
:10438400205C2020202020285F29007C207C5F7C6A
:10439400207C5F7C207C5F5F29207C5F20202020A4
:1043A40020205F5F5F205F5F7C207C20207C207C5E
:1043B4005F205F5F205F5F5F2020205F5F5F5F5F44
:1043C400007C20205F7C205F5F7C20205F5F5F2F6C
:1043D4005C205C202F5C202F202F20275F5F7C2017
:1043E4007C20207C207C20275F5F7C205C205C205C
:1043F4002F202F205F205C007C207C207C207C5F91
:104404007C207C20202020205C2056202056202F39
:104414007C207C20207C207C5F5F7C207C207C2096
:10442400207C207C5C2056202F20205F5F2F007C86
:104434005F7C20205C5F5F7C5F7C2020202020202C
:104444005C5F2F5C5F2F207C5F7C20207C5F5F5F44
:104454005F5F2F7C5F7C20207C5F7C205C5F2F2053
:104464005C5F5F5F7C002843292032303139204370
:10447400687269737469616E2042657267736368F8
:104484006E656964657220262053746566616E20CA
:104494004675737300202020202020202020202017
:1044A40020202020202056657273696F6E200053EF
:1044B400657269616C206E756D6265723A202020A8
:1044C400202020004932432D416464726573733A9D
:1044D4002020202020202020006D61782E206D6F68
:1044E400746F722063757272656E743A2000412095
:1044F4002F200053797374656D206572726F723A60
:10450400206D6F746F722063757272656E742064AF
:104514006F65736E27742066697420676976656EAB
:104524002076616C75652E004F7065726174696EDA
:1045340067206D6F6465206E6F726D616C2E005024
:104544007265737320616E79206B657920746F20B6
:10455400656E746572206D61696E74656E616E63FB
:1045640065206D6F64652E006E616E00696E660075
:044574006F766600F8
:2070000055C000006EC000006CC000006AC0000068C0000066C0000064C0000062C0000043
:2070200060C000005EC00000F2C400005AC0000058C0000056C0000054C0000052C00000EE
:2070400050C0000078C000004CC000004AC0000048C0000046C0000044C0000042C00000BE
:2070600040C000003EC000003CC000003AC0000038C0000036C0000034C0000032C0000048
:2070800030C000002EC000002CC000002AC0000028C0000026C0000024C0000022C00000A8
:2070A00020C000001EC000001CC0000011241FBECFEFDAE0DEBFCDBF11E0A0E0B1E0E2E3BC
:2070C000FFE702C005900D92A83AB107D9F711E0A8EAB1E001C01D92AE3BB107E1F78FD30B
:2070E00026C78ECFF89410926F0010928100109285001092840081E085BF15BE47985D9AEB
:20710000289A0C94000008952091B2013091B3012F5F3F4F3093B3012093B201932F37FFA6
:2071200003C08EEF831B982F990F921710F447980895479A08951F920F920FB60F9211246E
:207140002F938F939F93EF93FF9310928500109284008091A8019091A901009741F00197D3
:207160009093A9018093A801892B09F45D9A8091AA019091AB01009741F001979093AB0126
:207180008093AA01892B09F4289AE0E0F0E0859194918F5F9F4F49F08091AC019091AD0151
:2071A00001969093AD018093AC01FF91EF919F918F912F910F900FBE0F901F90189584E0BC
:2071C0008093E9000DC08091E8008B778093E80003C08EB3882351F08091E80082FFF9CFBE
:2071E0008091E80085FFEFCF8091F1000895982F83E08093E9008091E80085FD0DC0809136
:20720000E8008E778093E80003C08EB3882369F08091E80080FFF9CF9093F1005D9884E6CB
:2072200090E09093A9018093A80108954F925F926F927F928F929F92AF92BF92CF92DF921E
:20724000EF92FF920F931F93CF93DF9384E08093E9008091E80082FF57C2289884E690E067
:207260009093AB018093AA01AADF182F853481F48CE49DE19093AD018093AC0107B600FC4B
:20728000FDCFF999FECF81E180935700E89503C0843519F494DF8DE00DC28C34E1F38035F9
:2072A000D1F3843721F484E4A2DF80E003C2813611F489E5FFC18134B1F481DF182F7FDFE3
:2072C00090E0880F991FAA2797FDA095BA2F312F330F20E0442737FD4095542F822B932B68
:2072E000A42BB52BB8C1803711F483E5E3C1833549F4C0E0D1E089917ADF21E0C730D20714
:20730000D1F7D9C1863521F481E371DF80E3D2C1833731F487E86BDF85E969DF8EE1CAC149
:207320008536B9F4E0E0F0E093E085E090935700E89507B600FCFDCF80935700E89507B65D
:2073400000FCFDCFE058FF4FA0E7E030FA0771F7A2CF823739F4E1E0F0E089E08093570024
:207360008491A8C1863439F4E0E0F0E089E08093570084919FC18E3439F4E3E0F0E089E0E5
:2073800080935700849196C1813539F4E2E0F0E089E08093570084918DC1823631F489E521
:2073A00026DF80E024DF80E885C1823419F0873609F0E5C01092AD011092AC0100DF082FE8
:2073C000FEDEF82EFCDE682E8554823008F071C1902F80E0CF2DD0E0C82BD92B10926F00B3
:2073E000173609F04BC081E180935700E895DD24CC24C3943FC0E090AE01F090AF010091CC
:20740000B0011091B101B6E46B16D9F4ED2DF0E0EE29FF29E4918E2FEADEDD2081F082E08D
:2074200090E0A0E0B0E0E80EF91E0A1F1B1FE092AE01F092AF010093B0011093B101DC2470
:2074400018C0D801C701B695A7959795879559D5CEDE82E090E0A0E0B0E0E80EF91E0A1FF2
:207460001B1FE092AE01F092AF010093B0011093B1012197209709F0BECF7DC08090AE01F5
:207480009090AF01A090B001B090B10196E4691609F05DC083E0F40180935700E89507B63E
:2074A00000FCFDCF54C0F6E46F1661F5772031F1E090AE01F090AF010091B0011091B1019E
:2074C0007EDED82ECC24852D90E08C299D29F7010C0140925700E895112482E090E0A0E08B
:2074E000B0E0E80EF91E0A1F1B1FE092AE01F092AF010093B0011093B10102C060DE582E1A
:20750000742423C0E090AE01F090AF010091B0011091B10116950795F794E79450DE682FFA
:20752000C701F7D48091AE019091AF01A091B001B091B1010296A11DB11D8093AE01909349
:20754000AF01A093B001B093B101219704C05524772444244394209709F0A5CF96E46916B6
:2075600041F485E0F40180935700E89507B600FCFDCF8DE03CDE82E080936F009CC0833492
:2075800071F40091AE011091AF0119DE90E021E0F8010C0120935700E89511247CCE8336C8
:2075A00019F5E090AE01F090AF010091B0011091B10105DEF701E16090E021E00C0120938C
:2075C0005700E895112482E090E0A0E0B0E0E80EF91E0A1F1B1FE092AE01F092AF0100936A
:2075E000B0011093B10157CE8D3661F4E091AE01F091AF0185E080935700E89507B600FCF2
:20760000FDCF49CE823551F4E091AE01F091AF0105911491812FEBDD802F4CC0843421F5FE
:20762000E090AE01F090AF010091B0011091B10116950795F794E794C2DD682FC70169D4DE
:207640008091AE019091AF01A091B001B091B1010296A11DB11D8093AE019093AF01A093D8
:20766000B001B093B10117CE843609F5E090AE01F090AF010091B0011091B101D801C70142
:20768000B695A795979587953CD4B1DD82E090E0A0E0B0E0E80EF91E0A1F1B1FE092AE010A
:2076A000F092AF010093B0011093B10104C08B3111F08FE39CDD83E08093E9009091E8002B
:2076C0008091E8008E778093E80095FF04C010C08EB38823C9F08091E80080FFF9CF809193
:2076E000E8008E778093E80003C08EB3882361F08091E80080FFF9CF84E08093E9008091F1
:20770000E8008B778093E800DF91CF911F910F91FF90EF90DF90CF90BF90AF909F908F90AC
:207720007F906F905F904F9008959091B601892F8F77813249F58091B7018032A1F081328A
:2077400019F5913A09F58091E800877F8093E8008DE091E067E070E00BD28091E8008B770B
:207760008093E8000895913279F48091E800877F8093E8008DE091E067E070E05DD2809192
:20778000E8008E778093E800089582E061EC42E0B5D083E061E842E1B1D084E060E842E1EF
:2077A000ADC084B7877F84BF88E10FB6F89480936000109260000FBE20E880E090E00FB63F
:2077C000F89420936100809361000FBE81E085BF92E095BF3F9A209A559AE1E6F0E02083A1
:2077E000108247985D9A289A109289008AEF8093880090936F0083E080938100F0C0409116
:20780000000850910108109201081092000894B714BE88E10FB6F8948093600010926000D5
:207820000FBE292F30E0F901E270F07091FD18C090FF05C0859194918F5F9F4F81F423FFFF
:207840000FC08091090190910A014817590741F0E0E0F0E0859194918F5F9F4F09F042DC64
:20786000A0DF78941092AD011092AC010CC0DEDC36D38091AC019091AD0181549F4110F00D
:207880001092140141DC80911401882381F78091E00081608093E00025DC80E090E0089598
:2078A000FA01923049F0933061F09130F9F485E191E022E130E01EC087E291E02EE330E04D
:2078C00019C0882329F485E691E024E030E012C0813029F489E691E022E230E00BC0823006
:2078E00029F48DE891E028E130E004C080E090E020E030E091838083C90108958093E9004E
:207900008091EB0081608093EB001092ED006093EC004093ED008091EE00881F8827881F62
:2079200008958091B60188238CF403C08EB38823B1F08091E80082FFF9CF8091E8008B772A
:207940008093E80008958EB3882349F08091E80080FFF9CF8091E8008E778093E800089594
:20796000EF92FF920F931F9345D04CD008ED10E0F80180818F77808380818068808380819B
:207980008F7D808319BC1EBA1092B40180EEE82EF12CF70180818B7F8083F8018081816052
:2079A000808380E060E042E0A9DFE1EEF0E080818E7F8083E2EEF0E0808181608083808144
:2079C00088608083F70180818E7F8083F8018081806180831F910F91FF90EF900895E7ED06
:2079E000F0E08081816080838AE482BF81E08093B501B6CFE8EDF0E080818E7F808310921C
:207A0000E20008951092DA001092E10008951F920F920FB60F9211242F933F934F935F93F6
:207A20006F937F938F939F93AF93BF93EF93FF938091DA0080FF1BC08091D80080FF17C0B2
:207A40008091DA008E7F8093DA008091D90080FF0BC080E189BD82E189BD09B400FEFDCF36
:207A600081E08EBB3BD203C019BC1EBA37D28091E10080FF17C08091E20080FF13C0809138
:207A8000E2008E7F8093E2008091E20080618093E2008091D80080628093D80019BC85E049
:207AA0008EBB1CD28091E10084FF2CC08091E20084FF28C080E189BD82E189BD09B400FEC5
:207AC000FDCF8091D8008F7D8093D8008091E1008F7E8093E1008091E2008F7E8093E20012
:207AE0008091E20081608093E2008091B401882331F48091E30087FD02C081E001C084E067
:207B00008EBBECD18091E10083FF21C08091E20083FF1DC08091E100877F8093E10082E06A
:207B20008EBB1092B4018091E1008E7F8093E1008091E2008E7F8093E2008091E2008061E9
:207B40008093E20080E060E042E0D8DEC7D1FF91EF91BF91AF919F918F917F916F915F9130
:207B60004F913F912F910F900FBE0F901F9018959C014091BC015091BD014617570718F49D
:207B8000F90190E044C06115710511F0AB01F8CF8091E8008E778093E80040E050E0F0CF0F
:207BA0008EB3882309F444C0853009F443C08091E80083FF02C081E008958091E80082FD70
:207BC00031C08091E80080FF22C08091F3009091F200782F60E0292F30E0262B372B07C07A
:207BE00081918093F100415050402F5F3F4F4115510519F02830310598F390E02830310566
:207C000009F491E08091E8008E778093E8004115510531F6992321F605C08EB3882341F075
:207C2000853041F08091E80082FFF7CF80E0089582E0089583E008959C016115710529F47C
:207C40008091E8008B778093E800F90126C08EB3882391F1853091F18091E80083FF02C06C
:207C600081E008958091E80082FFF1CF06C08091F10081936150704059F02091F300809191
:207C8000F200322F20E090E0822B932B892B79F78091E8008B778093E80061157105B9F601
:207CA00005C08EB3882341F0853041F08091E80080FFF7CF80E0089582E0089583E00895C2
:207CC0000F931F93DF93CF9300D0CDB7DEB7E6EBF1E08091F100819381E0EE3BF807C9F792
:207CE00024DD8091E80083FFE4C08091B6019091B701953009F46DC0963040F4913081F1A7
:207D0000913070F0933009F0D4C02AC0983009F4A3C0993009F4B2C0963009F0CAC07CC023
:207D2000803809F4C6C0823809F0C3C08091BA0187708093E9008091EB001092E9002091DB
:207D4000E800277F2093E80090E025E0969587952A95E1F781708093F1001092F10087C0D8
:207D6000882319F0823009F0A4C08F71823009F0A0C08091B801882331F52091BA01277097
:207D800009F497C02093E9008091EB0080FF1BC0933021F48091EB00806213C08091EB0018
:207DA00080618093EB0081E090E002C0880F991F2A95E2F78093EA001092EA008091EB00E5
:207DC00088608093EB001092E9008091E800877F51C0882309F06DC01091B8011F770FB79B
:207DE000F8948091E800877F8093E8009ADD8091E80080FFFCCF8091E3008078812B809398
:207E0000E30080688093E300112311F482E001C083E08EBB0FBF4DC08058823008F049C033
:207E20008091B8019091B9016091BA01AE014F5F5F4F36DDBC01009709F43BC08091E8008E
:207E4000877F8093E80089819A8192DE8091E8008B778093E8002DC0803859F58091E800AA
:207E6000877F8093E8008091B4018093F1008091E8008E778093E80054DD1BC08823C9F4CA
:207E80009091B8019230A8F48091E800877F8093E8009093B40145DD8091B401882331F420
:207EA0008091E30087FD02C081E001C084E08EBB6CDC8091E80083FF0AC08091EB0080624E
:207EC0008093EB008091E800877F8093E8000F900F90CF91DF911F910F91089508951F9360
:207EE0008EB3882361F01091E9001092E9008091E80083FF01C0E4DE17701093E9001F916F
:207F00000895F999FECF92BD81BDF89A992780B50895262FF999FECF1FBA92BD81BD20BDBD
:207F20000FB6F894FA9AF99A0FBE01960895F894FFCF4341544552494E4100777700080031
:207F40000000000000080112011001020000084123360001000201000109023E00020100FF
:207F600080320904000001020201000524001001042402040524060001070582030800FF0C
:207F800009040100020A000000070504021000010705830210000104030904220341007216
:207FA000006400750069006E006F0020004C0065006F006E006100720064006F0000001836
:1A7FC00003410072006400750069006E006F0020004C004C004300000000D7
:00000001FF
