:100000000C9484010C94AC010C94AC010C94AC01E4
:100010000C94AC010C94AC010C94AC010C94AC01AC
:100020000C94AC010C94AC010C9407040C94700477
:100030000C94AC010C94AC010C94AC010C94AC018C
:100040000C94AC010C94AC010C94AC010C94AC017C
:100050000C9474090C94AC010C94AC010C946111D7
:100060000C94AC010C94AC010C94AC010C94AC015C
:100070000C94AC010C94AC010C94AC010C94AC014C
:100080000C94AC010C94AC010C94AC010C944D0993
:100090000C94BE060C94AC010C94AC010C94AC0115
:1000A0000C94AC010C94AC010C94AC01EA0BF60B73
:1000B000010C070C6F0E0D0C6F0E2D0C340C5E0C2A
:1000C000690C730C940CA10CB00CCE0CE70CDC0C7E
:1000D000140D270D350D400D6D0D800D890D940DFE
:1000E000BC0DCE0DD70DE70D0F0E210E490E900E53
:1000F000930E820E860E8C0EB40EB40EB40E970EB6
:100100009B0E9F0EA50EA90EB40EAF0E00407A10E6
:10011000F35A00A0724E18090010A5D4E80000E8B8
:100120007648170000E40B54020000CA9A3B000016
:1001300000E1F505000080969800000040420F00A5
:100140000000A08601000000102700000000E80366
:10015000000000006400000000000A000000000031
:100160000100000000002C76D888DC674F0823DFF0
:10017000C1DFAE59E1B1B796E5E3E453C63AE651C3
:10018000997696E8E6C28426EB898C9B62ED407CEA
:100190006FFCEFBC9C9F40F2BAA56FA5F490055A86
:1001A0002AF75C936B6CF9676DC11BFCE0E40D47AB
:1001B000FEF520E6B500D0ED902E030094357705CE
:1001C0000080841E080000204E0A000000C80C3386
:1001D0003333330F986E12831141EF8D2114893B15
:1001E000E65516CFFEE6DB18D1844B381BF77C1D95
:1001F000901DA4BBE424203284725E228100C9F1E8
:1002000024ECA1E53D27080B0002020201000904CD
:100210000000010202000005240010010524010174
:1002200001042402060524060001070581031000CD
:100230004009040100020A00000007050202400014
:1002400000070583024000000403090412010002B4
:10025000EF020140401C380500010102030154690E
:100260006C6C204861726261756D006674447569DA
:100270006E6F00070605040100080A0B0C0D09004B
:10028000000000240027002A002D0030000000009C
:1002900000250028002B002E003100000000002364
:1002A00000260029002C002F000404040404030489
:1002B0000502020202040302020202060606060604
:1002C00006040402020204040408020110408040F3
:1002D000102040804080080204018040201002016C
:1002E000108010204040200000000200090F000094
:1002F000030401000C0000000000000000000000EA
:10030000000000000000751711241FBECFEFDAE0D7
:10031000DEBFCDBF28E0AAEAB6E001C01D92AA3335
:10032000B207E1F716E0A0E0B1E0E4E0F4E402C0D7
:1003300005900D92AA3AB107D9F711E0C4E8D1E0CF
:1003400004C02197FE010E94501DC338D107C9F790
:100350000E944D120C9400220C94000008954091CC
:1003600033075091340720913107309132074217FB
:100370005307B4F49091E8009570E1F39091E80090
:1003800092FD19C08093F10080913307909134075A
:1003900001968F739927892B19F48EEF8093E800CB
:1003A000809133079091340701969093340780939E
:1003B000330781E0089580E00895DF92EF92FF9285
:1003C0000F931F93CF93DF93D82EF92EE42E062F91
:1003D00010E0C8010196880F0E94AF0183E00E94DF
:1003E000AF01CD2DDF2D0C0F1D1FC017D10789F0D8
:1003F000E7FE03C0FE01849101C088810E94AF0125
:10040000F82E80E00E94AF018F2121968111EDCF5F
:1004100001C081E0DF91CF911F910F91FF90EF908C
:10042000DF900895DF92EF92FF920F931F93CF9387
:10043000DF93D82E8A017B01E40EF51EEB01CE1569
:10044000DF0571F0D7FE03C0FE01849101C08881F1
:100450000E94AF0121968111F2CF8FEF9FEF01C073
:10046000C801DF91CF911F910F91FF90EF90DF9026
:100470000895CF92DF92EF92FF920F931F93CF9345
:10048000DF936C017A018B01C0E0D0E0CE15DF056F
:1004900081F0D8016D918D01D601ED91FC91019013
:1004A000F081E02DC6010995892B11F02196EECF40
:1004B0007E01C701DF91CF911F910F91FF90EF90C7
:1004C000DF90CF900895CF93DF931F92CDB7DEB723
:1004D0006983DC01ED91FC910280F381E02D41E024
:1004E00050E0BE016F5F7F4F09950F90DF91CF9174
:1004F000089583E08093E9008091F200882319F049
:100500008AE38093E8000895FC018485958597FD32
:100510000BC09FB7F89482E08093E9008091F200CD
:100520009FBF90E0019608959FB7F89482E0809372
:10053000E9008091F2009FBF90E0089585ED8093DF
:10054000BC008091BC0084FDFCCF10925F07089531
:10055000E0916607F0916707309729F010926107E4
:100560001092600709940895CF93DF93AC01E09156
:100570006407F09165073097F1F0909163078091DF
:1005800062079817C0F090E0292F30E02617370750
:1005900054F4D901A655B94FEA01C20FD31F2881DF
:1005A0002C939F5FF1CF1092630760936207CB019A
:1005B000DF91CF910994DF91CF9108950895E09153
:1005C000630780916207E81730F4F0E0E655F94FD1
:1005D000808190E008958FEF9FEF089590916307D9
:1005E00080916207981750F4E92FF0E0E655F94F33
:1005F000208130E09F5F9093630702C02FEF3FEFB1
:10060000C90108958091620790E020916307821BE1
:10061000910908950F931F93CF93DF931F92CDB746
:10062000DEB782E0898342E450E066E072E080E871
:100630000E9412020E945A10DC0112960D911C9128
:1006400013970115110589F0D801ED91FC910280F5
:10065000F381E02DBE016F5F7F4FC801099597FDC3
:1006600004C0F80100851185ECCF89810F90DF91DE
:10067000CF911F910F9108958F929F92AF92BF9249
:10068000CF92DF92EF92FF920F931F93CF93DF935E
:100690006C017B018A0180910C01882309F45BC005
:1006A00080917207882309F456C08091570780FF14
:1006B00005C08091E00082608093E000E801B12CE9
:1006C0008AEFA82E93E0892E2AE3922E209711F428
:1006D000BB20D9F10E94491081110AC0AA94AA2016
:1006E000D1F161E070E080E090E00E942711EECF50
:1006F000282F30E0C217D3070CF48C2F9FB7F89443
:100700008092E9002091E80025FF1DC0282F30E0ED
:10071000C21BD30BF701815020F041914093F100AF
:10072000FACFE20EF31EBB2019F09092E8000AC047
:100730008091E80085FD07C09092E800BB24B39447
:10074000209709F0B12C9FBFC1CF84E68093360774
:100750001016110644F081E090E0F6019383828345
:1007600080E090E001C0C801DF91CF911F910F910F
:10077000FF90EF90DF90CF90BF90AF909F908F90C1
:1007800008950E94491090E008950F931F93CF930E
:10079000DF931F92CDB7DEB78C01FC018485958570
:1007A00097FF0EC0CE0101960E941C10019719F40C
:1007B000898190E002C08FEF9FEFF80195878487D1
:1007C000F801848595850F90DF91CF911F910F914E
:1007D0000895CF93DF931F92CDB7DEB7FC018485D8
:1007E000958597FD05C02FEF3FEF358724870BC018
:1007F000CE0101960E941C10019719F4898190E0A6
:1008000002C08FEF9FEF0F90DF91CF9108951F925D
:100810000F920FB60F9211248F939F938091E10056
:100820009091E100937F9093E10083FF0FC01092BD
:10083000E90091E09093EB001092EC0092E390932A
:10084000ED001092720798E09093F00082FF1CC0B8
:1008500093E09093E9009091F200992319F09AE3C4
:100860009093E80090913607992329F090913607EC
:1008700091509093360790917107992329F09091A8
:10088000710791509093710784FF10C08091E2002E
:100890008E7E81608093E2008091E1008F7E809364
:1008A000E100809157078E7E806111C080FF11C0EA
:1008B0008091E2008E7E80618093E2008091E10071
:1008C0008E7E8093E100809157078E7E81608093B9
:1008D00057079F918F910F900FBE0F901F90189503
:1008E0001F920F920FB60F921124CF92DF92EF92C8
:1008F000FF920F931F932F933F934F935F936F93A9
:100900007F938F939F93AF93BF93EF93FF93CF9377
:10091000DF93CDB7DEB76C97DEBFCDBF1092E90095
:100920008091E80083FF0BC289E0FE017596EE2EF0
:10093000DF2E815029F09091F10090833196F9CF0C
:1009400084E68093710782EF8093E8008D8987FFAA
:1009500005C09091E80090FFFCCF03C09EEF9093FC
:10096000E800982F907609F0C5C09E894F89588D70
:100970002F89F88C91110CC0803829F48091580788
:100980008093F10002C01092F1001092F1004BC16F
:10099000913051F4811147C14130510509F043C1F3
:1009A000809158078D7F0BC0933061F481113BC15A
:1009B0004130510509F037C180915807826080931A
:1009C000580731C1953049F48091E80080FFFCCF91
:1009D000822F80688093E30026C1963009F05DC0C5
:1009E0000B8D1C8D22E01092E900109234071092BA
:1009F0003307F21232C010923207109231070E9470
:100A00000A0399E0BE016F5F7F4FDB01E92F1D9262
:100A1000EA95E9F79983FA8291E09E8390EA9887B4
:100A20009AEF99872091330730913407275F3F4F22
:100A30003C832B838D831092E9001092340710922F
:100A40003307109332070093310749E050E080E00C
:100A50000E9412020E940A03E6C01093320700931C
:100A600031070E945A10DC0112960D911C911397C8
:100A70000115110509F4C1C0D801ED91FC91048064
:100A8000F581E02D6E2D7D2DC8010995009709F0A7
:100A9000CEC0F80100851185EBCF973009F44CC129
:100AA000983021F481E08093F100BDC0993009F0C5
:100AB000BAC0837009F040C1EFE8F1E081E031E0B5
:100AC00096E32081211109C08EE78093EA001092FD
:100AD000EA008F8980937207A6C08093E900309363
:100AE000EB0021912093EC009093ED008F5F873015
:100AF00041F7EACF8B8D9C8D1092E900109234075C
:100B0000109233079093320780933107898D8111BA
:100B10005BC08E899D89913A49F4813209F00CC1FC
:100B200047E050E065E071E080E0C2C0913209F03A
:100B300003C1833269F48F89988DA0E0B0E080937F
:100B4000000190930101A0930201B09303016BC0D7
:100B50008032A9F48091E80082FFFCCF88E0E5E0D4
:100B6000F1E0815029F09091F10090833196F9CF16
:100B700084E6809371078BEF8093E80054C0823243
:100B800009F051C08F8980930C01EEEFFFE785914A
:100B900094918B3F9C4D19F0E0E0F8E002C0EEEF3D
:100BA000FAE08091050190910601A0910701B091B2
:100BB0000801803B9440A105B10509F09DC08091DA
:100BC0000C0180FF78C098C00E945A10FC0102817D
:100BD00013810115110509F4AFC0D801ED91FC9105
:100BE0000190F081E02D6E2D7D2DC80109958111B8
:100BF0001AC0F80100851185ECCFF1E0FF1609F469
:100C00004EC0F3E0FF1298C08F89882309F44AC0D0
:100C1000823089F440E867E08BE692E00E94DD01D3
:100C2000882309F489C08EEF8093E80088C01816E5
:100C30001906CCF381C0813029F440E86CE08EE5E0
:100C400092E0ECCF833009F077C00E945A10DC01AB
:100C50001296ED90FC9013978E010F5F1F4F680165
:100C6000E114F10479F0D701ED91FC910680F78150
:100C7000E02DB801C7010995080F111DF701E084A7
:100C8000F184EECFD8011C92F60101900020E9F723
:100C90003197BF016C197D0940E0C601BFCF6CE4FC
:100CA00072E002C068E472E0FB01449150E080E829
:100CB0000E941202B8CFEE3F2AE0F20751F0808185
:100CC00091818737A7E79A0721F09093FF0A8093D5
:100CD000FE0A87E797E79183808380916000809385
:100CE00035079BE088E10FB6F894A89580936000E3
:100CF0000FBE9093600097CF80819181873797478F
:100D000009F091CFA8958091600088618093600080
:100D10008091350780936000EE3FBAE0FB0739F021
:100D20008091FE0A9091FF0A918380837CCF10927C
:100D3000FF0A1092FE0A77CF81E28093EB006C9657
:100D40000FB6F894DEBF0FBECDBFDF91CF91FF91FC
:100D5000EF91BF91AF919F918F917F916F915F9133
:100D60004F913F912F911F910F91FF90EF90DF9046
:100D7000CF900F900FBE0F901F9018951F920F925B
:100D80000FB60F9211242F933F934F935F936F935E
:100D90007F938F939F93AF93BF93EF93FF93809134
:100DA000B900887F803609F49CC068F5883209F460
:100DB0005BC090F4803109F454C038F4882309F4FE
:100DC000F6C0883009F44DC0F6C0883109F44CC033
:100DD000803209F45DC0EFC0803409F468C048F483
:100DE000803309F455C0883309F0E5C080930D07BE
:100DF000D8C0803509F44FC0883509F45DC0883407
:100E000009F0D9C0D6C0883909F4C7C0A8F488371A
:100E100009F467C038F4883609F463C0803709F4F0
:100E200060C0C9C0883809F4B8C0803909F45FC00F
:100E3000803809F0C0C05BC0803B09F486C038F43C
:100E4000803A09F466C0883A09F47FC0B4C0803C97
:100E500009F4A7C0883C09F4A4C0883B09F48AC0FF
:100E6000AAC08091300710C090912F0780912E0763
:100E7000981770F5E0912F0781E08E0F80932F0770
:100E8000F0E0E25FF84F80818093BB0085EC86C084
:100E900080930D078EC0E0912F0781E08E0F809325
:100EA0002F078091BB00F0E0E25FF84F80839091C4
:100EB0002F0780912E076EC0E0912F0781E08E0FE3
:100EC00080932F078091BB00F0E0E25FF84F8083B2
:100ED00080915E0781116DC081E080935D0784EA97
:100EE00061C083E080935F0710920C07CFCF8091A1
:100EF0000C07803208F051C0E0910C0781E08E0FA2
:100F000080930C078091BB00F0E0E451F94F80839F
:100F1000BDCF85EC8093BC0010925F0780910C07D9
:100F2000803230F4E0910C07F0E0E451F94F108288
:100F300060910C0770E0E0915907F0915A078CEE30
:100F400096E0099510920C0736C084E080935F0705
:100F50001092EB061092EA06E0915B07F0915C07B5
:100F600009958091EA06811105C081E08093EA0627
:100F70001092CA06E091EB0681E08E0F8093EB069B
:100F8000F0E0E653F94F80818093BB009091EB062F
:100F90008091EA06981708F479CF85E88093BC0021
:100FA0000AC085EC8093BC0010925F0704C01092C9
:100FB0000D070E949E02FF91EF91BF91AF919F910B
:100FC0008F917F916F915F914F913F912F910F90F2
:100FD0000FBE0F901F9018954091EA06262F30E023
:100FE000240F311D21323105DCF420915F072430BC
:100FF000C9F4FC0180E090E0861758F43091EA06CD
:101000002191DC01A653B94FA30FB11D2C9301967A
:10101000F3CF8091EA06680F6093EA0680E00895B6
:1010200081E0089582E00895CF93DF93CB01EA0138
:10103000642F0E94EC07CE01DF91CF91089580E0EC
:1010400090E0089594E0980FE82FF0E0EE5BF84F01
:101050004083452F562F672F772767FD7A958F5F3F
:101060009813F2CF892F0895E82FF0E0E153F84F5D
:1010700022816381862F90E0A0E0B0E0DC01992717
:101080008827922B2181822B2481BC01CD01922BB8
:10109000089520E1829FC0011124FC01E052F84F25
:1010A0004487558766877787F894408551856285A0
:1010B000738584859585A685B785840F951FA61FA2
:1010C000B71FCC96A11DB11D80839183A283B383EA
:1010D0007894089590913C07911119C091E09093F4
:1010E0003C0720E1209381001092800028EC30E042
:1010F000309387002093860021E12093810028EB24
:1011000038E0309354072093530790936F0090E199
:10111000899FF0011124E052F84F40875187628780
:101120007387F8944085518562857385848595859C
:10113000A685B785840F951FA61FB71FCC96A11D46
:10114000B11D80839183A283B38378940895CF9354
:10115000DF931F92CDB7DEB7698361E0CE010196C0
:101160000E94EC0781E090E00F90DF91CF9108950D
:10117000EF92FF920F931F93CF93DF9380913807E5
:1011800090913907A0913A07B0913B070197A109C7
:10119000B109181619061A061B06CCF180E293E075
:1011A000A0E0B0E08093380790933907A0933A0706
:1011B000B0933B0790EEE92E97E0F92E05E911E098
:1011C000C0E0D0E0FE0184E0EE0FFF1F8A95E1F75A
:1011D000E052F84F80819181A281B381F70184832D
:1011E0009583A683B783181619061A061B062CF4D6
:1011F00061E0F80180810E9497102196F0E1EF0EE6
:10120000F11C0E5F1F4FC430D105E1F62CC0809356
:10121000380790933907A0933A07B0933B07C0EE85
:10122000D7E005E911E08C819D81AE81BF81181660
:1012300019061A061B0684F40197A109B1098C83CB
:101240009D83AE83BF83892B8A2B8B2B29F460E08F
:10125000F80180810E94971060960E5F1F4FF8E0A2
:10126000C032DF0701F7DF91CF911F910F91FF90FF
:10127000EF90089589E00E946E1061E0892B09F0DB
:1012800060E089E00C9497104091520750E062E4CE
:1012900077E083EC97E00C9414081F920F920FB63E
:1012A0000F9211242F933F934F935F936F937F93EC
:1012B0008F939F93AF93BF93EF93FF93E091550765
:1012C000F09156070995FF91EF91BF91AF919F91D2
:1012D0008F917F916F915F914F913F912F910F90DF
:1012E0000FBE0F901F9018951F920F920FB60F927E
:1012F00011242F933F934F935F936F937F938F931B
:101300009F93AF93BF93EF93FF93E0915307F091B7
:1013100054070995FF91EF91BF91AF919F918F91E4
:101320007F916F915F914F913F912F910F900FBEE1
:101330000F901F9018950C94B61BE1E9F0E080E146
:1013400080831092900084ED90E3909397008093B7
:10135000960083E180838AE399E090935607809317
:10136000550781E08093710008951F93CF93DF9319
:10137000182F80933D07C82FD0E0BE017595679563
:1013800075956795617088E00E949710D595C7950F
:101390006C2F617086E00E949710612F617084E06D
:1013A000DF91CF911F910C949710CF92DF92EF9223
:1013B000FF92CF93DF93BC01E8E7F2E0E4918091E4
:1013C0007B00E3FB222720F930E095E0220F331F5A
:1013D0009A95E1F78F7D282B20937B0020910401C3
:1013E00080E4289F90011124E770E22BE0937C00B9
:1013F00080917A00806480937A0080917A0086FDE3
:10140000FCCFC0917800D0917900072E000C880B9A
:10141000990B0E94991A6B017C016C2F70E07D2B57
:10142000072E000C880B990B0E94991A20E030E0DF
:1014300040E85AE30E94F81A2AE037ED43E250E40C
:101440000E94F81A26E933E44BE05FE30E94701C27
:10145000A70196010E94F81A0E94E21C072E000CB8
:10146000880B990B0E94991AA70196010E94701C83
:10147000DF91CF91FF90EF90DF90CF900895CF92C2
:10148000DF92EF92FF9281EE91E00E94080F8DE0D3
:1014900092E00E94080F8AE392E00E94080F80E722
:1014A00092E00E94080F87EA92E00E94080F8EEDFA
:1014B00092E00E94080F80E693E00E94080F85E109
:1014C00093E00E94080F84E493E00E94E80F42E05A
:1014D0006BE774E18EE69FE30E94160F8EE593E0C2
:1014E0000E94B50E80E693E00E94080F81E693E02B
:1014F0000E94E80F80916807909169070E94EA0FA7
:1015000086E793E00E94E80F80910D0190910E0113
:101510000E94EA0F84E690E00E94D50962E370E041
:1015200080E090E00E94271184E690E00E94D509B7
:101530006B017C018BE893E00E94E80F60918301CE
:1015400070918401809185019091860142E00E9412
:10155000160F80EA93E00E94E80F42E0C701B6014F
:101560000E94160F8BE096E00E94080FA7019601DB
:101570006091830170918401809185019091860131
:101580000E94031C6B017C0120E030E0A9010E9455
:10159000181D18165CF42DEC3CEC4CE45DE3C7011F
:1015A000B6010E94181D18165CF01DC02DEC3CEC15
:1015B0004CE45DEBC701B6010E94921A87FF13C08D
:1015C00081E080936B070E949D09F0900C016AE016
:1015D00070E080E090E00E942711FF20B1F385EADF
:1015E00093E00E94080F80916B07811110C080E684
:1015F00093E00E94080F8AED93E00E94080F81EFAC
:1016000093E0FF90EF90DF90CF900C94080FFF9045
:10161000EF90DF90CF900895CF93C82F60E081E1E5
:101620000E949710CEBD00000DB407FEFDCF8EB511
:1016300061E081E10E949710C0933707CF91089530
:1016400021E030E0082E01C0220F0A94EAF720952D
:10165000909137072923462F417050E0BA0102C00C
:10166000660F771F8A95E2F7CB01822B0C940C0B47
:10167000CF93DF93E82FF0E09DE1899FE0011124F3
:10168000C15FDE4F8C8D81110BC0698FEE0FFF1F84
:10169000EB55FE4F60E080810E94200B81E08A8F35
:1016A000DF91CF910895CF92DF92EF92FF92CF9387
:1016B000DF936A017B01C82FD0E08DE18C9FF001A0
:1016C0008D9FF00D1124E15FFE4F77FF09C08FEF72
:1016D0008487FE01EE0FFF1FE355FE4F61E008C057
:1016E00081E08487FE01EE0FFF1FE355FE4F60E0AF
:1016F00080810E94200B8DE18C9FF0018D9FF00D69
:101700001124E15FFE4FB701A601F7FE07C07095F7
:101710006095509541955F4F6F4F7F4F4087518740
:1017200062877387DF91CF91FF90EF90DF90CF902A
:101730000895CF92DF92EF92FF920F931F93CF9372
:10174000DF93EC010FEC17E0C8018F5C97408C171A
:101750009D0744F0FE01D7FF02C0E0E0F0E0E15356
:10176000F84F09C083EC97E00E94EE02F8018183F4
:101770000F5F1F4FE9CFCF018F5C974040971CF45C
:1017800011823196F8CF81E08093CF0710925207F3
:10179000C091D107C0FD0AC0C1FD0AC0C2FD0AC088
:1017A000DC2FD870C3FF07C0D3E005C0D0E003C072
:1017B000D1E001C0D2E08C2F8370E091D0074E2F92
:1017C00050E04132510508F08AC2FA01EA5AFF4F4F
:1017D0000C94501D81E00E94340860933E07709382
:1017E0003F07809340079093410779C28C2FDF9188
:1017F000CF911F910F91FF90EF90DF90CF900C94BD
:10180000B50981E08093520780913D0797C082E03F
:101810000E943408AB01BC0115C082E00E9434086C
:101820002DE1D29FF0011124E15FFE4F0585168561
:101830002785308968017901C61AD70AE80AF90AAA
:10184000B701A6018D2FDF91CF911F910F91FF90CE
:10185000EF90DF90CF900C94530B2DE1D29FF001CD
:101860001124E15FFE4F5BC182E00E943408EDE18C
:10187000DE9FE0011124C15FDE4F698B7A8B8B8B79
:101880009C8B0E94991A9B01AC0160E070E080E89B
:101890009FE30E94701C20E034E244E759E40E9478
:1018A000F81A20E030E048EC52E40E94701C0E94DC
:1018B000E21C688379838A839B8311C22DE1D29FC6
:1018C000F0011124E15FFE4F4189528963897489D7
:1018D00078C180916A07811102C261E08091D207CC
:1018E0008111F2C1F0C1C090D20710E0EE24E39460
:1018F000F12CD0E0D12CCE018E219F21892B71F0CB
:1019000080916A0781110AC061E0C6018E219F2182
:10191000892B09F460E0812F0E94380BEE0CFF1C2C
:101920001F5F143041F7DBC181E0809352078DE1E6
:10193000D89FF0011124E15FFE4F828D8093420712
:10194000CEC181E080935207E0E8F1E080E0880FAB
:101950009081892B7D9791E0EC30F907C1F7EECFAC
:1019600081E0809352072DE1D29FF0011124E15FC5
:10197000FE4F948D990F80916A07880F880F982BDE
:10198000828D892B91E0238D211101C090E0990F68
:10199000990F990F982B90934207A1C182E00E9462
:1019A00034082DE1D29FF0011124E15FFE4F6587DD
:1019B00076878787908B93C18DE1D89FF0011124A2
:1019C000E15FFE4F4585568567857089FAC081E0E5
:1019D0000E94340860931C0170931D0180931E01C6
:1019E00090931F0185E00E94340860933901709341
:1019F0003A0180933B0190933C0189E00E943408B6
:101A00006093560170935701809358019093590148
:101A10008DE00E9434086093730170937401809389
:101A20007501909376015BC1CFE0D1E003E811E04E
:101A30004D855E856F857889809152070E942208C6
:101A4000809352076D960C171D0791F748C182E0ED
:101A50000E9434082DE1D29FF0011124E15FFE4F76
:101A6000658B768B878B908F3AC18DE1D89FF00183
:101A70001124E15FFE4F458956896789708DA1C0A9
:101A800081E00E94340860932401709325018093C3
:101A900026019093270185E00E943408609341015C
:101AA00070934201809343019093440189E00E9426
:101AB000340860935E0170935F018093600190939E
:101AC00061018DE00E94340860937B0170937C017A
:101AD00080937D0190937E0102C1CFE0D1E003E8C5
:101AE00011E04D895E896F89788D809152070E943F
:101AF0002208809352076D960C171D0791F7EFC0CF
:101B00004091D2075091D307052E000C660B770B3E
:101B100029C090E1899FF0011124E052F84F4085DF
:101B20005185628573854DC082E00E943408AB0107
:101B3000BC0180E00E946A0882E00E943408AB0188
:101B4000BC0181E00E946A0882E00E943408AB0177
:101B5000BC0182E00E946A0882E00E943408AB0166
:101B6000BC0183E0DF91CF911F910F91FF90EF9027
:101B7000DF90CF900C946A08C0EED7E04885598575
:101B80006A857B85809152070E94220880935207C4
:101B90006096E8E0C032DE0789F7A1C04091D20725
:101BA0005091D307052E000C660B770B2EC020E159
:101BB000829FF0011124E052F84F448555856685D7
:101BC000778580E00E9422088093520788C082E0D7
:101BD0000E943408AB01BC0180E00E94490882E009
:101BE0000E943408AB01BC0181E00E94490882E0F8
:101BF0000E943408AB01BC0182E00E94490882E0E7
:101C00000E943408AB01BC0183E0DF91CF911F91AA
:101C10000F91FF90EF90DF90CF900C944908C0EEA9
:101C2000D7E04C855D856E857F85809152070E9447
:101C3000220880935207609688E0C032D80789F75F
:101C40004EC061E09091D207911101C060E0F8941C
:101C500090E0FC0124E0EE0FFF1F2A95E1F7E0522F
:101C6000F84F0FEF1FEF9801008311832283338316
:101C70007894880F991FFC01EB56FE4F8081DF910D
:101C8000CF911F910F91FF90EF90DF90CF900C9428
:101C90009710C091D60782E00E943408AB01BC01C6
:101CA0009DE1D99FD0011124A15FBE4F81E05B96D9
:101CB0008C938D2F0E94530B80916A0781110FC066
:101CC00061E0C11101C060E08D2FDF91CF911F91C4
:101CD0000F91FF90EF90DF90CF900C94380BDF9135
:101CE000CF911F910F91FF90EF90DF90CF900895CB
:101CF00090E0FC013197EF30F105B0F5E958FF4F66
:101D00000C94501D809180008F7703C080918000DB
:101D10008F7D80938000089580918000877FF9CF28
:101D200084B58F7702C084B58F7D84BD089580917E
:101D300090008F7707C0809190008F7D03C08091C5
:101D40009000877F8093900008958091C0008F77E6
:101D500003C08091C0008F7D8093C0000895809162
:101D6000C200877F8093C2000895009769F0FC014C
:101D700001900020E9F73197AF01481B590BBC01D6
:101D800083E797E00C943C0380E090E008958F9205
:101D90009F92AF92BF920F931F93CF93DF93CDB7D4
:101DA000DEB7A1970FB6F894DEBF0FBECDBF19A264
:101DB000423008F44AE08E010F5D1F4F842E912CB3
:101DC000A12CB12CA50194010E942E1DE62FB90172
:101DD000CA0101501109EA3014F4E05D01C0E95C68
:101DE000D801EC93232B242B252B61F7C8010E94EB
:101DF000B50EA1960FB6F894DEBF0FBECDBFDF9132
:101E0000CF911F910F91BF90AF909F908F900895A9
:101E1000CF93DF930E94B50EEC018EE593E00E9414
:101E2000B50E8C0F9D1FDF91CF9108958F929F92D9
:101E3000AF92BF92CF92DF92EF92FF920F931F93D8
:101E4000CF93DF936B017C01142F9B01AC010E94A7
:101E50001D1D882319F08DE996E027C04601570122
:101E6000E894B7F82FEF3FEF4FE75FE7C501B40104
:101E70000E941D1D81110DC02FEF3FEF4FE75FE75F
:101E8000C501B4010E94921A18161CF481EA96E06A
:101E90000CC02FEF3FEF4FE75FE4C701B6010E9490
:101EA000181D181684F485EA96E0DF91CF911F91F2
:101EB0000F91FF90EF90DF90CF90BF90AF909F90E9
:101EC0008F900C94B50E2FEF3FEF4FE75FECC701FB
:101ED000B6010E94921A87FDE6CF20E030E0A9010A
:101EE000C701B6010E94921A87FF0BC06DE283E71B
:101EF00097E00E946302EC01F7FAF094F7F8F0948F
:101F000002C0C0E0D0E000E060E070E080E09FE36D
:101F1000101741F020E030E040E251E40E94701CD4
:101F20000F5FF6CFA70196010E94041C6B017C0194
:101F30000E94E91C4B015C014AE00E94C70EC80FD9
:101F4000D91F1123B9F1C501B4010E94971A9B0151
:101F5000AC01C701B6010E94031C6B017C016EE25B
:101F600083E797E00E946302C80FD91F20E030E0AA
:101F700040E251E4C701B6010E94F81A4B015C012E
:101F80000E94E91C6B01E12CF12C4AE0C701B6016B
:101F90000E94C70EC80FD91FC701B6010E94971A29
:101FA0009B01AC01C501B4010E94031C6B017C01C3
:101FB0001150E1F6CE01DF91CF911F910F91FF906B
:101FC000EF90DF90CF90BF90AF909F908F9008954B
:101FD0000C94B50ECF92DF92EF92FF92CF93DF93E6
:101FE0006C01990FEE08FF08F7FE13C06DE283E75E
:101FF00097E00E946302EC0166277727CB016C19FA
:102000007D098E099F094AE00E94C70EC80FD91F9B
:1020100006C04AE0C701B6010E94C70EEC018EE57A
:1020200093E00E94B50E8C0F9D1FDF91CF91FF9022
:10203000EF90DF90CF90089520917207211103C097
:102040008FEF9FEF08955FB7F89422E02093E900A7
:102050002091F20030E01216130614F421E030E073
:10206000422FFC0184E6415030F08093710790913B
:10207000F1009193F8CF2115310521F08091F20004
:10208000882319F05FBFC90108958BE68093E800AB
:10209000F9CF2FB7F89483E08093E9009091E8009E
:1020A000892F807295FF04C09091F20080E4891B13
:1020B0002FBF089580912D0881110DC082E080937B
:1020C000290884E080932A0810922C0810922B088B
:1020D00081E080932D0889E298E00895CF93DF9303
:1020E000282F30E0F901E951FD4F8491F901E853BF
:1020F000FD4FD491F901E755FD4FC491CC2391F0E8
:1021000081110E94780EEC2FF0E0EE0FFF1FE556D4
:10211000FD4FA591B491EC91ED2381E090E021F485
:1021200080E002C080E090E0DF91CF9108951F939E
:10213000CF93DF93282F30E0F901E951FD4F8491CF
:10214000F901E853FD4FD491F901E755FD4FC491D2
:10215000CC23C1F0162F81110E94780EEC2FF0E0F5
:10216000EE0FFF1FE357FD4FA591B4919FB7F89471
:10217000111104C08C91D095D82302C0EC91DE2BB4
:10218000DC939FBFDF91CF911F910895CF93DF9391
:1021900090E0FC01E853FD4F2491FC01E755FD4F11
:1021A0008491882361F190E0880F991FFC01E15828
:1021B000FD4FC591D491FC01E357FD4FA591B4911A
:1021C000611109C09FB7F894888120958223888384
:1021D000EC912E230BC0623061F49FB7F894888194
:1021E000322F309583238883EC912E2B2C939FBF25
:1021F00006C08FB7F894E8812E2B28838FBFDF911C
:10220000CF9108953FB7F8948091250890912608C2
:10221000A0912708B091280826B5A89B05C02F3F9C
:1022200019F00196A11DB11D3FBFBA2FA92F982FFC
:102230008827820F911DA11DB11DBC01CD0142E077
:10224000660F771F881F991F4A95D1F708958F92BF
:102250009F92AF92BF92CF92DF92EF92FF926B016B
:102260007C010E9402114B015C01C114D104E10404
:10227000F104F1F00E940211DC01CB0188199909E7
:10228000AA09BB09883E9340A105B10570F321E07E
:10229000C21AD108E108F10888EE880E83E0981E82
:1022A000A11CB11CC114D104E104F10419F7DDCF64
:1022B000FF90EF90DF90CF90BF90AF909F908F9066
:1022C00008951F920F920FB60F9211242F933F93F0
:1022D0008F939F93AF93BF93809121089091220891
:1022E000A0912308B09124083091200823E0230F07
:1022F0002D3720F40196A11DB11D05C026E8230F3E
:102300000296A11DB11D209320088093210890936F
:102310002208A0932308B093240880912508909167
:102320002608A0912708B09128080196A11DB11D8B
:102330008093250890932608A0932708B093280837
:10234000BF91AF919F918F913F912F910F900FBEB1
:102350000F901F9018950C94BE1BCF92DF92FF92A6
:102360000F931F93CF93DF93CDB7DEB72A970FB6A6
:10237000F894DEBF0FBECDBF6C01CB010E94E80F09
:10238000F12C00E010E08AE0F816E9F083E797E02E
:102390000E948402892BB9F383E797E00E94E90346
:1023A000F82E682F83E797E00E9463020930110539
:1023B00054F7E1E0F0E0EC0FFD1FE00FF11FF082B9
:1023C0000F5F1F4FE0CFE1E0F0E0EC0FFD1FE00FEB
:1023D000F11F1082BE016F5F7F4FC6010E94FF1187
:1023E000C6012A960FB6F894DEBF0FBECDBFDF91AF
:1023F000CF911F910F91FF90DF90CF900895EF92B2
:10240000FF920F931F93CF93DF93EC0119821882F1
:102410001B821A821D821C8261157105B9F17B0134
:10242000FB0101900020E9F731978F01061B170B84
:10243000B8016F5F7F4F80E090E00E94771E0097A9
:1024400059F0998388831B830A832C813D81232B38
:1024500081F4FC0110820DC088819981009711F0F0
:102460000E94EE1D198218821D821C821B821A8214
:102470000DC01D830C83B70188819981DF91CF91B5
:102480001F910F91FF90EF900C94461FDF91CF9119
:102490001F910F91FF90EF900895CF93DF93CDB7E9
:1024A000DEB7AA970FB6F894DEBF0FBECDBF789403
:1024B00084B5826084BD84B5816084BD85B5826049
:1024C00085BD85B5816085BD80916E0081608093FA
:1024D0006E00109281008091810082608093810063
:1024E0008091810081608093810080918000816073
:1024F0008093800080919100826080939100809110
:102500009100816080939100809190008160809320
:1025100090008091C10084608093C1008091C100CF
:1025200082608093C1008091C10081608093C1006E
:102530008091C30081608093C3008091C00082605D
:102540008093C0008091C20081608093C20080911E
:102550007A00846080937A0080917A008260809310
:102560007A0080917A00816080937A0080917A006D
:10257000806880937A001092720710925807109228
:1025800057078091D70081608093D70080EA8093BD
:10259000D80089B5806189BD89B5826089BD09B4DB
:1025A00000FEFDCF61E070E080E090E00E94271126
:1025B0008091D8008F7C80618093D8008091E0006A
:1025C000807F8093E0008091E1008E7E8093E10027
:1025D0008DE08093E20080E090E00E949B09C82E8D
:1025E00081E090E00E949B09D82E82E090E00E945A
:1025F0009B09F82E83E090E00E949B09182F84E04D
:1026000090E00E949B09E82E85E090E00E949B09E3
:10261000082F86E090E00E949B09282F3AE2C3121F
:1026200035C481E0D81232C48BE28F0D810F8E0D3C
:10263000800F6AE00E94221D291328C48E2D90E08D
:1026400090930E0180930D01602F70E080E090E088
:102650000E94971A20E030E040E251E40E94701C92
:102660006093830170938401809385019093860128
:10267000812F90E0982F88278F0D911D90936907E7
:10268000809368071FB7F89480916C07811127C069
:10269000EAEBF2E08491E9EDF2E09491E82FF0E0CA
:1026A000EE0FFF1FE158FD4FA591B491EC91E92386
:1026B00021F461E081E10E94971061E081E10E94D4
:1026C000C6108CB580618CBD8CB580648CBD61E01A
:1026D0008FE00E94C61061E080E10E94C6108091E8
:1026E0006C078F5F80936C071FBF8FE10E940C0BFC
:1026F00005E911E0F801F0800E5F1F4F61E08F2DBA
:102700000E94C61060E08F2D0E949710F1E00D39F5
:102710001F0781F765EBE62E61E0F62E0DE911E06B
:10272000F80180810E5F1F4F61E00E94C610F70123
:102730008081F2E0EF0EF11C62E00E94C61021E001
:10274000053A120769F762E086E10E94C61061E06F
:1027500088E00E94C61061E086E00E94C61061E039
:1027600084E00E94C61080E00E94B50961E089E023
:102770000E94C61061E089E00E94971060E087E146
:102780000E94C61083E08093040110910D01109205
:10279000630710926207109261071092600710920F
:1027A0005F0781E080935E0710925D0761E082E041
:1027B0000E94971061E083E00E9497108091B90019
:1027C0008E7F8093B9008091B9008D7F8093B9008E
:1027D00088E48093B80085E48093BC0088EA92E0A6
:1027E00090935C0780935B0784EB92E090935A0789
:1027F00080935907110F1093BA0089E99BE09093D9
:1028000065078093640784E499E090936707809359
:1028100066078FEF9FEF9093800780937F0710925A
:102820007707109278071092790710927A070E9422
:102830003F0A50E0452E50E0552E2224239483E792
:1028400097E00E948402892B79F020926B070E9406
:102850009D0983E797E00E948402892B29F083E792
:1028600097E00E94E903F5CFC0908301D0908401E6
:10287000E0908501F090860184E690E00E94D50901
:102880009B01AC01C701B6010E94031C20E030E0AF
:10289000A9010E94181D18169CF484E690E00E947D
:1028A000D5099B01AC01C701B6010E94031C2DECA8
:1028B0003CEC4CE45DE30E94181D18169CF016C019
:1028C00084E690E00E94D5099B01AC01C701B601E6
:1028D0000E94031C2DEC3CEC4CE45DEB0E94921A30
:1028E00087FF04C020926B070E949D0980916B07AF
:1028F000813009F0E1C18FE10E940C0B10910C01B5
:102900006AE070E080E090E00E9427111123B1F3AB
:102910000E943F0A8AE194E00E94080F82E694E058
:102920000E94080F80E693E00E94080F80916807DC
:1029300090916907FE0175966F019E012F5F3F4FD1
:102940007901892B61F560E673E0CF010E94FF11E8
:102950008AEA94E00E94080F60E275E0C7010E94D5
:10296000AD11B701C6010E94CB1789819A810E94DF
:10297000EE1D0D891E890115110521F0C8010E9467
:10298000241803C060E070E0CB016115710521F3EC
:102990007093690760936807C8010E94EE1D60E6A6
:1029A00073E0CE014F960E94FF118CEE94E00E94DE
:1029B000080FA12CB12C0CE115E0C5014097803720
:1029C000910508F442C080910E018F9380910D0112
:1029D0008F931F930F93FF92EF920E944D1FB701A9
:1029E000C6010E94AD11B601CE014F960E94CB17D1
:1029F0008D899E890E94EE1DCE014F960E94BD17C3
:102A00000F900F900F900F900F900F90FC0180810E
:102A10008A3029F4A0900D01B0900E010BC08F8D6B
:102A200098A1009719F00E94241803C060E070E09C
:102A3000CB015B01C50140978037910508F4BDCFFC
:102A400082E295E00E94080FB8CFB0920E01A092EA
:102A50000D01BF92AF9285E495E09F938F93FF9213
:102A6000EF920E944D1FC7010E94080F8F8D98A101
:102A70000E94EE1D8EE593E00E94B50E60E673E0C5
:102A8000CE0185960E94FF116091830170918401AF
:102A90008091850190918601860121E043E00E94AA
:102AA0000418DF92CF928CE595E09F938F93FF926D
:102AB000EF920E944D1F82E695E00E94080F8BE87E
:102AC00095E00E94080F8CEC95E00E94080F0FB66D
:102AD000F894DEBF0FBECDBF812C912C5401B701FD
:102AE000CE014F960E94AD11BE01615E7F4FCE01B7
:102AF00085960E94CB178F8D98A10E94EE1DCE0166
:102B000085960E94BD17FC0180818A3091F48090E7
:102B1000830190908401A0908501B090860120E00F
:102B200030E0A901C501B4010E94921A8823B9F2CC
:102B300013C0CE0185960E94BD17FC0180818033B1
:102B40000CF4CEC1CE0185960E94BD17FC01808198
:102B50008A330CF0C5C19EC18AE090E00E94D5097D
:102B60009B01AC01C501B4010E94921A811162C09F
:102B70008092830190928401A0928501B092860197
:102B80008DE096E00E94E80F42E0C501B4010E948A
:102B9000160F8EE593E00E94B50E8DA19EA10E94B6
:102BA000EE1D81E296E00E94E80FE0906807F09049
:102BB000690710910D0120E030E040E251E460919E
:102BC00083017091840180918501909186010E941A
:102BD000F81A0E94E91C062F6AE280E090E00E9449
:102BE000AB1161E081E090E00E94AB116E2D82E0BC
:102BF00090E00E94AB116F2D83E090E00E94AB113A
:102C0000612F84E090E00E94AB11602F85E090E09E
:102C10000E94AB111E0D155D1F0D812F800F6AE004
:102C20000E94221D692F86E090E00E94AB1103E014
:102C300010E026C084E396E00E94080F84E690E04E
:102C40000E94D5096B017C018CE696E00E94E80F9A
:102C500042E0C701B6010E94160F8BE096E00E9489
:102C6000080F64E670E080E090E00E942711A70161
:102C70009601C501B4010E94921A8111DFCF78CF6D
:102C800068EE73E080E090E00E9427118AE195E011
:102C90000E94E80F0150110999F780E693E00E9425
:102CA000080F8AE796E00E94E80F60EA76E881E084
:102CB00090E00E942711F9CF0E94021100916D0748
:102CC00010916E0720916F073091700760177107A0
:102CD0008207930780F00C591F4F2F4F3F4F061765
:102CE00017072807390738F04114510409F4A7CD14
:102CF0000E940000A4CD60936D0770936E078093CF
:102D00006F079093700786E10E946E104C0181E07E
:102D10008114910409F080E080936A070FE011E0CC
:102D200085EAE82E81E0F82E9DEAA92E91E0B92EE1
:102D30002DE9622E21E0722E35EBC32E31E0D32E29
:102D4000F6018081F2E0CF0ED11C0E946E109C0132
:102D500033243394892B09F0312CF801948D3916E2
:102D600039F1232B89F4911121C0838D8130F1F445
:102D700084858195848760E0F50180810E94200B25
:102D800022E0F801238F12C0992381F0F801838D8E
:102D9000823061F41086118612861386128E618D40
:102DA000F70180810E94200BF801138EF801348E08
:102DB000F801828D882309F457C0848D882319F087
:102DC000838D823019F48114910439F4F801128E44
:102DD000108611861286138642C0F801848195817F
:102DE000A681B7810197A109B10984839583A68340
:102DF000B783181619061A061B06B4F18081918153
:102E0000A281B38184839583A683B783F301308045
:102E100061E0832D0E94971060E0832D0E9497103F
:102E2000F80180859185A285B3850197A109B10933
:102E300080879187A287B3872485458556856785D6
:102E40007089420F511D611D711D45875687678727
:102E5000708B181619061A061B0634F0128E618D37
:102E6000F70180810E94200B035E1F4FF2E0EF0EFE
:102E7000F11C22E0620E711C32E0A30EB11C8DEB3E
:102E8000C81681E0D80609F05BCF2ECF81E0809391
:102E90006B07F8CB8DA19EA10097F1F00E9424183A
:102EA0000E94991A4B015C0120E030E0A9010E94C8
:102EB000921A811106C0812C912C40E2A42E41E48B
:102EC000B42E20E030E040E251E4C501B4010E949C
:102ED000701C4B015C0123CE60E070E0CB01E0CFC1
:102EE00082E295E00E94080F1ACE109276071092A7
:102EF000750788EE93E0A0E0B0E0809377079093A9
:102F00007807A0937907B0937A0721EC31E03093EA
:102F10007407209373072FEF3FEF309380072093C0
:102F20007F071092C6071092C5078093C70790933A
:102F3000C807A093C907B093CA0783ED91E09093A7
:102F4000C4078093C307E0EEF7E08CE390E0A0E0D5
:102F5000B0E080839183A283B383108611861286AA
:102F600013861486158616861786709628E0E0323A
:102F7000F20779F71092CF070895FC01248135817B
:102F8000232B21F080819181009721F41092350844
:102F900085E398E008950F931F93CF93DF938C01FF
:102FA000EB01FC01808191810097B1F0688179810A
:102FB0006115710579F0428153812C813D81421761
:102FC000530740F00E94461F8C819D81F801958334
:102FD000848313C00E94EE1D88819981F80191833A
:102FE00080838A819B81938382838C819D81958359
:102FF0008483198218821B821A821D821C82DF91AF
:10300000CF911F910F910895EF920F931F93CF933C
:10301000DF93E80147FD02C034E001C034E1042E33
:10302000000C550B57FF03C0519541955109E32EF4
:10303000022F242FAE010E946018CE01DF91CF91A4
:103040001F910F91EF9008951F93FC0199278827F6
:10305000BC01E89411911032E9F3193010F01E30E0
:10306000C8F31B3251F01D3249F4689406C00E9427
:103070004B18610F711D811D911D119110531A3054
:10308000B0F33EF490958095709561957F4F8F4F8A
:103090009F4F1F910895592F482F372F262F660FC6
:1030A000771F881F991F660F771F881F991F620F50
:1030B000731F841F951F660F771F881F991F089520
:1030C000A9E0B0E0E6E6F8E10C94D21B6A01122F09
:1030D000B02E2BE3201720F0FF24F394F00E02C053
:1030E0002CE3F22E0F2D27E0AE014F5F5F4F0E94C1
:1030F000BA19BC014981842F8970813031F0E1FC1B
:1031000006C0E0FE06C090E205C09DE203C09BE25F
:1031100001C090E05E2D507143FF3CC0911102C090
:1031200083E001C084E0811718F4212F281B01C01F
:1031300020E051110BC0F601822F30E2882319F0F4
:1031400031938150FBCFC20ED11C20E0992329F08E
:10315000D6019C93F60131966F01C6010396E2FEFB
:103160000AC03EE4D6013C9341E411964C9311977A
:1031700012963C9306C03EE6F601308341E6418359
:103180003283FC01322F40E2332309F442C04193E1
:103190003150FACF42FF44C0911102C083E001C018
:1031A00084E0811718F4212F281B01C020E0511161
:1031B0000BC0F601822F30E2882319F03193815041
:1031C000FBCFC20ED11C20E0992329F0D6019C939D
:1031D000F60131966F01C6010396E2FE0BC039E499
:1031E000D6013C933EE411963C93119736E4129637
:1031F0003C9307C039E6F60130833EE6318336E67C
:103200003283FC01322F40E2332319F041933150D5
:10321000FBCFFC01E20FF11D10828EEF9FEFA6C0E5
:1032200021E030E0911102C020E030E016161706D0
:103230001CF4FB01319602C0E1E0F0E02E0F3F1FCD
:10324000BB2021F0EB2DF0E0319602C0E0E0F0E091
:103250002E0F3F1FE12FF0E02E173F071CF4121B2B
:10326000212F01C020E08E2D887159F4F601822FA4
:1032700030E2882319F031938150FBCFC20ED11C6C
:1032800020E0992329F0D6019C93F60131966F0135
:1032900051110BC0F601822F90E3882319F091930E
:1032A0008150FBCFC20ED11C20E00F2D060F9A815A
:1032B000342F307144FF03C0913309F401501016CC
:1032C00024F4093018F008E001C001E0AB0177FFF9
:1032D00002C040E050E0FB01E41BF50BA1E0B0E0D0
:1032E000AC0FBD1FEA0FFB1F8EE2A82E4B01801A08
:1032F00091080B2D10E01195019511094F3FBFEF7B
:103300005B0721F4D601AC9211966D016417750725
:103310002CF08416950614F4818101C080E341509D
:1033200051093196D60111967D014017510724F0BD
:10333000D6018C936701E2CF6417750739F4963391
:1033400020F4953319F4311101C081E3F601808333
:10335000F701822F90E2882319F091938150FBCFDF
:10336000F701E20FF11D108280E090E02996ECE079
:103370000C94EE1B283008F027E03327DA01990F70
:10338000311D87FD916000966105710539F4326049
:103390002E5F3D9330E32A95E1F708959F3F30F08B
:1033A00080387105610509F03C5F3C5F3D939130C9
:1033B00008F08068911DDF93CF931F930F93FF92C6
:1033C000EF92192F987F9695E92F96959695E90F8C
:1033D000FF27EA59FE4F99273327EE24FF24A70140
:1033E000E70105900894079428F4360FE71EF81EAD
:1033F000491F511D660F771F881F991F0694A1F75B
:103400000590079428F4E70EF81E491F561FC11DAA
:10341000770F881F991F661F0694A1F705900794E0
:1034200028F4F80E491F561FC71FD11D880F991F7A
:10343000661F771F0694A1F70590079420F4490FA3
:10344000561FC71FD81F990F661F771F881F069426
:10345000A9F784911095177041F0D695C7955795A7
:103460004795F794E7941A95C1F7ECE0F1E068947A
:103470001590159135916591959105907FE2739521
:10348000E118F10A430B560BC90BD009C0F7E10C48
:10349000F11E431F561FC91FD01D7EF4703311F457
:1034A0008A95E6CFE894015030F0080F0AF400271F
:1034B000021708F4202F2395022F7A3328F079E39E
:1034C0007D932A95E9F710C07D932A9589F6069495
:1034D00097956795379517951794E118F10A430B5F
:1034E000560BC90BD00998F023957E9173957A33CA
:1034F00008F070E37C932013B8F77E9170617D93A0
:1035000030F0839571E37D9370E32A95E1F7112400
:10351000EF90FF900F911F91CF91DF91992787FD39
:10352000909508950E94D41A08F481E00895E894D3
:1035300009C097FB3EF490958095709561957F4FFB
:103540008F4F9F4F9923A9F0F92F96E9BB279395A9
:10355000F695879577956795B795F111F8CFFAF4B9
:10356000BB0F11F460FF1BC06F5F7F4F8F4F9F4FEA
:1035700016C0882311F096E911C0772321F09EE848
:10358000872F762F05C0662371F096E8862F70E0AE
:1035900060E02AF09A95660F771F881FDAF7880F88
:1035A0009695879597F90895990F0008550FAA0BDE
:1035B000E0E8FEEF16161706E807F907C0F0121646
:1035C0001306E407F50798F0621B730B840B950B49
:1035D00039F40A2661F0232B242B252B21F408959E
:1035E0000A2609F4A140A6958FEF811D811D08953B
:1035F0000E940B1B0C947C1B0E946E1B38F00E94D7
:10360000751B20F0952311F00C94651B0C946B1B1B
:1036100011240C94B01B0E948D1B70F3959FC1F375
:10362000950F50E0551F629FF001729FBB27F00D70
:10363000B11D639FAA27F00DB11DAA1F649F6627C5
:10364000B00DA11D661F829F2227B00DA11D621F14
:10365000739FB00DA11D621F839FA00D611D221FCE
:10366000749F3327A00D611D231F849F600D211DB2
:10367000822F762F6A2F11249F5750409AF0F1F035
:1036800088234AF0EE0FFF1FBB1F661F771F881F9E
:1036900091505040A9F79E3F510580F00C94651B56
:1036A0000C94B01B5F3FE4F3983ED4F38695779576
:1036B0006795B795F795E7959F5FC1F7FE2B880F44
:1036C000911D9695879597F9089597F99F6780E8DA
:1036D00070E060E008959FEF80EC089500240A9464
:1036E0001616170618060906089500240A941216DD
:1036F0001306140605060895092E0394000C11F410
:10370000882352F0BB0F40F4BF2B11F460FF04C0BC
:103710006F5F7F4F8F4F9F4F089557FD9058440F15
:10372000551F59F05F3F71F04795880F97FB991F20
:1037300061F09F3F79F087950895121613061406DD
:10374000551FF2CF4695F1DF08C01616170618066A
:10375000991FF1CF86957105610508940895E89445
:10376000BB2766277727CB0197F90895F999FECFF4
:1037700092BD81BDF89A992780B50895262FF999B1
:10378000FECF1FBA92BD81BD20BD0FB6F894FA9A44
:10379000F99A0FBE019608952F923F924F925F9231
:1037A0006F927F928F929F92AF92BF92CF92DF9251
:1037B000EF92FF920F931F93CF93DF93CDB7DEB7B6
:1037C000CA1BDB0B0FB6F894DEBF0FBECDBF09944A
:1037D0002A88398848885F846E847D848C849B84A1
:1037E000AA84B984C884DF80EE80FD800C811B81AF
:1037F000AA81B981CE0FD11D0FB6F894DEBF0FBEDE
:10380000CDBFED0108955058BB27AA270E941B1C6D
:103810000C947C1B0E946E1B38F00E94751B20F0DC
:1038200039F49F3F19F426F40C946B1B0EF4E095C9
:10383000E7FB0C94651BE92F0E948D1B58F3BA1708
:10384000620773078407950720F079F4A6F50C94B6
:10385000AF1B0EF4E0950B2EBA2FA02D0B01B90172
:1038600090010C01CA01A0011124FF27591B99F0F6
:10387000593F50F4503E68F11A16F040A22F232F02
:10388000342F4427585FF3CF469537952795A79552
:10389000F0405395C9F77EF41F16BA0B620B730BF9
:1038A000840BBAF09150A1F0FF0FBB1F661F771F6A
:1038B000881FC2F70EC0BA0F621F731F841F48F41F
:1038C000879577956795B795F7959E3F08F0B0CFA8
:1038D0009395880F08F09927EE0F9795879508958F
:1038E0000E94841C0C947C1B0E94751B58F00E9443
:1038F0006E1B40F029F45F3F29F00C94651B5111B9
:103900000C94B01B0C946B1B0E948D1B68F39923C5
:10391000B1F3552391F3951B550BBB27AA276217CB
:103920007307840738F09F5F5F4F220F331F441FD8
:10393000AA1FA9F335D00E2E3AF0E0E832D091500C
:103940005040E695001CCAF72BD0FE2F29D0660FF9
:10395000771F881FBB1F261737074807AB07B0E83C
:1039600009F0BB0B802DBF01FF2793585F4F3AF042
:103970009E3F510578F00C94651B0C94B01B5F3F83
:10398000E4F3983ED4F3869577956795B795F795C8
:103990009F5FC9F7880F911D9695879597F90895B0
:1039A000E1E0660F771F881FBB1F6217730784074C
:1039B000BA0720F0621B730B840BBA0BEE1F88F75B
:1039C000E09508950E94E91C6894B1110C94B01B15
:1039D00008950E94951B88F09F5798F0B92F99275A
:1039E000B751B0F0E1F0660F771F881F991F1AF0EA
:1039F000BA95C9F714C0B13091F00E94AF1BB1E085
:103A000008950C94AF1B672F782F8827B85F39F083
:103A1000B93FCCF3869577956795B395D9F73EF482
:103A200090958095709561957F4F8F4F9F4F08952A
:103A30000E94D41A08F48FEF08950E94D41A880BBC
:103A4000990B0895991B79E004C0991F961708F007
:103A5000961B881F7A95C9F780950895A1E21A2EC2
:103A6000AA1BBB1BFD010DC0AA1FBB1FEE1FFF1F22
:103A7000A217B307E407F50720F0A21BB30BE40B72
:103A8000F50B661F771F881F991F1A9469F76095B9
:103A90007095809590959B01AC01BD01CF01089573
:103AA000EE0FFF1F0590F491E02D09940F931F93E3
:103AB000CF93DF938230910510F482E090E0E091A3
:103AC0003808F091390820E030E0A0E0B0E030970D
:103AD00019F1408151810281138148175907C8F0BB
:103AE0008417950769F4109731F012960C9312978A
:103AF00013961C9327C0009338081093390822C0EE
:103B00002115310519F04217530718F49A01BD0128
:103B1000EF01DF01F801DBCF21153105F9F0281B9A
:103B2000390B2430310580F48A819B816115710540
:103B300021F0FB019383828304C090933908809322
:103B40003808FE01329644C0FE01E20FF31F819354
:103B5000919322503109398328833AC02091360845
:103B600030913708232B41F42091890130918A014B
:103B700030933708209336082091870130918801CF
:103B80002115310541F42DB73EB740918B0150917D
:103B90008C01241B350BE0913608F0913708E217B1
:103BA000F307A0F42E1B3F0B2817390778F0AC0160
:103BB0004E5F5F4F2417350748F04E0F5F1F50933D
:103BC0003708409336088193919302C0E0E0F0E01B
:103BD000CF01DF91CF911F910F910895CF93DF9384
:103BE000009709F481C0FC01329713821282A091E0
:103BF0003808B0913908109781F420813181820F03
:103C0000931F20913608309137082817390751F54E
:103C1000F0933708E093360867C0ED0120E030E00C
:103C2000CE17DF0740F44A815B819E0141155105A3
:103C3000F1F0EA01F5CFD383C28340815181840F33
:103C4000951FC817D90759F488819981840F951F4A
:103C50000296918380838A819B819383828321153D
:103C6000310529F4F0933908E09338083DC0E901A3
:103C7000FB83EA8349915991C40FD51FEC17FD07C7
:103C800061F480819181840F951F0296E9019983E7
:103C90008883828193819B838A83E0E0F0E012969F
:103CA0008D919C911397009719F0FD01DC01F7CFDE
:103CB0008D919C9111979D012E5F3F4F820F931F15
:103CC00020913608309137082817390769F4309762
:103CD00029F4109239081092380802C01382128217
:103CE000B0933708A0933608DF91CF910895A0E0F4
:103CF000B0E0EDE7FEE10C94D01BEC01009721F45D
:103D0000CB010E94561DB4C0FC01E60FF71F9C01B9
:103D100022503109E217F30708F4A8C0D9010D9128
:103D20001C91119706171707B0F00530110508F41C
:103D30009BC0C80104978617970708F495C00250E6
:103D40001109061B170B019311936D937C93CF01FF
:103D50000E94EE1D89C05B01A01AB10A4C01800EC1
:103D6000911EA0913808B0913908612C712CE12C7A
:103D7000F12C109709F446C08D919C911197A815CC
:103D8000B905B1F56C0142E0C40ED11CCA14DB04C4
:103D900078F14C018A189B08640142E0C40ED11CE2
:103DA0001296BC9012971396AC91B5E0CB16D10445
:103DB00040F0B282A38391828082D9016D937C937B
:103DC00009C00E5F1F4F800F911FF90191838083FF
:103DD000EB2DFA2FE114F10431F0D7011396FC9387
:103DE000EE93129741C0F0933908E09338083CC035
:103DF0006816790608F43C017D0112960D90BC917D
:103E0000A02DB7CF80913608909137088816990673
:103E1000E1F466167706C8F48091870190918801D5
:103E2000009741F48DB79EB740918B0150918C0162
:103E3000841B950BE817F907C8F4F0933708E09353
:103E40003608F901718360830FC0CB010E94561DB3
:103E50007C01009759F0A801BE010E943D1FCE01D0
:103E60000E94EE1DC70104C0CE0102C080E090E0B8
:103E7000CDB7DEB7EEE00C94EC1BFB01DC0102C019
:103E800001900D9241505040D8F70895FB01DC019C
:103E900001900D920020E1F70895AEE0B0E0E3E577
:103EA000FFE10C94DA1B0D891E8986E08C831A834E
:103EB00009838FEF9FE79E838D83AE01475E5F4F3F
:103EC0006F89788DCE0101960E946F1FEF81F88572
:103ED000E00FF11F10822E96E4E00C94F61BABE08D
:103EE000B0E0E5E7FFE10C94CC1B6C017B018A019B
:103EF000FC0117821682838181FFCCC1CE0101961D
:103F00003C01F6019381F70193FD859193FF819127
:103F10007F01882309F4BAC1853239F493FD859174
:103F200093FF81917F01853229F4B60190E00E94D0
:103F30006621E7CF912C212C312CFFE1F315D8F02D
:103F40008B3279F038F4803279F08332A1F4232D6A
:103F500020611DC08D3261F0803369F4232D216012
:103F600016C0832D8260382EE32DE4603E2E2AC0D9
:103F7000F32DF8601DC037FC2DC020ED280F2A302E
:103F800040F08E32B9F436FC81C1232D2064322EEC
:103F900019C036FE06C08AE0989E200D1124922E8C
:103FA00011C0EAE02E9E200D1124222EF32DF06286
:103FB0003F2E08C08C3621F4832D8068382E02C035
:103FC000883641F4F70193FD859193FF81917F013C
:103FD0008111B3CF982F9F7D9554933028F40C5FB7
:103FE0001F4F9FE399830DC0833631F0833771F003
:103FF000833509F059C021C0F801808189830E5FA3
:104000001F4F88248394912C530113C02801F2E0A0
:104010004F0E511CF801A080B18036FE03C0692DFF
:1040200070E002C06FEF7FEFC5010E945B214C0181
:104030008201F32DFF773F2E16C0280122E0420EA9
:10404000511CF801A080B18036FE03C0692D70E0DC
:1040500002C06FEF7FEFC5010E9450214C01F32D8C
:10406000F0683F2E820133FC1BC0822D90E0881641
:104070009906B0F4B60180E290E00E9466212A948D
:10408000F4CFF50137FC859137FE81915F01B601D0
:1040900090E00E94662121102A9421E0821A910862
:1040A0008114910471F7E8C0843611F0893641F526
:1040B000F80137FE07C060817181828193810C5FB6
:1040C0001F4F08C060817181072E000C880B990B6F
:1040D0000E5F1F4FF32DFF763F2E97FF09C090957F
:1040E0008095709561957F4F8F4F9F4FF0683F2E61
:1040F0002AE030E0A3010E94A221882E861845C044
:10410000853731F4232D2F7EB22E2AE030E025C0F2
:10411000932D997FB92E8F36C1F018F4883579F038
:10412000B5C0803719F0883721F0B0C0E92FE061C1
:10413000BE2EB4FE0DC0FB2DF460BF2E09C034FEB0
:104140000AC0292F2660B22E06C028E030E005C044
:1041500020E130E002C020E132E0F801B7FE07C004
:1041600060817181828193810C5F1F4F06C06081E5
:10417000718180E090E00E5F1F4FA3010E94A22199
:10418000882E8618FB2DFF773F2E36FE0DC0232D7F
:104190002E7FA22E891458F434FE0BC032FC09C0C5
:1041A000832D8E7EA82E05C0B82CA32C03C0B82C5E
:1041B00001C0B92CA4FE0FC0FE01E80DF11D8081E5
:1041C000803321F49A2D997EA92E09C0A2FE06C043
:1041D000B394B39404C08A2D867809F0B394A3FCF9
:1041E00011C0A0FE06C0B21488F4280C922C9B18B3
:1041F0000EC0B21460F4B60180E290E00E94662125
:10420000B394F7CFB21418F42B1802C0982C212CB9
:10421000A4FE10C0B60180E390E00E946621A2FED9
:1042200017C0A1FC03C088E790E002C088E590E0D9
:10423000B6010CC08A2D867859F0A1FE02C08BE22F
:1042400001C080E2A7FC8DE2B60190E00E946621E9
:10425000891438F4B60180E390E00E9466219A94B4
:10426000F7CF8A94F301E80DF11D8081B60190E04B
:104270000E9466218110F5CF222009F442CEB601BA
:1042800080E290E00E9466212A94F6CFF6018681B2
:10429000978102C08FEF9FEF2B96E2E10C94E81B11
:1042A000FC010590615070400110D8F78095909501
:1042B0008E0F9F1F0895FC01615070400190011006
:1042C000D8F7809590958E0F9F1F08950F931F9399
:1042D000CF93DF93FB01238121FD03C08FEF9FEF7D
:1042E0002CC022FF16C04681578124813581421798
:1042F000530744F4A081B1819D012F5F3F4F31836B
:1043000020838C93268137812F5F3F4F378326830D
:1043100014C08B01EC01FB010084F185E02D0995AF
:10432000892BE1F6D80116968D919C9117970196ED
:1043300017969C938E931697CE01DF91CF911F9184
:104340000F910895FA01AA27283051F1203181F107
:10435000E8946F936E7F6E5F7F4F8F4F9F4FAF4F8D
:10436000B1E03ED0B4E03CD0670F781F891F9A1FA0
:10437000A11D680F791F8A1F911DA11D6A0F711D54
:10438000811D911DA11D20D009F468943F912AE060
:10439000269F11243019305D3193DEF6CF01089548
:1043A000462F4770405D4193B3E00FD0C9F7F6CF79
:1043B000462F4F70405D4A3318F0495D31FD405241
:1043C000419302D0A9F7EACFB4E0A69597958795D7
:1043D00077956795BA95C9F70097610571050895B6
:1043E0009B01AC010A2E0694579547953795279562
:1043F000BA95C9F7620F731F841F951FA01D0895FA
:04440000F894FFCF5E
:10440400FFFFFFFF0100E1000000000000200000AA
:104414000000000000000000000000010000000097
:104424000000000000000000010000000000000087
:104434000000000000000000010000000000000077
:104444000000000000010000000000000000000067
:104454000000000000010000000000000000000057
:104464000000010000000000000000000000000047
:104474000000010000000000000000000000000136
:104484000000003333333F00003A0880000000C1CD
:1044940080810000000D000B000A00050001000CE3
:1044A40000070000000000010002000300040005F2
:1044B400000600070015001400130012000000009D
:1044C4000063023C03C10379028402E903C50300CB
:1044D400000000A70814081F08DE020203EE02DF32
:1044E4000220205F5F205F2020205F5F5F5F5F20EE
:1044F4002020202020202020202020202020205F79
:104504005F5F5F5F202020202020205F00202F207D
:104514005F7C207C207C20205F5F205C202020208A
:10452400202020202020202020207C20205F5F20AD
:104534005C2020202020285F29007C207C5F7C20B8
:104544007C5F7C207C5F5F29207C5F2020202020F2
:10455400205F5F5F205F5F7C207C20207C207C5F6D
:10456400205F5F205F5F5F2020205F5F5F5F5F00F1
:104574007C20205F7C205F5F7C20205F5F5F2F5C5E
:10458400205C202F5C202F202F20275F5F7C207C45
:1045940020207C207C20275F5F7C205C205C202FF7
:1045A400202F205F205C007C207C207C207C5F7C92
:1045B400207C20202020205C2056202056202F7C88
:1045C400207C20207C207C5F5F7C207C207C202041
:1045D4007C207C5C2056202F20205F5F2F007C5F96
:1045E4007C20205C5F5F7C5F7C2020202020205C7E
:1045F4005F2F5C5F2F207C5F7C20207C5F5F5F5F90
:104604005F2F7C5F7C20207C5F7C205C5F2F205CA4
:104614005F5F5F7C002843292032303139204368B2
:104624007269737469616E20426572677363686E40
:10463400656964657220262053746566616E204640
:10464400757373002020202020202020202020208B
:10465400202020202056657273696F6E20000D0A99
:104664000053657269616C206E756D6265723A20E3
:104674002020202020004932432D41646472657358
:10468400733A2020202020202020006D61782E20E5
:104694006D6F746F722063757272656E743A200068
:1046A40041202F200053797374656D206572726FF9
:1046B400723A206D6F746F722063757272656E74D6
:1046C40020646F65736E2774206669742067697649
:1046D400656E2076616C75652E004F70657261742D
:1046E400696E67206D6F6465206E6F726D616C2EEC
:1046F40000507265737320616E79206B6579207444
:104704006F20656E746572206D61696E74656E618B
:104714006E6365206D6F64652E002D2D2D2D2D2D5E
:104724002D2D2D2D2D2D2D2D2D2D2D2D2D2D2D2DB5
:104734002D2D2D2D2D2D2D2D2D2D2D2D2D2D2D2DA5
:104744002D2D2D2D2D2D2D2D2D2D2D2D2D2D2D2D95
:104754002D2D2D2D2D2D2D2D2D2D2D2D2D2D2D2D85
:104764002D005374617274696E67206D61696E7493
:10477400656E616E6365206D6F64652E204D6F7488
:104784006F72206472697665727320616E64204969
:10479400324320696E746572666163652061726577
:1047A400206F66666C696E652E00454550524F4D0C
:1047B400206E6F7420696E697469616C697A6564CE
:1047C4002E20506C6561736520656E74657220746B
:1047D40068652073657269616C206E756D626572BF
:1047E4002028312E2E36353533352900506C65613D
:1047F400736520656E7465722074686520646576DF
:1048040069636573204932432D616464726573730F
:10481400202831362E2E313237292E0028256429BE
:104824003E004572726F723A20706C656173652048
:10483400656E74657220612076616C6964207661AE
:104844006C75652E004E657720493243206164649F
:10485400726573732069732025642E0028257329DB
:104864003E00506C656173652073656C65637420EC
:10487400796F7572206D6F746F722773206D617814
:104884002E2063757272656E743A002831292030C7
:104894002E3141202020202028332920302E33207F
:1048A40041202020202028352920302E3520412069
:1048B4002020202028372920302E37204120202076
:1048C400202028392920302E39204100283229205F
:1048D400302E3241202020202028342920302E342C
:1048E4002041202020202028362920302E36204127
:1048F400202020202028382920302E382041202034
:1049040020202028302920312E302041004E657788
:10491400206D61782063757272656E7420697320EE
:1049240000536176696E6720636F6E666967206401
:1049340061746100506C65617365207475726E20DA
:10494400746865207472696D207265736973746F1D
:104954007220746F2073657420746865206D6F74A1
:104964006F722063757272656E742E006D617820AB
:1049740063757272656E743A2000506C656173657C
:10498400207265626F6F742074686520646576694F
:104994006365206D616E75616C6C792E006E616E5D
:0A49A40000696E66006F7666000081
:107000005FC0000078C0000076C0000074C00000BF
:1070100072C0000070C000006EC000006CC00000B4
:107020006AC0000068C00000BDC4000064C0000069
:1070300062C0000060C000005EC000005CC00000D4
:107040005AC00000DFC0000056C0000054C000005D
:1070500052C0000050C000004EC000004CC00000F4
:107060004AC0000048C0000046C0000044C0000004
:1070700042C0000040C000003EC000003CC0000014
:107080003AC0000038C0000036C0000034C0000024
:1070900032C0000030C000002EC000002CC0000034
:1070A0002AC0000028C0000026C000003D3E563E19
:1070B000FA3E563EFA3E8B3EAD3EFA3ECD3EDF3EB8
:1070C00011241FBECFEFDAE0DEBFCDBF11E0A0E09C
:1070D000B1E0EEE7FEE702C005900D92A639B107D8
:1070E000D9F721E0A6E9B1E001C01D92AC3AB207A0
:1070F000E1F752D3C2C684CF84E08093E900809147
:10710000E80085FD0EC08091E8008B778093E80051
:107110008091E80082FDF3CF8EB38111F9CF80E03A
:1071200008958091F100089593E09093E900909183
:10713000E80095FF09C08093F10084E690E0909309
:107140009B0180939A0108959091E8009E77909317
:10715000E8009091E80090FDEECF9EB39111F9CF39
:107160000895F89410926F0010928100109285009B
:107170001092840081E085BF15BE47980C940000F2
:1071800008958091A0019091A10101969093A10191
:107190008093A001292F97FF02C02EEF291B220FF9
:1071A000281710F447980895479A089584B7877F61
:1071B00084BF88E10FB6F89480936000109260005D
:1071C0000FBE90E080E80FB6F89480936100909332
:1071D00061000FBE81E085BF82E085BF3F9A209AA3
:1071E000559AE1E6F0E090E890831082479810927B
:1071F00089009AEF9093880080936F0083E08093DA
:107200008100B8C31F920F920FB60F9211242F93D3
:107210008F939F93EF93FF931092850010928400B9
:1072200080919A0190919B01009729F0019790938A
:107230009B0180939A018091980190919901009708
:1072400029F001979093990180939801E0E0F0E094
:1072500085919491019649F08091960190919701C2
:1072600001969093970180939601FF91EF919F91E2
:107270008F912F910F900FBE0F901F90189542E0A5
:1072800061EC82E00AD342E161E883E006D342E1A7
:1072900060E884E002C38091A401982F9F77913227
:1072A00039F59091A501903291F0913209F5813A2A
:1072B000F9F48091E800877F8093E80067E070E050
:1072C00083E091E020D48091E8008B770FC0813279
:1072D00079F48091E800877F8093E80067E070E0B0
:1072E00083E091E069D48091E8008E778093E80094
:1072F00008954F925F926F927F928F929F92AF927A
:10730000BF92CF92DF92EF92FF92CF93DF9384E010
:107310008093E9008091E80082FF2FC284E690E02C
:107320009093990180939801E7DED82F853481F4FA
:107330008CE49DE1909397018093960107B600FC41
:10734000FDCFF999FECF81E180935700E89503C006
:10735000843521F4D1DE8DE0E7DEE6C18C34D9F34B
:107360008035C9F3843721F484E4DEDE80E0F4CF95
:10737000813611F489E5F0CF813491F4BDDEC82F58
:10738000BBDE90E0880F991F2C2F30E0322F222790
:10739000330F822B932BAA2797FDA095BA2F98C164
:1073A000803711F483E5D8CF833549F4CCE8D1E0B8
:1073B0008991BADE21E0C339D207D1F7B5C186354C
:1073C00021F481E3B1DE80E3C7CF833731F487E86E
:1073D000ABDE85E9A9DE8EE1BFCF8536B9F4E0E00A
:1073E000F0E083E095E080935700E89507B600FC55
:1073F000FDCF90935700E89507B600FCFDCFE0580D
:10740000FF4FE11520E7F20771F7A5CF823719F496
:10741000E1E0F0E00EC0863419F4E0E0F0E009C0ED
:107420008E3419F4E3E0F0E004C0813539F4E2E091
:10743000F0E089E08093570084918ECF823631F45A
:1074400089E572DE80E070DE80E886CF823419F054
:10745000873609F0D5C010929701109296014CDE44
:10746000D82E4ADEE82E48DEC82F8BEB8C0F8230F8
:1074700010F08FE371CFF12CFD2810926F00D736FA
:1074800009F045C081E180935700E8955701912CA0
:10749000D1E0A114B10409F4AFC0C0909C01D09018
:1074A0009D01E0909E01F0909F01C634B9F4E92D52
:1074B000F0E0EC29FD29849137DE992069F082E023
:1074C000C80ED11CE11CF11CC0929C01D0929D0100
:1074D000E0929E01F0929F019D2615C0D701C60142
:1074E000B695A79597958795B2D41EDEE2E0CE0EAD
:1074F000D11CE11CF11CC0929C01D0929D01E09234
:107500009E01F0929F01F1E0AF1AB108C2CF8090C6
:107510009C0190909D01A0909E01B0909F01C63467
:1075200021F0C12CD12CD1E030C083E0F401809354
:107530005700E89507B600FCFDCFF3CFC63461F5E0
:10754000DD2039F140909C0150909D0160909E019A
:1075500070909F01D1DD2C2D30E0382BF201090114
:10756000D0935700E8951124F2E04F0E511C611C96
:10757000711C40929C0150929D0160929E017092FC
:107580009F01DD2621E0E21AF108E114F104B1F6D1
:1075900027C0B2DDC82EF5CFAFDD682F80919C01EA
:1075A00090919D01A0919E01B0919F01B695A795E4
:1075B0009795879554D440919C0150919D0160917D
:1075C0009E0170919F014E5F5F4F6F4F7F4F4093C1
:1075D0009C0150939D0160939E0170939F01D2CFB7
:1075E000C63441F485E0F40180935700E89507B66E
:1075F00000FCFDCF8DE098DD82E080936F0094C0A9
:10760000833471F4C0919C01D0919D0175DD90E0AF
:1076100021E0FE010C0120935700E89511249BCE38
:10762000833601F5C0909C01D0909D01E0909E01B1
:10763000F0909F0161DDF601E16090E021E00C0136
:1076400020935700E8951124F2E0CF0ED11CE11CE5
:10765000F11CC0929C01D0929D01E0929E01F0929B
:107660009F0179CE8D3661F4E0919C01F0919D01EE
:1076700085E080935700E89507B600FCFDCF6BCE00
:10768000823551F4E0919C01F0919D01C591D49116
:107690008D2F4ADD8C2F60CE843419F52DDD682FB7
:1076A00080919C0190919D01A0919E01B0919F01BC
:1076B000B695A79597958795D2D380919C01909187
:1076C0009D01A0919E01B0919F010296A11DB11D47
:1076D00080939C0190939D01A0939E01B0939F0184
:1076E0003ACE8436F1F4C0909C01D0909D01E09098
:1076F0009E01F0909F01D701C601B695A795979579
:107700008795A5D311DD22E0C20ED11CE11CF11C2E
:10771000C0929C01D0929D01E0929E01F0929F0147
:1077200003C08B3109F0A5CE83E08093E9009091EE
:10773000E8008091E8008E778093E80095FD11C005
:107740008091E80080FD04C08EB38111F9CF15C08F
:107750008091E8008E778093E80003C08EB3882381
:1077600061F08091E80080FFF9CF84E08093E90028
:107770008091E8008B778093E800DF91CF91FF90B4
:10778000EF90DF90CF90BF90AF909F908F907F90C1
:107790006F905F904F90089580910008909101083C
:1077A000109201081092000844B714BE28E10FB6E9
:1077B000F89420936000109260000FBE41FD1AC043
:1077C00040FF09C0E0E0F0E0259134912F3F3F4FAA
:1077D00011F0C7DC0FC043FF0DC0209100013091B4
:1077E00001018217930731F0E0E0F0E08591949178
:1077F000019679F7DBDC789410929701109296014C
:1078000080910201882369F074DD0AD3809196018A
:107810009091970181349F4110F010920201B1DCE8
:10782000EFCF8091E00081608093E0009ADC80E0FF
:1078300090E00895292F30E02230310539F02330CF
:10784000310549F02130310561F410C08EE390E03C
:107850002CE331E01EC0882371F0813089F0823042
:10786000A1F080E090E020E030E013C082E190E001
:107870002AE731E00EC084E090E028E331E009C05F
:1078800080E190E026E231E004C08AE190E02AE065
:1078900031E0FA013183208308958093E900EBEE13
:1078A000F0E0808181608083EDEEF0E010826093F3
:1078B000EC0040838091EE00881F8827881F089580
:1078C0008091A40187FD05C08091E80080FF0DC074
:1078D00010C08091E80082FD04C08EB38111F9CF01
:1078E00008958091E8008B7707C08EB38111ECCFAB
:1078F00008958091E8008E778093E80008950F93B3
:107900001F93CF93DF9341D048D0C8EDD0E088815A
:107910008F77888388818068888388818F7D88833A
:1079200019BC1EBA1092A20100EE10E0F80180818D
:107930008B7F808388818160888342E060E080E083
:10794000ACDFE1EEF0E080818E7F8083E2EEF0E05C
:10795000808181608083808188608083F80180815C
:107960008E7F8083888180618883DF91CF911F9192
:107970000F910895E7EDF0E08081816080838AE4D3
:1079800082BF81E08093A301BACFE8EDF0E080816F
:107990008E7F80831092E20008951092DA00109298
:1079A000E10008951F920F920FB60F9211242F93AA
:1079B0003F934F935F936F937F938F939F93AF9377
:1079C000BF93EF93FF938091DA0080FF1BC08091FB
:1079D000D80080FF17C08091DA008E7F8093DA0094
:1079E0008091D90080FF0BC080E189BD82E189BD13
:1079F00009B400FEFDCF81E08EBB11D203C019BCDB
:107A00001EBA0DD28091E10080FF17C08091E20084
:107A100080FF13C08091E2008E7F8093E20080910E
:107A2000E20080618093E2008091D80080628093C0
:107A3000D80019BC85E08EBBF2D18091E10084FFB3
:107A40002CC08091E20084FF28C080E189BD82E1E2
:107A500089BD09B400FEFDCF8091D8008F7D809351
:107A6000D8008091E1008F7E8093E1008091E20058
:107A70008F7E8093E2008091E20081608093E2003B
:107A80008091A201811104C08091E30087FF02C0B0
:107A900084E001C081E08EBBC2D18091E10083FF10
:107AA00021C08091E20083FF1DC08091E100877FAB
:107AB0008093E10082E08EBB1092A2018091E100F0
:107AC0008E7F8093E1008091E2008E7F8093E200C0
:107AD0008091E20080618093E20042E060E080E01B
:107AE000DCDE9DD1FF91EF91BF91AF919F918F917E
:107AF0007F916F915F914F913F912F910F900FBEAA
:107B00000F901F9018952091AA013091AB01261774
:107B1000370748F06115710539F42091E8002E7798
:107B20002093E80001C0B901FC0120E06115710556
:107B3000A1F18EB38823E1F18530E1F18091E80075
:107B400083FD34C08091E80082FF06C08091E80088
:107B500082FF26C080E008958091E80080FFE6CF94
:107B60002091F3008091F20090E0922B6115710555
:107B700051F08830910538F421912093F100615043
:107B800071090196F3CF21E0089709F020E0809178
:107B9000E8008E778093E800C9CF2111CACFD6CFF5
:107BA0008EB3882329F0853089F604C081E00895DA
:107BB00082E0089583E008956115710529F420910C
:107BC000E8002B772093E8006115710531F12EB3A1
:107BD000222361F1253061F12091E80023FD22C0CC
:107BE0002091E80022FFF3CFFC01CF014091F30088
:107BF0002091F20030E0342B232B09F38091F10027
:107C00008193CF01615071096115710571F7D7CF6B
:107C10008EB3882359F0853059F08091E80080FFB9
:107C2000F7CF02C081E0089580E0089582E00895D2
:107C300083E008950F931F93CF93DF9300D0CDB7C8
:107C4000DEB7E4EAF1E08091F100819381E0EC3A63
:107C5000F807C9F720DB8091E80083FFCBC02091B3
:107C6000A4013091A501832F90E08A30910508F09E
:107C7000C1C0FC01EA5AF74CE4C0223809F0BAC08E
:107C80008091A80187708093E9009091EB00109299
:107C9000E9008091E800877F8093E80095FB8827C2
:107CA00080F98093F1001092F10082C0822F8D7FC5
:107CB00009F0A0C0223009F09DC08091A601811179
:107CC00024C02091A801277009F494C02093E900F2
:107CD0008091EB0080FF19C08091EB00333011F4EC
:107CE000806211C080618093EB0081E090E0022E01
:107CF00001C0880F0A94EAF78093EA001092EA0024
:107D00008091EB0088608093EB001092E9008091F5
:107D1000E800877F50C021116DC01091A6011F7728
:107D20000FB7F8948091E800877F8093E800C8DD62
:107D30008091E80080FFFCCF8091E3008078812B68
:107D40008093E30080688093E300112311F083E0C7
:107D500001C082E08EBB0FBF4DC02058223008F01A
:107D600049C0AE014F5F5F4F6091A8018091A601AD
:107D70009091A7015FDD009709F43CC02091E800D5
:107D8000277F2093E800BC0189819A81BCDE809125
:107D9000E8008B778093E8002DC0203859F580915A
:107DA000E800877F8093E8008091A2018093F10032
:107DB0008091E8008E778093E80082DD1BC021115E
:107DC00019C09091A6019230A8F48091E800877FB5
:107DD0008093E8009093A20173DD8091A20181114C
:107DE00004C08091E30087FF02C084E001C081E00D
:107DF0008EBB45DA8091E80083FF0AC08091EB00DA
:107E000080628093EB008091E800877F8093E80098
:107E10000F900F90DF91CF911F910F9108950895CA
:107E2000CF938EB3882359F0C091E900C7701092A8
:107E3000E9008091E80083FDFDDEC093E900CF9169
:107E40000895EE0FFF1F0590F491E02D0994F99924
:107E5000FECF92BD81BDF89A992780B50895262F4F
:107E6000F999FECF1FBA92BD81BD20BD0FB6F8941F
:0E7E7000FA9AF99A0FBE01960895F894FFCF82
:107E7E00777701000000000000081A035400690023
:107E8E006C006C002000480061007200620061000E
:107E9E0075006D000000100366007400440075004C
:107EAE0069006E006F0000000403090409023E0021
:107EBE0002010080320904000001020201000524C3
:107ECE0000100104240204052406000107058203A4
:107EDE000800FF09040100020A0000000705040261
:107EEE0010000107058302100001120110010200AB
:107EFE000008401C370501000201000143415445B2
:067F0E0052494E41000043
:040000030000700089
:00000001FF
