:100000000C9486010C94AE010C94AE010C94AE01DC
:100010000C94AE010C94AE010C94AE010C94AE01A4
:100020000C94AE010C94AE010C9417040C9489044A
:100030000C94AE010C94AE010C94AE010C94AE0184
:100040000C94AE010C94AE010C94AE010C94AE0174
:100050000C9454090C94AE010C94AE010C94431111
:100060000C94AE010C94AE010C94AE010C94AE0154
:100070000C94AE010C94AE010C94AE010C94AE0144
:100080000C94AE010C94AE010C94AE010C942D09AD
:100090000C94C7060C94AE010C94AE010C94AE0106
:1000A0000C94AE010C94AE010C94AE01B30BBF0BDB
:1000B000CE0BD40B460EDA0B460EFF0B0A0C340C9B
:1000C0003F0C690CA50CB20CC20CDA0CF30CE80C5A
:1000D000200D3B0D490D5D0D8A0DA80DAD0DB60D22
:1000E000DB0DF40DF90D070E2C0E6C0E6F0E5E0E6F
:1000F000620E680E900E900E900E730E770E7B0EB1
:10010000810E850E900E8B0E00407A10F35A00A0DF
:10011000724E18090010A5D4E80000E876481700D0
:1001200000E40B54020000CA9A3B000000E1F50510
:10013000000080969800000040420F000000A0865A
:1001400001000000102700000000E803000000008C
:100150006400000000000A00000000000100000030
:1001600000002C76D888DC674F0823DFC1DFAE594A
:10017000E1B1B796E5E3E453C63AE651997696E8DD
:10018000E6C28426EB898C9B62ED407C6FFCEFBC61
:100190009C9F40F2BAA56FA5F490055A2AF75C938C
:1001A0006B6CF9676DC11BFCE0E40D47FEF520E6C2
:1001B000B500D0ED902E0300943577050080841EA5
:1001C000080000204E0A000000C80C333333330F00
:1001D000986E12831141EF8D2114893BE65516CF9D
:1001E000FEE6DB18D1844B381BF77C1D901DA4BBA9
:1001F000E424203284725E228100C9F124ECA1E55E
:100200003D27080B00020202010009040000010260
:10021000020000052400100105240101010424024C
:1002200006052406000107058103100040090401AA
:1002300000020A00000007050202400000070583D3
:10024000024000000403090412010002EF02014011
:100250004123368000010102030141726475696E19
:100260006F204C4C430041726475696E6F204C6581
:100270006F6E6172646F00070605040100080A0BC7
:100280000C0D0900000000240027002A002D00307A
:100290000000000000250028002B002E0031000087
:1002A0000000002300260029002C002F0004040475
:1002B000040403040502020202040302020202060D
:1002C00006060606060404020202040404080201EB
:1002D000104080401020408040800802040180408F
:1002E0002010020110801020404020000000020079
:1002F000090F0000030401000C00000000000000D2
:10030000000000000000000000000D1711241FBEB7
:10031000CFEFDAE0DEBFCDBF28E0ACE9B6E001C048
:100320001D92AC31B207E1F716E0A0E0B1E0ECE2DB
:10033000F3E402C005900D92AC39B107D9F711E092
:10034000C6E8D1E004C02197FE010E94E41CC53834
:10035000D107C9F70E942F120C9494210C9400002D
:100360000895409125075091260720912307309149
:10037000240742175307B4F49091E8009570E1F315
:100380009091E80092FD19C08093F10080912507BB
:100390009091260701968F739927892B19F48EEF78
:1003A0008093E8008091250790912607019690930D
:1003B00026078093250781E0089580E00895DF9265
:1003C000EF92FF920F931F93CF93DF93D82EF92EC6
:1003D000E42E062F10E0C8010196880F0E94B1019B
:1003E00083E00E94B101CD2DDF2D0C0F1D1FC01722
:1003F000D10789F0E7FE03C0FE01849101C0888126
:100400000E94B101F82E80E00E94B1018F21219657
:100410008111EDCF01C081E0DF91CF911F910F914C
:10042000FF90EF90DF900895DF92EF92FF920F938D
:100430001F93CF93DF93D82E8A017B01E40EF51E24
:10044000EB01CE15DF0571F0D7FE03C0FE018491EC
:1004500001C088810E94B10121968111F2CF8FEFF6
:100460009FEF01C0C801DF91CF911F910F91FF90C5
:10047000EF90DF900895615030F02091F100FC0181
:1004800020830196F8CF289884E680936307089527
:10049000CF92DF92EF92FF920F931F93CF93DF9350
:1004A0006C017A018B01C0E0D0E0CE15DF0581F050
:1004B000D8016D918D01D601ED91FC910190F081F3
:1004C000E02DC6010995892B11F02196EECF7E0112
:1004D000C701DF91CF911F910F91FF90EF90DF90B7
:1004E000CF900895CF93DF931F92CDB7DEB7698386
:1004F000DC01ED91FC910280F381E02D41E050E0C0
:10050000BE016F5F7F4F09950F90DF91CF910895E6
:1005100083E08093E9008091F200882319F08AE358
:100520008093E8000895FC018485958597FD0BC0B4
:100530009FB7F89482E08093E9008091F2009FBF1A
:1005400090E0019608959FB7F89482E08093E900C7
:100550008091F2009FBF90E0089585ED8093BC00EC
:100560008091BC0084FDFCCF109251070895E0916A
:100570005807F0915907309729F0109253071092BD
:10058000520709940895CF93DF93AC01E091560789
:10059000F09157073097F1F09091550780915407EB
:1005A0009817C0F090E0292F30E02617370754F451
:1005B000D901A456B94FEA01C20FD31F28812C9349
:1005C0009F5FF1CF1092550760935407CB01DF91E5
:1005D000CF910994DF91CF9108950895E091550747
:1005E00080915407E81730F4F0E0E456F94F808129
:1005F00090E008958FEF9FEF0895909155078091B7
:100600005407981750F4E92FF0E0E456F94F208191
:1006100030E09F5F9093550702C02FEF3FEFC90175
:1006200008958091540790E020915507821B91090D
:1006300008950F931F93CF93DF931F92CDB7DEB72B
:1006400082E0898342E450E062E072E080E80E9448
:1006500014020E943C10DC0112960D911C9113971C
:100660000115110589F0D801ED91FC910280F3810B
:10067000E02DBE016F5F7F4FC801099597FD04C053
:10068000F80100851185ECCF89810F90DF91CF9122
:100690001F910F9108958F929F92AF92BF92CF9228
:1006A000DF92EF92FF920F931F93CF93DF936C0132
:1006B0007B018A0180910C01882309F45CC0809140
:1006C0006407882309F457C08091490780FF05C05B
:1006D0008091E00082608093E000E801B12C8AEF15
:1006E000A82E93E0892E2AE3922E209711F4BB20A6
:1006F000D9F10E942B1081110AC0AA94AA20D9F125
:1007000061E070E080E090E00E940911EECF282FB8
:1007100030E0C217D3070CF48C2F9FB7F894809267
:10072000E9002091E80025FF1DC0282F30E0C21B02
:10073000D30BF701815020F041914093F100FACFA3
:10074000E20EF31EBB2019F09092E8000AC08091DF
:10075000E80085FD07C09092E800BB24B394209781
:1007600009F0B12C9FBFC1CF5D9884E68093280724
:100770001016110644F081E090E0F6019383828325
:1007800080E090E001C0C801DF91CF911F910F91EF
:10079000FF90EF90DF90CF90BF90AF909F908F90A1
:1007A00008950E942B1090E008950F931F93CF930C
:1007B000DF931F92CDB7DEB78C01FC018485958550
:1007C00097FF0EC0CE0101960E94FD0F019719F40C
:1007D000898190E002C08FEF9FEFF80195878487B1
:1007E000F801848595850F90DF91CF911F910F912E
:1007F0000895CF93DF931F92CDB7DEB7FC018485B8
:10080000958597FD05C02FEF3FEF358724870BC0F7
:10081000CE0101960E94FD0F019719F4898190E0A5
:1008200002C08FEF9FEF0F90DF91CF9108951F923D
:100830000F920FB60F9211248F939F938091E10036
:100840009091E100937F9093E10083FF0FC010929D
:10085000E90091E09093EB001092EC0092E390930A
:10086000ED001092640798E09093F00082FF20C0A2
:1008700093E09093E9009091F200992319F09AE3A4
:100880009093E80090912807992339F090912807D8
:10089000915090932807992389F1909163079923A8
:1008A00039F090916307915090936307992341F138
:1008B00084FF10C08091E2008E7E81608093E20010
:1008C0008091E1008F7E8093E100809149078E7EC8
:1008D000806111C080FF16C08091E2008E7E806131
:1008E0008093E2008091E1008E7E8093E100809110
:1008F00049078E7E81608093490704C05D9ACDCF01
:10090000289AD6CF9F918F910F900FBE0F901F9076
:1009100018951F920F920FB60F921124CF92DF926B
:10092000EF92FF920F931F932F933F934F935F93F9
:100930006F937F938F939F93AF93BF93EF93FF93A7
:10094000CF93DF93CDB7DEB76C97DEBFCDBF1092EC
:10095000E9008091E80083FFFBC168E0CE01459685
:100960000E943B0282EF8093E8008D8987FF05C0DB
:100970009091E80090FFFCCF03C09EEF9093E800B9
:10098000982F907609F0C6C09E894F89588D2F897F
:10099000F88C91110CC0803829F480914A0780931B
:1009A000F10002C01092F1001092F10045C19130A7
:1009B00051F4811141C14130510509F03DC180918F
:1009C0004A078D7F0BC0933061F4811135C14130EE
:1009D000510509F031C180914A07826080934A072E
:1009E0002BC1953049F48091E80080FFFCCF822F25
:1009F00080688093E30020C1963009F05EC00B8DC3
:100A00001C8D22E01092E900109226071092250713
:100A1000F21232C010922407109223070E94190389
:100A200099E0BE016F5F7F4FDB01E92F1D92EA95D0
:100A3000E9F79983FA8291E09E8390EA98879AEF8A
:100A400099872091250730912607275F3F4F3C83E8
:100A50002B838D831092E9001092260710922507B0
:100A6000109324070093230749E050E080E00E94A0
:100A700014020E941903E0C0109324070093230777
:100A80000E943C10DC0112960D911C9113970115E8
:100A9000110509F4BBC0D801ED91FC910480F581EA
:100AA000E02DBE016B5E7F4FC8010995009709F0EC
:100AB000C7C0F80100851185EACF973009F445C118
:100AC000983021F481E08093F100B6C0993009F0AC
:100AD000B3C0837009F039C1EBE8F1E081E031E0A7
:100AE00096E32081211109C08EE78093EA001092DD
:100AF000EA008F89809364079FC08093E900309358
:100B0000EB0021912093EC009093ED008F5F8730F4
:100B100041F7EACF8B8D9C8D1092E9001092260749
:100B2000109225079093240780932307898D8111C4
:100B300053C08E899D89913A49F4813209F005C1EB
:100B400047E050E065E071E080E0BBC0913209F021
:100B5000FCC0833269F48F89988DA0E0B0E0809367
:100B6000000190930101A0930201B093030164C0BE
:100B7000803269F48091E80082FFFCCF67E085E075
:100B800091E00E943B028BEF8093E80055C08232D7
:100B900009F052C08F8980930C01EEEFFFE7859139
:100BA00094918B3F9C4D19F0E0E0F8E002C0EEEF2D
:100BB000FAE08091050190910601A0910701B091A2
:100BC0000801803B9440A105B10509F09EC08091C9
:100BD0000C0180FF79C099C00E943C10FC01028189
:100BE00013810115110509F4B0C0D801ED91FC91F4
:100BF0000190F081E02DBE016B5E7F4FC801099529
:100C000081111AC0F80100851185EBCFF1E0FF16C4
:100C100009F44EC0F3E0FF1298C08F89882309F4CD
:100C20004AC0823089F440E860E186E692E00E94A2
:100C3000DF01882309F489C08EEF8093E80088C023
:100C400018161906CCF381C0813029F440E86BE016
:100C50008AE592E0ECCF833009F077C00E943C1027
:100C6000DC011296ED90FC9013978E010F5F1F4FE1
:100C70006801E114F10479F0D701ED91FC9106804F
:100C8000F781E02DB801C7010995080F111DF70183
:100C9000E084F184EECFD8011C92F601019000208F
:100CA000E9F73197BF016C197D0940E0C601BFCF5C
:100CB00068E472E002C064E472E0FB01449150E039
:100CC00080E80E941402B8CFEE3F2AE0F20751F00C
:100CD000808191818737A7E79A0721F09093FF0AD7
:100CE0008093FE0A87E797E7918380838091600075
:100CF000809327079BE088E10FB6F894A89580932E
:100D000060000FBE9093600097CF808191818737FC
:100D1000974709F091CFA8958091600088618093F2
:100D200060008091270780936000EE3FBAE0FB07E8
:100D300039F08091FE0A9091FF0A918380837CCFE5
:100D40001092FF0A1092FE0A77CF81E28093EB00A7
:100D50006C960FB6F894DEBF0FBECDBFDF91CF917A
:100D6000FF91EF91BF91AF919F918F917F916F9183
:100D70005F914F913F912F911F910F91FF90EF90B5
:100D8000DF90CF900F900FBE0F901F9018951F927D
:100D90000F920FB60F9211242F933F934F935F93AF
:100DA0006F937F938F939F93AF93BF93EF93FF9333
:100DB0008091B900887F803609F49CC068F588323C
:100DC00009F45BC090F4803109F454C038F48823EE
:100DD00009F4F6C0883009F44DC0F6C0883109F432
:100DE0004CC0803209F45DC0EFC0803409F468C0A3
:100DF00048F4803309F455C0883309F0E5C0809386
:100E0000FF06D8C0803509F44FC0883509F45DC0AD
:100E1000883409F0D9C0D6C0883909F4C7C0A8F40D
:100E2000883709F467C038F4883609F463C080371E
:100E300009F460C0C9C0883809F4B8C0803909F421
:100E40005FC0803809F0C0C05BC0803B09F486C039
:100E500038F4803A09F466C0883A09F47FC0B4C017
:100E6000803C09F4A7C0883C09F4A4C0883B09F47D
:100E70008AC0AAC08091220710C09091210780915A
:100E80002007981770F5E091210781E08E0F80937D
:100E90002107F0E0E050F94F80818093BB0085ECA2
:100EA00086C08093FF068EC0E091210781E08E0FFF
:100EB000809321078091BB00F0E0E050F94F8083E0
:100EC00090912107809120076EC0E091210781E079
:100ED0008E0F809321078091BB00F0E0E050F94F26
:100EE00080838091500781116DC081E080934F070E
:100EF00084EA61C083E0809351071092FE06CFCF51
:100F00008091FE06803208F051C0E091FE0681E03B
:100F10008E0F8093FE068091BB00F0E0E252F94F05
:100F20008083BDCF85EC8093BC00109251078091E7
:100F3000FE06803230F4E091FE06F0E0E252F94F16
:100F400010826091FE0670E0E0914B07F0914C0733
:100F50008EED96E009951092FE0636C084E08093EF
:100F600051071092DD061092DC06E0914D07F091DA
:100F70004E0709958091DC06811105C081E08093C0
:100F8000DC061092BC06E091DD0681E08E0F8093B6
:100F9000DD06F0E0E454F94F80818093BB0090912E
:100FA000DD068091DC06981708F479CF85E88093F8
:100FB000BC000AC085EC8093BC001092510704C0AD
:100FC0001092FF060E94AD02FF91EF91BF91AF9189
:100FD0009F918F917F916F915F914F913F912F9151
:100FE0000F900FBE0F901F9018954091DC06262F92
:100FF00030E0240F311D21323105DCF420915107FE
:101000002430C9F4FC0180E090E0861758F4309158
:10101000DC062191DC01A454B94FA30FB11D2C9320
:101020000196F3CF8091DC06680F6093DC0680E0C8
:10103000089581E0089582E00895CF93DF93CB0176
:10104000EA01642F0E94F507CE01DF91CF91089548
:1010500080E090E00895E82FF0E0EF53F84F228110
:101060006381862F90E0A0E0B0E0DC01992788271B
:10107000922B2181822B2481BC01CD01922B0895DA
:101080002CE0829FC0011124FC01EE52F84F7387BF
:10109000628780859185860F971F092E000CAA0B09
:1010A000BB0B80839183A283B383089590912E0715
:1010B000911119C091E090932E0720E120938100B7
:1010C0001092800028EC30E0309387002093860057
:1010D00021E1209381002AE938E0309346072093EC
:1010E000450790936F009CE0899FF0011124EE5218
:1010F000F84F7187608782859385860F971FCC96FE
:10110000092E000CAA0BBB0B80839183A283B383AF
:101110000895CF93DF931F92CDB7DEB7698361E067
:10112000CE0101960E94F50781E090E00F90DF91DB
:10113000CF910895DF92EF92FF920F931F93CF9379
:10114000DF9380912A0790912B07A0912C07B091F3
:101150002D070197A109B109181619061A061B06D1
:10116000ACF180E293E0A0E0B0E080932A07909396
:101170002B07A0932C07B0932D0702ED17E081E910
:10118000E82E81E0F82EC0E0D0E09CE0D92EDC9E75
:10119000F001DD9EF00D1124EE52F84F8081918117
:1011A000A281B381F80184839583A683B783F70175
:1011B0008081F2E0EF0EF11C61E00E94791021962F
:1011C000045F1F4FC430D10511F72CC080932A074C
:1011D00090932B07A0932C07B0932D07C2EDD7E077
:1011E00001E911E08C819D81AE81BF81181619063D
:1011F0001A061B0684F40197A109B1098C839D830B
:10120000AE83BF83892B8A2B8B2B29F460E0F801F6
:1012100080810E9479102C960E5F1F4FF8E0C2303B
:10122000DF0701F7DF91CF911F910F91FF90EF90B2
:10123000DF90089589E00E94501061E0892B09F049
:1012400060E089E00C9479104091440750E064E339
:1012500077E085EB97E00C941D081F920F920FB674
:101260000F9211242F933F934F935F936F937F932C
:101270008F939F93AF93BF93EF93FF93E0914707B3
:10128000F09148070995FF91EF91BF91AF919F9120
:101290008F917F916F915F914F913F912F910F901F
:1012A0000FBE0F901F9018951F920F920FB60F92BE
:1012B00011242F933F934F935F936F937F938F935B
:1012C0009F93AF93BF93EF93FF93E0914507F09106
:1012D00046070995FF91EF91BF91AF919F918F9133
:1012E0007F916F915F914F913F912F910F900FBE22
:1012F0000F901F9018950C944A1BE1E9F0E080E1F3
:1013000080831092900084ED90E3909397008093F7
:10131000960083E180838AE199E090934807809367
:10132000470781E08093710008951F93CF93DF9367
:10133000182F80932F07C82FD0E0BE0175956795B1
:1013400075956795617088E00E947910D595C7956D
:101350006C2F617086E00E947910612F617084E0CB
:10136000DF91CF911F910C947910CF92DF92EF9281
:10137000FF92CF93DF93BC01ECE7F2E0E491809120
:101380007B00E3FB222720F930E095E0220F331F9A
:101390009A95E1F78F7D282B20937B002091040103
:1013A00080E4289F90011124E770E22BE0937C00F9
:1013B00080917A00806480937A0080917A0086FD23
:1013C000FCCFC0917800D0917900072E000C880BDB
:1013D000990B0E942D1A6B017C016C2F70E07D2B04
:1013E000072E000C880B990B0E942D1A20E030E08C
:1013F00040E85AE30E948C1A2AE037ED43E250E4B9
:101400000E948C1A26E933E44BE05FE30E94041C3F
:10141000A70196010E948C1A0E94761C072E000CD0
:10142000880B990B0E942D1AA70196010E94041C9B
:10143000DF91CF91FF90EF90DF90CF900895CF9202
:10144000DF92EF92FF928DED91E00E94E90E89E02C
:1014500092E00E94E90E86E392E00E94E90E8CE69B
:1014600092E00E94E90E83EA92E00E94E90E8AED82
:1014700092E00E94E90E8CE593E00E94E90E81E182
:1014800093E00E94E90E80E493E00E94C90F42E0DD
:1014900063EC75EF88E69FE30E94F70E8AE593E020
:1014A0000E94960E8CE593E00E94E90E8DE593E094
:1014B0000E94C90F80915A0790915B070E94CB0F41
:1014C00082E793E00E94C90F80910D0190910E0177
:1014D0000E94CB0F84E690E00E94B50962E370E0C1
:1014E00080E090E00E94091184E690E00E94B50936
:1014F0006B017C0187E893E00E94C90F60917F0136
:1015000070918001809181019091820142E00E945E
:10151000F70E8CE993E00E94C90F42E0C701B601C3
:101520000E94F70E87E096E00E94E90EA70196015F
:1015300060917F0170918001809181019091820181
:101540000E94971B6B017C0120E030E0A9010E9402
:10155000AC1C18165CF42DEC3CEC4CE45DE3C701CC
:10156000B6010E94AC1C18165CF01DC02DEC3CECC2
:101570004CE45DEBC701B6010E94261A87FF13C039
:1015800081E080935D070E947D09F0900C016AE084
:1015900070E080E090E00E940911FF20B1F381EA41
:1015A00093E00E94E90E80915D07811110C08CE5E7
:1015B00093E00E94E90E86ED93E00E94E90E8DEE25
:1015C00093E0FF90EF90DF90CF900C94E90EFF90A6
:1015D000EF90DF90CF900895CF93C82F60E081E126
:1015E0000E947910CEBD00000DB407FEFDCF8EB570
:1015F00061E081E10E947910C0932907CF9108959D
:1016000021E030E0082E01C0220F0A94EAF720956D
:10161000909129072923462F417050E0BA0102C05A
:10162000660F771F8A95E2F7CB01822B0C94EC0AA8
:10163000CF92DF92EF92FF92CF93DF936A017B010B
:10164000C82FD0E08CE18C9FF0018D9FF00D11240C
:10165000E15FFE4F77FF09C08FEF8487FE01EE0F39
:10166000FF1FE756FE4F61E008C081E08487FE015E
:10167000EE0FFF1FE756FE4F60E080810E94000BD7
:101680008CE18C9FF0018D9FF00D1124E15FFE4FE6
:10169000B701A601F7FE07C070956095509541957A
:1016A0005F4F6F4F7F4F4087518762877387DF910E
:1016B000CF91FF90EF90DF90CF9008957F928F921F
:1016C0009F92AF92BF92CF92DF92EF92FF920F93D1
:1016D0001F93CF93DF93EC0101EC17E0C801815C0D
:1016E00097408C179D074CF485EB97E00E94FD0214
:1016F000F80181830F5F1F4FF1CFFE01D7FF02C0BA
:10170000E0E0F0E0EF53F84FCF01815C9740409765
:101710001CF411823196F8CF81E08093C1071092BA
:1017200044078091C30780FD0AC081FD0AC082FD85
:101730000AC0D82FD87083FF07C0D3E005C0D0E01F
:1017400003C0D1E001C0D2E0C82FC370E091C2074E
:101750004E2F50E04F31510508F098C2FA01EA5A75
:10176000FF4F0C94E41C81E00E942B08609330072B
:1017700070933107809332079093330787C2DF91CC
:10178000CF911F910F91FF90EF90DF90CF90BF907E
:10179000AF909F908F907F900C94950981E08093FB
:1017A000440780912F07DBC082E00E942B08AB0129
:1017B000BC0115C082E00E942B082CE1D29FF001F1
:1017C0001124E15FFE4F0585168527853089680164
:1017D0007901C61AD70AE80AF90AB701A6018D2FBE
:1017E000DF91CF911F910F91FF90EF90DF90CF90FD
:1017F000BF90AF909F908F907F900C94180B2CE12E
:10180000D29FF0011124E15FFE4F30852185928542
:10181000838549C182E00E942B084CE1D49FE001FE
:101820001124C15FDE4F698B7A8B8B8B9C8B0E945E
:101830002D1A9B01AC0160E070E080E89FE30E94FC
:10184000041C20E034E244E759E40E948C1A20E0B2
:1018500030E048EC52E40E94041C0E94761C68832D
:1018600079838A839B8312C28CE1D89FF001112473
:10187000E15FFE4F318922899389848914C1809167
:101880005C07811103C20D2F10E02CE1D29FF00103
:101890001124E15FFE4F838D8111F8C181E09091A9
:1018A000C407911101C080E0818FF801EE0FFF1F86
:1018B000E755FE4F60E080810E94000B8CE1809F25
:1018C000F001819FF00D1124E15FFE4F81E0828FD6
:1018D000DDC1C090C4070FE011E059EA852E51E048
:1018E000952E6FE7A62E61E0B62EEE24E394F12C40
:1018F000C82FD0E0D12C77247394CE018E219F2164
:10190000892BC1F080915C07811114C0F801838D8F
:10191000811110C021E0C6018E219F21892B09F47D
:1019200020E0F801218F60E0F40180810E94000B2B
:10193000F801728EEE0CFF1C045E1F4FF2E08F0E5A
:10194000911CA016B106C9F6A1C181E0809344079D
:101950002CE1D29FF0011124E15FFE4F828D809334
:10196000340794C181E080934407EDE7F1E02DE076
:1019700031E080E0880F9081892B7C972E173F07FC
:10198000C9F7EDCF81E0809344074CE1D49FF0018B
:101990001124E15FFE4F238D822F880F90915C0709
:1019A00044E0949F90011124282B828D282B2093B2
:1019B00034076CC182E00E942B082CE1D29FF00119
:1019C0001124E15FFE4F658776878787908B5EC124
:1019D0004CE1D49FF0011124E15FFE4F358526854F
:1019E0009785808960C081E00E942B0860931C016C
:1019F00070931D0180931E0190931F0185E00E944A
:101A00002B08609338017093390180933A019093C9
:101A10003B0189E00E942B086093540170935501AB
:101A200080935601909357018DE00E942B0860939C
:101A3000700170937101809372019093730126C1BC
:101A4000EFE0F1E080E0458556856785708994E098
:101A5000980FA82FB0E0AC5CB84F4C93452F562F91
:101A6000672F772767FD7A958F5F8913F2CF7C9672
:101A7000803149F709C182E00E942B082CE1D29FF6
:101A8000F0011124E15FFE4F658B768B878B908F81
:101A9000FDC04CE1D49FF0011124E15FFE4F358978
:101AA00026899789808D309334072093350790934A
:101AB00036078093370784E0E7C081E00E942B0857
:101AC0006093240170932501809326019093270150
:101AD00085E00E942B086093400170934101809340
:101AE00042019093430189E00E942B0860935C01BE
:101AF00070935D0180935E0190935F018DE00E9481
:101B00002B08609378017093790180937A01909308
:101B10007B01BCC0EFE0F1E080E045895689678930
:101B2000708D94E0980FA82FB0E0AC5CB84F4C9348
:101B3000452F562F672F772767FD7A958F5F98136C
:101B4000F2CF7C96892F903141F7909344079EC045
:101B50000E94910EBC018C2F1FC08CE0C89FF00129
:101B60001124EE52F84F908581854BC00E94910E52
:101B7000BC0180E00E9456080E94910EBC0181E0E9
:101B80000E9456080E94910EBC0182E00E945608F5
:101B90000E94910EBC0183E0DF91CF911F910F91C4
:101BA000FF90EF90DF90CF90BF90AF909F908F907D
:101BB0007F900C945608A2EDB7E080E018962C9127
:101BC000189719969C911997E82FF0E0EC5CF84F64
:101BD0002083E1E0E80FF0E0EC5CF84F90838E5F4B
:101BE0001C96883059F750C00E94910EBC018C2F72
:101BF00024C02CE0C29FF0011124EE52F84F9285D0
:101C00008385909334078093350782E03DC00E941E
:101C1000910EBC0180E00E9440080E94910EBC0120
:101C200081E00E9440080E94910EBC0182E00E9467
:101C300040080E94910EBC0183E0DF91CF911F917B
:101C40000F91FF90EF90DF90CF90BF90AF909F905B
:101C50008F907F900C944008A2EDB7E080E01A9638
:101C60002C911A971B969C911B97E82FF0E0EC5C47
:101C7000F84F2083E1E0E80FF0E0EC5CF84F908350
:101C80008E5F1C96883059F780934407DF91CF917F
:101C90001F910F91FF90EF90DF90CF90BF90AF908A
:101CA0009F908F907F90089590E0FC013197EF30E6
:101CB000F105B0F5EB58FF4F0C94E41C80918000C7
:101CC0008F7703C0809180008F7D8093800008957E
:101CD00080918000877FF9CF84B58F7702C084B56B
:101CE0008F7D84BD0895809190008F7707C080918B
:101CF00090008F7D03C080919000877F809390003B
:101D000008958091C0008F7703C08091C0008F7DBF
:101D10008093C00008958091C200877F8093C200A5
:101D200008958091C4079091C5070895009769F0C0
:101D3000FC0101900020E9F73197AF01481B590BD6
:101D4000BC0185E697E00C944B0380E090E0089599
:101D50008F929F92AF92BF920F931F93CF93DF9377
:101D6000CDB7DEB7A1970FB6F894DEBF0FBECDBFDB
:101D700019A2423008F44AE08E010F5D1F4F842EF5
:101D8000912CA12CB12CA50194010E94C21CE62F1C
:101D9000B901CA0101501109EA3014F4E05D01C033
:101DA000E95CD801EC93232B242B252B61F7C80188
:101DB0000E94960EA1960FB6F894DEBF0FBECDBF5F
:101DC000DF91CF911F910F91BF90AF909F908F9017
:101DD0000895CF93DF930E94960EEC018AE593E07D
:101DE0000E94960E8C0F9D1FDF91CF9108958F92C8
:101DF0009F92AF92BF92CF92DF92EF92FF920F939A
:101E00001F93CF93DF936B017C01142F9B01AC01D7
:101E10000E94B11C882319F080E996E027C0460192
:101E20005701E894B7F82FEF3FEF4FE75FE7C501A1
:101E3000B4010E94B11C81110DC02FEF3FEF4FE79D
:101E40005FE7C501B4010E94261A18161CF484E944
:101E500096E00CC02FEF3FEF4FE75FE4C701B601FC
:101E60000E94AC1C181684F488E996E0DF91CF91AB
:101E70001F910F91FF90EF90DF90CF90BF90AF90A8
:101E80009F908F900C94960E2FEF3FEF4FE75FECF3
:101E9000C701B6010E94261A87FDE6CF20E030E098
:101EA000A901C701B6010E94261A87FF0BC06DE287
:101EB00085E697E00E947202EC01F7FAF094F7F8D9
:101EC000F09402C0C0E0D0E000E060E070E080E0AC
:101ED0009FE3101741F020E030E040E251E40E941F
:101EE000041C0F5FF6CFA70196010E94981B6B019F
:101EF0007C010E947D1C4B015C014AE00E94A80EFF
:101F0000C80FD91F1123B9F1C501B4010E942B1AC2
:101F10009B01AC01C701B6010E94971B6B017C01BC
:101F20006EE285E697E00E947202C80FD91F20E09A
:101F300030E040E251E4C701B6010E948C1A4B0127
:101F40005C010E947D1C6B01E12CF12C4AE0C70171
:101F5000B6010E94A80EC80FD91FC701B6010E9482
:101F60002B1A9B01AC01C501B4010E94971B6B01A8
:101F70007C011150E1F6CE01DF91CF911F910F91BD
:101F8000FF90EF90DF90CF90BF90AF909F908F9099
:101F900008950C94960ECF92DF92EF92FF92CF931A
:101FA000DF936C01990FEE08FF08F7FE13C06DE296
:101FB00085E697E00E947202EC0166277727CB0145
:101FC0006C197D098E099F094AE00E94A80EC80F6E
:101FD000D91F06C04AE0C701B6010E94A80EEC0155
:101FE0008AE593E00E94960E8C0F9D1FDF91CF91A2
:101FF000FF90EF90DF90CF9008952091640721111A
:1020000003C08FEF9FEF08955FB7F89422E020930D
:10201000E9002091F20030E01216130614F421E0DA
:1020200030E0422FFC0184E6415038F0289880933C
:1020300063079091F1009193F7CF2115310521F0BD
:102040008091F200882319F05FBFC90108958BE6E3
:102050008093E800F9CF2FB7F89483E08093E900EC
:102060009091E800892F807295FF04C09091F20052
:1020700080E4891B2FBF089580910F0881110DC046
:1020800082E080930B0884E080930C0810920E0885
:1020900010920D0881E080930F088BE098E008957E
:1020A000CF93DF93282F30E0F901E551FD4F849164
:1020B000F901E453FD4FD491F901E355FD4FC4916B
:1020C000CC2391F081110E94540EEC2FF0E0EE0F22
:1020D000FF1FE156FD4FA591B491EC91ED2381E0F6
:1020E00090E021F480E002C080E090E0DF91CF91A9
:1020F00008951F93CF93DF93282F30E0F901E55126
:10210000FD4F8491F901E453FD4FD491F901E3555A
:10211000FD4FC491CC23C1F0162F81110E94540EA3
:10212000EC2FF0E0EE0FFF1FEF56FD4FA591B4919D
:102130009FB7F894111104C08C91D095D82302C098
:10214000EC91DE2BDC939FBFDF91CF911F9108951F
:10215000CF93DF9390E0FC01E453FD4F2491FC0109
:10216000E355FD4F8491882361F190E0880F991F1A
:10217000FC01ED57FD4FC591D491FC01EF56FD4F89
:10218000A591B491611109C09FB7F89488812095F9
:1021900082238883EC912E230BC0623061F49FB7B9
:1021A000F8948881322F309583238883EC912E2BED
:1021B0002C939FBF06C08FB7F894E8812E2B2883FD
:1021C0008FBFDF91CF9108953FB7F89480910708B2
:1021D00090910808A0910908B0910A0826B5A89B1B
:1021E00005C02F3F19F00196A11DB11D3FBFBA2FA9
:1021F000A92F982F8827820F911DA11DB11DBC0109
:10220000CD0142E0660F771F881F991F4A95D1F7CD
:1022100008958F929F92AF92BF92CF92DF92EF92EA
:10222000FF926B017C010E94E4104B015C01C11420
:10223000D104E104F104F1F00E94E410DC01CB01CF
:1022400088199909AA09BB09883E9340A105B105DF
:1022500070F321E0C21AD108E108F10888EE880E77
:1022600083E0981EA11CB11CC114D104E104F10447
:1022700019F7DDCFFF90EF90DF90CF90BF90AF9038
:102280009F908F9008951F920F920FB60F92112476
:102290002F933F938F939F93AF93BF9380910308A6
:1022A00090910408A0910508B091060830910208A9
:1022B00023E0230F2D3720F40196A11DB11D05C089
:1022C00026E8230F0296A11DB11D209302088093DA
:1022D000030890930408A0930508B0930608809122
:1022E000070890910808A0910908B0910A08019682
:1022F000A11DB11D8093070890930808A0930908B9
:10230000B0930A08BF91AF919F918F913F912F9108
:102310000F900FBE0F901F9018950C94521BCF92E8
:10232000DF92FF920F931F93CF93DF93CDB7DEB76A
:102330002A970FB6F894DEBF0FBECDBF6C01CB015C
:102340000E94C90FF12C00E010E08AE0F816E9F0D5
:1023500085E697E00E949302892BB9F385E697E022
:102360000E94F903F82E682F85E697E00E9472021A
:102370000930110554F7E1E0F0E0EC0FFD1FE00F2C
:10238000F11FF0820F5F1F4FE0CFE1E0F0E0EC0FB4
:10239000FD1FE00FF11F1082BE016F5F7F4FC6016E
:1023A0000E94E111C6012A960FB6F894DEBF0FBE57
:1023B000CDBFDF91CF911F910F91FF90DF90CF9014
:1023C0000895EF92FF920F931F93CF93DF93EC0149
:1023D000198218821B821A821D821C826115710566
:1023E000B9F17B01FB0101900020E9F731978F01E2
:1023F000061B170BB8016F5F7F4F80E090E00E94D3
:102400000B1E009759F0998388831B830A832C81C4
:102410003D81232B81F4FC0110820DC088819981BC
:10242000009711F00E94821D198218821D821C8261
:102430001B821A820DC01D830C83B701888199818C
:10244000DF91CF911F910F91FF90EF900C94DA1EC6
:10245000DF91CF911F910F91FF90EF900895CF934F
:10246000DF93CDB7DEB7AA970FB6F894DEBF0FBEE5
:10247000CDBF789484B5826084BD84B5816084BD0D
:1024800085B5826085BD85B5816085BD80916E0012
:10249000816080936E001092810080918100826043
:1024A0008093810080918100816080938100809180
:1024B0008000816080938000809191008260809391
:1024C00091008091910081608093910080919000B3
:1024D0008160809390008091C10084608093C100EE
:1024E0008091C10082608093C1008091C1008160B1
:1024F0008093C1008091C30081608093C30080916C
:10250000C00082608093C0008091C200816080938F
:10251000C20080917A00846080937A0080917A0072
:10252000826080937A0080917A00816080937A0043
:1025300080917A00806880937A00109264071092EC
:102540004A07109249078091D70081608093D70095
:1025500080EA8093D80089B5806189BD89B58260A1
:1025600089BD09B400FEFDCF61E070E080E090E03D
:102570000E9409118091D8008F7C80618093D800DF
:102580008091E000807F8093E0008091E1008E7E6A
:102590008093E1008DE08093E200559A209A80E0DC
:1025A00090E00E947B09C82E81E090E00E947B09A8
:1025B000D82E82E090E00E947B09F82E83E090E024
:1025C0000E947B09182F84E090E00E947B09E82E8E
:1025D00085E090E00E947B09082F86E090E00E9451
:1025E0007B09282F3AE2C312E9C381E0D812E6C37F
:1025F0008BE28F0D810F8E0D800F6AE00E94B61C5A
:102600002913DCC38E2D90E090930E0180930D0171
:10261000602F70E080E090E00E942B1A20E030E014
:1026200040E251E40E94041C60937F01709380019A
:102630008093810190938201812F90E0982F8827C9
:102640008F0D911D90935B0780935A071FB7F894E5
:1026500080915E07811127C0EEEBF2E08491EDEDF1
:10266000F2E09491E82FF0E0EE0FFF1FED57FD4FE1
:10267000A591B491EC91E92321F461E081E10E94FC
:10268000791061E081E10E94A8108CB580618CBD59
:102690008CB580648CBD61E08FE00E94A81061E081
:1026A00080E10E94A81080915E078F5F80935E0793
:1026B0001FBF8FE10E94EC0A51EBE52E51E0F52E91
:1026C00001EA11E0F80180810E5F1F4F61E00E9476
:1026D000A810F7018081F2E0EF0EF11C62E00E9489
:1026E000A81021E0093A120769F762E086E10E942A
:1026F000A81061E088E00E94A81061E086E00E94D6
:10270000A81061E084E00E94A81080E00E94950972
:1027100061E089E00E94A81061E089E00E947910E0
:1027200060E087E10E94A81083E08093040110918B
:102730000D011092550710925407109253071092F2
:1027400052071092510781E08093500710924F0773
:1027500061E082E00E94791061E083E00E947910DC
:102760008091B9008E7F8093B9008091B9008D7FF0
:102770008093B90088E48093B80085E48093BC001E
:1027800087EB92E090934E0780934D0783EC92E0A5
:1027900090934C0780934B07110F1093BA008EE56E
:1027A0009BE0909357078093560784E299E09093BB
:1027B0005907809358078FEF9FEF9093720780938C
:1027C00071071092690710926A0710926B071092B6
:1027D0006C070E941F0A40E0642E40E0742E5524CE
:1027E000539485E697E00E949302892B79F05092EA
:1027F0005D070E947D0985E697E00E949302892B80
:1028000029F085E697E00E94F903F5CFC0907F019B
:10281000D0908001E0908101F090820184E690E008
:102820000E94B5099B01AC01C701B6010E94971B2C
:1028300020E030E0A9010E94AC1C18169CF484E64C
:1028400090E00E94B5099B01AC01C701B6010E944E
:10285000971B2DEC3CEC4CE45DE30E94AC1C18167D
:102860009CF016C084E690E00E94B5099B01AC0183
:10287000C701B6010E94971B2DEC3CEC4CE45DEBCC
:102880000E94261A87FF04C050925D070E947D09AE
:1028900080915D07813009F0DFC18FE10E94EC0A71
:1028A00010910C016AE070E080E090E00E94091154
:1028B0001123B1F30E941F0A86E194E00E94E90E01
:1028C0008EE594E00E94E90E8CE593E00E94E90E0B
:1028D00080915A0790915B07FE0175966F019E01EA
:1028E0002F5F3F4F7901892B61F56CE573E0CF01D4
:1028F0000E94E11186EA94E00E94E90E6CE175E025
:10290000C7010E948F11B701C6010E945F1789811C
:102910009A810E94821D0D891E890115110521F0E1
:10292000C8010E94B81703C060E070E0CB016115D8
:10293000710521F370935B0760935A07C8010E94E9
:10294000821D6CE573E0CE014F960E94E11188EE86
:1029500094E00E94E90EA12CB12C08E115E0C5011C
:1029600040978037910508F442C080910E018F9303
:1029700080910D018F931F930F93FF92EF920E940E
:10298000E11EB701C6010E948F11B601CE014F961C
:102990000E945F178D899E890E94821DCE014F96ED
:1029A0000E9451170F900F900F900F900F900F9063
:1029B000FC0180818A3029F4A0900D01B0900E01B5
:1029C0000BC08F8D98A1009719F00E94B81703C013
:1029D00060E070E0CB015B01C50140978037910555
:1029E00008F4BDCF8EE195E00E94E90EB8CFB09219
:1029F0000E01A0920D01BF92AF9281E495E09F93EA
:102A00008F93FF92EF920E94E11EC7010E94E90E90
:102A10008F8D98A10E94821D8AE593E00E94960EF8
:102A20006CE573E0CE0185960E94E11160917F0113
:102A3000709180018091810190918201860121E055
:102A400043E00E949817DF92CF9288E595E09F932C
:102A50008F93FF92EF920E94E11E8EE595E00E9417
:102A6000E90E87E895E00E94E90E88EC95E00E9467
:102A7000E90E0FB6F894DEBF0FBECDBF812C912CAE
:102A80005401B701CE014F960E948F11BE01615EC5
:102A90007F4FCE0185960E945F178F8D98A10E946F
:102AA000821DCE0185960E945117FC0180818A30DB
:102AB00091F480907F0190908001A0908101B0906E
:102AC000820120E030E0A901C501B4010E94261A6C
:102AD0008823B9F213C0CE0185960E945117FC01DC
:102AE000808180330CF46EC1CE0185960E9451170F
:102AF000FC0180818A330CF065C169C18AE090E0F5
:102B00000E94B509A50194010E94261A811162C094
:102B100080927F0190928001A0928101B092820107
:102B200089E096E00E94C90F42E0C501B4010E940D
:102B3000F70E8AE593E00E94960E8DA19EA10E9459
:102B4000821D8DE196E00E94C90FE0905A07F09037
:102B50005B0710910D0120E030E040E251E460910C
:102B60007F017091800180918101909182010E948A
:102B70008C1A0E947D1C062F6AE280E090E00E9481
:102B80008D1161E081E090E00E948D116E2D82E058
:102B900090E00E948D116F2D83E090E00E948D11D6
:102BA000612F84E090E00E948D11602F85E090E01D
:102BB0000E948D111E0D155D1F0D812F800F6AE083
:102BC0000E94B61C692F86E090E00E948D1103E000
:102BD00010E026C080E396E00E94E90E84E690E0D3
:102BE0000E94B5096B017C0188E696E00E94C90F3E
:102BF00042E0C701B6010E94F70E87E096E00E940E
:102C0000E90E64E670E080E090E00E940911A50101
:102C10009401C701B6010E94261A8111DFCF78CF37
:102C200068EE73E080E090E00E94091186E195E093
:102C30000E94C90F0150110999F78CE593E00E9499
:102C4000E90E86E796E00E94E90E60E177E280E017
:102C500090E00E940911F9CF0E94E41000915F07F3
:102C6000109160072091610730916207601771072A
:102C70008207930780F00C591F4F2F4F3F4F0617C5
:102C800017072807390738F06114710409F4A9CD32
:102C90000E940000A6CD60935F0770936007809349
:102CA00061079093620786E10E9450104C0181E019
:102CB0008114910409F080E080935C070FE011E03B
:102CC00089EAC82E81E0D82E91EAA92E91E0B92E8A
:102CD00021EBE22E21E0F22EF7018081F2E0EF0EEF
:102CE000F11C0E94501021E0009709F020E0F8014B
:102CF000238F228D222309F452C0F801892B19F069
:102D00008114910431F4128E108611861286138676
:102D100041C084819581A681B7810197A109B1093C
:102D200084839583A683B783181619061A061B0693
:102D3000B4F180819181A281B38184839583A6833C
:102D4000B783F501408061E0842D0E94791060E036
:102D5000842D0E947910F80180859185A285B38524
:102D60000197A109B10980879187A287B38724853C
:102D70004585568567857089420F511D611D711DFE
:102D8000458756876787708B181619061A061B0623
:102D900034F0128E618DF60180810E94000B045E7A
:102DA0001F4FF2E0CF0ED11C22E0A20EB11C39EB76
:102DB000E31631E0F30609F08FCF66CF81E0809310
:102DC0005D0744CC8EE195E00E94E90E7ACE8DA19C
:102DD0009EA10097F1F00E94B8170E942D1A4B0196
:102DE0005C0120E030E0A9010E94261A811106C092
:102DF000812C912C30E2A32E31E4B32E20E030E080
:102E000040E251E4C501B4010E94041C4B015C0185
:102E100058CE60E070E0CB01E0CF109268071092CE
:102E2000670788EE93E0A0E0B0E080936907909395
:102E30006A07A0936B07B0936C072DEB31E03093DA
:102E40006607209365072FEF3FEF309372072093BB
:102E500071071092B8071092B7078093B907909343
:102E6000BA07A093BB07B093BC078FEC91E0909397
:102E7000B6078093B507E2EDF7E08CE390E0A0E0C1
:102E8000B0E080839183A283B3831186108613867A
:102E900012863C9628E0E230F20799F71092C107BB
:102EA0000895FC0124813581232B21F080819181BB
:102EB000009721F41092170887E198E008950F9386
:102EC0001F93CF93DF938C01EB01FC0180819181F3
:102ED0000097B1F0688179816115710579F04281BF
:102EE00053812C813D814217530740F00E94DA1E26
:102EF0008C819D81F8019583848313C00E94821D7B
:102F000088819981F801918380838A819B81938351
:102F100082838C819D8195838483198218821B8290
:102F20001A821D821C82DF91CF911F910F9108950B
:102F3000EF920F931F93CF93DF93E80147FD02C0F9
:102F400034E001C034E1042E000C550B57FF03C0E0
:102F5000519541955109E32E022F242FAE010E9475
:102F6000F417CE01DF91CF911F910F91EF9008954B
:102F70001F93FC0199278827BC01E8941191103216
:102F8000E9F3193010F01E30C8F31B3251F01D3236
:102F900049F4689406C00E94DF17610F711D811DFE
:102FA000911D119110531A30B0F33EF49095809515
:102FB000709561957F4F8F4F9F4F1F910895592FA7
:102FC000482F372F262F660F771F881F991F660FF0
:102FD000771F881F991F620F731F841F951F660F2D
:102FE000771F881F991F0895A9E0B0E0EAEFF7E185
:102FF0000C94661B6A01122FB02E2BE3201720F0D1
:10300000FF24F394F00E02C02CE3F22E0F2D27E0E4
:10301000AE014F5F5F4F0E944E19BC014981842F62
:103020008970813031F0E1FC06C0E0FE06C090E21C
:1030300005C09DE203C09BE201C090E05E2D50718F
:1030400043FF3CC0911102C083E001C084E08117BE
:1030500018F4212F281B01C020E051110BC0F601EC
:10306000822F30E2882319F031938150FBCFC20EBA
:10307000D11C20E0992329F0D6019C93F6013196CA
:103080006F01C6010396E2FE0AC03EE4D6013C93FE
:1030900041E411964C93119712963C9306C03EE67C
:1030A000F601308341E641833283FC01322F40E256
:1030B000332309F442C041933150FACF42FF44C058
:1030C000911102C083E001C084E0811718F4212F20
:1030D000281B01C020E051110BC0F601822F30E205
:1030E000882319F031938150FBCFC20ED11C20E010
:1030F000992329F0D6019C93F60131966F01C60100
:103100000396E2FE0BC039E4D6013C933EE41196EF
:103110003C93119736E412963C9307C039E6F601CA
:1031200030833EE6318336E63283FC01322F40E2C3
:10313000332319F041933150FBCFFC01E20FF11D15
:1031400010828EEF9FEFA6C021E030E0911102C007
:1031500020E030E0161617061CF4FB01319602C081
:10316000E1E0F0E02E0F3F1FBB2021F0EB2DF0E05F
:10317000319602C0E0E0F0E02E0F3F1FE12FF0E0BB
:103180002E173F071CF4121B212F01C020E08E2DAB
:10319000887159F4F601822F30E2882319F03193B7
:1031A0008150FBCFC20ED11C20E0992329F0D6011B
:1031B0009C93F60131966F0151110BC0F601822FDD
:1031C00090E3882319F091938150FBCFC20ED11C5C
:1031D00020E00F2D060F9A81342F307144FF03C079
:1031E000913309F40150101624F4093018F008E066
:1031F00001C001E0AB0177FF02C040E050E0FB01FD
:10320000E41BF50BA1E0B0E0AC0FBD1FEA0FFB1F04
:103210008EE2A82E4B01801A91080B2D10E011951B
:10322000019511094F3FBFEF5B0721F4D601AC9226
:1032300011966D01641775072CF08416950614F429
:10324000818101C080E3415051093196D601119628
:103250007D014017510724F0D6018C936701E2CF1E
:103260006417750739F4963320F4953319F4311146
:1032700001C081E3F6018083F701822F90E2882369
:1032800019F091938150FBCFF701E20FF11D1082ED
:1032900080E090E02996ECE00C94821B283008F046
:1032A00027E03327DA01990F311D87FD91600096E1
:1032B0006105710539F432602E5F3D9330E32A9544
:1032C000E1F708959F3F30F080387105610509F0FE
:1032D0003C5F3C5F3D93913008F08068911DDF9327
:1032E000CF931F930F93FF92EF92192F987F96958C
:1032F000E92F96959695E90FFF27EE59FE4F9927EE
:103300003327EE24FF24A701E701059008940794D2
:1033100028F4360FE71EF81E491F511D660F771F50
:10332000881F991F0694A1F70590079428F4E70ECB
:10333000F81E491F561FC11D770F881F991F661F52
:103340000694A1F70590079428F4F80E491F561F1C
:10335000C71FD11D880F991F661F771F0694A1F7FD
:103360000590079420F4490F561FC71FD81F990FC7
:10337000661F771F881F0694A9F784911095177010
:1033800041F0D695C79557954795F794E7941A95C8
:10339000C1F7E8E0F1E068941590159135916591D9
:1033A000959105907FE27395E118F10A430B560B56
:1033B000C90BD009C0F7E10CF11E431F561FC91FEE
:1033C000D01D7EF4703311F48A95E6CFE894015055
:1033D00030F0080F0AF40027021708F4202F239575
:1033E000022F7A3328F079E37D932A95E9F710C00C
:1033F0007D932A9589F60694979567953795179545
:103400001794E118F10A430B560BC90BD00998F039
:1034100023957E9173957A3308F070E37C932013A3
:10342000B8F77E9170617D9330F0839571E37D9361
:1034300070E32A95E1F71124EF90FF900F911F910F
:10344000CF91DF91992787FD909508950E94681A82
:1034500008F481E00895E89409C097FB3EF4909544
:103460008095709561957F4F8F4F9F4F9923A9F05D
:10347000F92F96E9BB279395F695879577956795EC
:10348000B795F111F8CFFAF4BB0F11F460FF1BC030
:103490006F5F7F4F8F4F9F4F16C0882311F096E9C3
:1034A00011C0772321F09EE8872F762F05C0662371
:1034B00071F096E8862F70E060E02AF09A95660F2A
:1034C000771F881FDAF7880F9695879597F90895E3
:1034D000990F0008550FAA0BE0E8FEEF1616170625
:1034E000E807F907C0F012161306E407F50798F08D
:1034F000621B730B840B950B39F40A2661F0232BA6
:10350000242B252B21F408950A2609F4A140A69521
:103510008FEF811D811D08950E949F1A0C94101B2E
:103520000E94021B38F00E94091B20F0952311F025
:103530000C94F91A0C94FF1A11240C94441B0E9449
:10354000211B70F3959FC1F3950F50E0551F629FAB
:10355000F001729FBB27F00DB11D639FAA27F00DEC
:10356000B11DAA1F649F6627B00DA11D661F829F13
:103570002227B00DA11D621F739FB00DA11D621FF8
:10358000839FA00D611D221F749F3327A00D611D15
:10359000231F849F600D211D822F762F6A2F1124F7
:1035A0009F5750409AF0F1F088234AF0EE0FFF1F2A
:1035B000BB1F661F771F881F91505040A9F79E3F81
:1035C000510580F00C94F91A0C94441B5F3FE4F30E
:1035D000983ED4F3869577956795B795F795E795D7
:1035E0009F5FC1F7FE2B880F911D9695879597F9E0
:1035F000089597F99F6780E870E060E008959FEF75
:1036000080EC089500240A94161617061806090679
:10361000089500240A941216130614060506089548
:10362000092E0394000C11F4882352F0BB0F40F4D0
:10363000BF2B11F460FF04C06F5F7F4F8F4F9F4F10
:10364000089557FD9058440F551F59F05F3F71F092
:103650004795880F97FB991F61F09F3F79F08795F9
:103660000895121613061406551FF2CF4695F1DF82
:1036700008C0161617061806991FF1CF8695710512
:10368000610508940895E894BB2766277727CB0146
:1036900097F90895F999FECF92BD81BDF89A9927BF
:1036A00080B50895262FF999FECF1FBA92BD81BD2E
:1036B00020BD0FB6F894FA9AF99A0FBE01960895B4
:1036C0002F923F924F925F926F927F928F929F9232
:1036D000AF92BF92CF92DF92EF92FF920F931F9320
:1036E000CF93DF93CDB7DEB7CA1BDB0B0FB6F894D1
:1036F000DEBF0FBECDBF09942A88398848885F8411
:103700006E847D848C849B84AA84B984C884DF8081
:10371000EE80FD800C811B81AA81B981CE0FD11D65
:103720000FB6F894DEBF0FBECDBFED01089550581F
:10373000BB27AA270E94AF1B0C94101B0E94021BE0
:1037400038F00E94091B20F039F49F3F19F426F449
:103750000C94FF1A0EF4E095E7FB0C94F91AE92F8C
:103760000E94211B58F3BA17620773078407950755
:1037700020F079F4A6F50C94431B0EF4E0950B2E83
:10378000BA2FA02D0B01B90190010C01CA01A001B3
:103790001124FF27591B99F0593F50F4503E68F10E
:1037A0001A16F040A22F232F342F4427585FF3CF4F
:1037B000469537952795A795F0405395C9F77EF420
:1037C0001F16BA0B620B730B840BBAF09150A1F069
:1037D000FF0FBB1F661F771F881FC2F70EC0BA0FEF
:1037E000621F731F841F48F4879577956795B79577
:1037F000F7959E3F08F0B0CF9395880F08F0992772
:10380000EE0F9795879508950E94181C0C94101B35
:103810000E94091B58F00E94021B40F029F45F3FF0
:1038200029F00C94F91A51110C94441B0C94FF1AB2
:103830000E94211B68F39923B1F3552391F3951B43
:10384000550BBB27AA2762177307840738F09F5FC1
:103850005F4F220F331F441FAA1FA9F335D00E2E2E
:103860003AF0E0E832D091505040E695001CCAF79B
:103870002BD0FE2F29D0660F771F881FBB1F26175E
:1038800037074807AB07B0E809F0BB0B802DBF0135
:10389000FF2793585F4F3AF09E3F510578F00C9404
:1038A000F91A0C94441B5F3FE4F3983ED4F38695D9
:1038B00077956795B795F7959F5FC9F7880F911D25
:1038C0009695879597F90895E1E0660F771F881F11
:1038D000BB1F621773078407BA0720F0621B730BC4
:1038E000840BBA0BEE1F88F7E09508950E947D1CAB
:1038F0006894B1110C94441B08950E94291B88F010
:103900009F5798F0B92F9927B751B0F0E1F0660FA3
:10391000771F881F991F1AF0BA95C9F714C0B130E4
:1039200091F00E94431BB1E008950C94431B672F54
:10393000782F8827B85F39F0B93FCCF38695779513
:103940006795B395D9F73EF49095809570956195FC
:103950007F4F8F4F9F4F08950E94681A08F48FEF92
:1039600008950E94681A880B990B0895991B79E0B5
:1039700004C0991F961708F0961B881F7A95C9F7FF
:1039800080950895A1E21A2EAA1BBB1BFD010DC054
:10399000AA1FBB1FEE1FFF1FA217B307E407F507FF
:1039A00020F0A21BB30BE40BF50B661F771F881FDB
:1039B000991F1A9469F760957095809590959B0171
:1039C000AC01BD01CF010895EE0FFF1F0590F491EA
:1039D000E02D09940F931F93CF93DF9382309105CD
:1039E00010F482E090E0E0911A08F0911B0820E0CA
:1039F00030E0A0E0B0E0309719F1408151810281C0
:103A0000138148175907C8F08417950769F4109770
:103A100031F012960C93129713961C9327C00093C3
:103A20001A0810931B0822C02115310519F04217FE
:103A3000530718F49A01BD01EF01DF01F801DBCF54
:103A400021153105F9F0281B390B2430310580F49C
:103A50008A819B816115710521F0FB01938382832B
:103A600004C090931B0880931A08FE01329644C04C
:103A7000FE01E20FF31F81939193225031093983A4
:103A800028833AC02091180830911908232B41F45B
:103A900020918501309186013093190820931808F0
:103AA00020918301309184012115310541F42DB716
:103AB0003EB74091870150918801241B350BE0915E
:103AC0001808F0911908E217F307A0F42E1B3F0B1A
:103AD0002817390778F0AC014E5F5F4F2417350780
:103AE00048F04E0F5F1F50931908409318088193B8
:103AF000919302C0E0E0F0E0CF01DF91CF911F9100
:103B00000F910895CF93DF93009709F481C0FC01D2
:103B1000329713821282A0911A08B0911B08109755
:103B200081F420813181820F931F209118083091F8
:103B300019082817390751F5F0931908E093180868
:103B400067C0ED0120E030E0CE17DF0740F44A8186
:103B50005B819E0141155105F1F0EA01F5CFD38358
:103B6000C28340815181840F951FC817D90759F42A
:103B700088819981840F951F0296918380838A8121
:103B80009B81938382832115310529F4F0931B08CF
:103B9000E0931A083DC0E901FB83EA8349915991FA
:103BA000C40FD51FEC17FD0761F480819181840F4C
:103BB000951F0296E90199838883828193819B8373
:103BC0008A83E0E0F0E012968D919C911397009724
:103BD00019F0FD01DC01F7CF8D919C9111979D01AA
:103BE0002E5F3F4F820F931F2091180830911908C4
:103BF0002817390769F4309729F410921B0810929E
:103C00001A0802C013821282B0931908A0931808F0
:103C1000DF91CF910895A0E0B0E0E1E1FEE10C94E6
:103C2000641BEC01009721F4CB010E94EA1CB4C094
:103C3000FC01E60FF71F9C0122503109E217F30740
:103C400008F4A8C0D9010D911C9111970617170708
:103C5000B0F00530110508F49BC0C8010497861721
:103C6000970708F495C002501109061B170B019322
:103C700011936D937C93CF010E94821D89C05B01DB
:103C8000A01AB10A4C01800E911EA0911A08B091A1
:103C90001B08612C712CE12CF12C109709F446C003
:103CA0008D919C911197A815B905B1F56C0142E071
:103CB000C40ED11CCA14DB0478F14C018A189B088D
:103CC000640142E0C40ED11C1296BC901297139668
:103CD000AC91B5E0CB16D10440F0B282A3839182BF
:103CE0008082D9016D937C9309C00E5F1F4F800FB6
:103CF000911FF90191838083EB2DFA2FE114F104D8
:103D000031F0D7011396FC93EE93129741C0F093D4
:103D10001B08E0931A083CC06816790608F43C01B9
:103D20007D0112960D90BC91A02DB7CF80911808FF
:103D30009091190888169906E1F466167706C8F47A
:103D40008091830190918401009741F48DB79EB7D3
:103D50004091870150918801841B950BE817F90762
:103D6000C8F4F0931908E0931808F901718360838F
:103D70000FC0CB010E94EA1C7C01009759F0A801FA
:103D8000BE010E94D11ECE010E94821DC70104C047
:103D9000CE0102C080E090E0CDB7DEB7EEE00C943B
:103DA000801BFB01DC0102C001900D92415050408C
:103DB000D8F70895FB01DC0101900D920020E1F796
:103DC0000895AEE0B0E0E7EEFEE10C946E1B0D89C5
:103DD0001E8986E08C831A8309838FEF9FE79E8379
:103DE0008D83AE01475E5F4F6F89788DCE0101965E
:103DF0000E94031FEF81F885E00FF11F10822E96BD
:103E0000E4E00C948A1BABE0B0E0E9E0FFE10C9445
:103E1000601B6C017B018A01FC0117821682838181
:103E200081FFCCC1CE0101963C01F6019381F701DF
:103E300093FD859193FF81917F01882309F4BAC195
:103E4000853239F493FD859193FF81917F0185320D
:103E500029F4B60190E00E94FA20E7CF912C212CA2
:103E6000312CFFE1F315D8F08B3279F038F4803241
:103E700079F08332A1F4232D20611DC08D3261F0D1
:103E8000803369F4232D216016C0832D8260382E83
:103E9000E32DE4603E2E2AC0F32DF8601DC037FCF0
:103EA0002DC020ED280F2A3040F08E32B9F436FCB8
:103EB00081C1232D2064322E19C036FE06C08AE04F
:103EC000989E200D1124922E11C0EAE02E9E200D06
:103ED0001124222EF32DF0623F2E08C08C3621F4DF
:103EE000832D8068382E02C0883641F4F70193FD97
:103EF000859193FF81917F018111B3CF982F9F7D91
:103F00009554933028F40C5F1F4F9FE399830DC0A5
:103F1000833631F0833771F0833509F059C021C001
:103F2000F801808189830E5F1F4F88248394912C30
:103F3000530113C02801F2E04F0E511CF801A0807C
:103F4000B18036FE03C0692D70E002C06FEF7FEFD5
:103F5000C5010E94EF204C018201F32DFF773F2E17
:103F600016C0280122E0420E511CF801A080B18049
:103F700036FE03C0692D70E002C06FEF7FEFC50110
:103F80000E94E4204C01F32DF0683F2E820133FCA7
:103F90001BC0822D90E088169906B0F4B60180E22D
:103FA00090E00E94FA202A94F4CFF50137FC859125
:103FB00037FE81915F01B60190E00E94FA20211046
:103FC0002A9421E0821A91088114910471F7E8C0C3
:103FD000843611F0893641F5F80137FE07C060815B
:103FE0007181828193810C5F1F4F08C06081718154
:103FF000072E000C880B990B0E5F1F4FF32DFF76D9
:104000003F2E97FF09C090958095709561957F4FE1
:104010008F4F9F4FF0683F2E2AE030E0A3010E94AF
:104020003621882E861845C0853731F4232D2F7E02
:10403000B22E2AE030E025C0932D997FB92E8F361D
:10404000C1F018F4883579F0B5C0803719F0883799
:1040500021F0B0C0E92FE061BE2EB4FE0DC0FB2DF3
:10406000F460BF2E09C034FE0AC0292F2660B22E8C
:1040700006C028E030E005C020E130E002C020E1C9
:1040800032E0F801B7FE07C06081718182819381BF
:104090000C5F1F4F06C06081718180E090E00E5F71
:1040A0001F4FA3010E943621882E8618FB2DFF7713
:1040B0003F2E36FE0DC0232D2E7FA22E891458F4DC
:1040C00034FE0BC032FC09C0832D8E7EA82E05C0A5
:1040D000B82CA32C03C0B82C01C0B92CA4FE0FC06F
:1040E000FE01E80DF11D8081803321F49A2D997E27
:1040F000A92E09C0A2FE06C0B394B39404C08A2DB1
:10410000867809F0B394A3FC11C0A0FE06C0B214D7
:1041100088F4280C922C9B180EC0B21460F4B601DF
:1041200080E290E00E94FA20B394F7CFB21418F422
:104130002B1802C0982C212CA4FE10C0B60180E3DD
:1041400090E00E94FA20A2FE17C0A1FC03C088E7FD
:1041500090E002C088E590E0B6010CC08A2D867818
:1041600059F0A1FE02C08BE201C080E2A7FC8DE203
:10417000B60190E00E94FA20891438F4B60180E379
:1041800090E00E94FA209A94F7CF8A94F301E80D08
:10419000F11D8081B60190E00E94FA208110F5CFD8
:1041A000222009F442CEB60180E290E00E94FA207B
:1041B0002A94F6CFF6018681978102C08FEF9FEF98
:1041C0002B96E2E10C947C1BFC0105906150704041
:1041D0000110D8F7809590958E0F9F1F0895FC01D0
:1041E0006150704001900110D8F7809590958E0F26
:1041F0009F1F08950F931F93CF93DF93FB0123819C
:1042000021FD03C08FEF9FEF2CC022FF16C0468117
:104210005781248135814217530744F4A081B1812D
:104220009D012F5F3F4F318320838C9326813781FF
:104230002F5F3F4F3783268314C08B01EC01FB01B6
:104240000084F185E02D0995892BE1F6D8011696B9
:104250008D919C911797019617969C938E93169724
:10426000CE01DF91CF911F910F910895FA01AA27F6
:10427000283051F1203181F1E8946F936E7F6E5FA9
:104280007F4F8F4F9F4FAF4FB1E03ED0B4E03CD057
:10429000670F781F891F9A1FA11D680F791F8A1F3A
:1042A000911DA11D6A0F711D811D911DA11D20D0A1
:1042B00009F468943F912AE0269F11243019305D5B
:1042C0003193DEF6CF010895462F4770405D41934C
:1042D000B3E00FD0C9F7F6CF462F4F70405D4A3399
:1042E00018F0495D31FD4052419302D0A9F7EACF61
:1042F000B4E0A6959795879577956795BA95C9F790
:1043000000976105710508959B01AC010A2E069482
:104310005795479537952795BA95C9F7620F731F3B
:0C432000841F951FA01D0895F894FFCF86
:10432C00FFFFFFFF0100E100000000000020000083
:10433C000000000000000000000000010000000070
:10434C000000000000000000010000000000000060
:10435C000000000000000001000000000000000050
:10436C000000000001000000000000000000000040
:10437C000000000100000000000000000000000030
:10438C00010000000000000000000000000000011F
:10439C0000000000000000000000000001000033DD
:1043AC0033333F00001C0880000000C180810000F6
:1043BC00000D000B000A00050004000500060007B4
:1043CC000001000C000700000000000100020003C7
:1043DC000015001400130012000000000072024BC4
:1043EC0003D10388029302F903D50300000000896E
:1043FC00081D082808ED021103FD02EE0220205FC3
:10440C005F205F2020205F5F5F5F5F2020202020E7
:10441C0020202020202020202020205F5F5F5F5F55
:10442C00202020202020205F00202F205F7C207C5B
:10443C00207C20205F5F205C20202020202020205A
:10444C002020202020207C20205F5F205C2020204A
:10445C002020285F29007C207C5F7C207C5F7C20D6
:10446C007C5F5F29207C5F2020202020205F5F5F05
:10447C00205F5F7C207C20207C207C5F205F5F2085
:10448C005F5F5F2020205F5F5F5F5F007C20205FAD
:10449C007C205F5F7C20205F5F5F2F5C205C202F87
:1044AC005C202F202F20275F5F7C207C20207C200D
:1044BC007C20275F5F7C205C205C202F202F205FDE
:1044CC00205C007C207C207C207C5F7C207C20205D
:1044DC002020205C2056202056202F7C207C202061
:1044EC007C207C5F5F7C207C207C20207C207C5C82
:1044FC002056202F20205F5F2F007C5F7C20205CCB
:10450C005F5F7C5F7C2020202020205C5F2F5C5F25
:10451C002F207C5F7C20207C5F5F5F5F5F2F7C5F48
:10452C007C20207C5F7C205C5F2F205C5F5F5F7C4D
:10453C000028432920323031392043687269737462
:10454C0069616E20426572677363686E6569646544
:10455C007220262053746566616E20467573730055
:10456C00202020202020202020202020202020203F
:10457C002056657273696F6E20000D0A00536572C8
:10458C0069616C206E756D6265723A202020202066
:10459C0020004932432D416464726573733A2020C4
:1045AC00202020202020006D61782E206D6F746FEC
:1045BC00722063757272656E743A200041202F2050
:1045CC000053797374656D206572726F723A206D49
:1045DC006F746F722063757272656E7420646F6590
:1045EC00736E27742066697420676976656E207611
:1045FC00616C75652E004F7065726174696E672011
:10460C006D6F6465206E6F726D616C2E00507265FB
:10461C00737320616E79206B657920746F20656EE1
:10462C00746572206D61696E74656E616E63652070
:10463C006D6F64652E002D2D2D2D2D2D2D2D2D2DD9
:10464C002D2D2D2D2D2D2D2D2D2D2D2D2D2D2D2D8E
:10465C002D2D2D2D2D2D2D2D2D2D2D2D2D2D2D2D7E
:10466C002D2D2D2D2D2D2D2D2D2D2D2D2D2D2D2D6E
:10467C002D2D2D2D2D2D2D2D2D2D2D2D2D0053741E
:10468C00617274696E67206D61696E74656E616EBE
:10469C006365206D6F64652E204D6F746F7220649E
:1046AC0072697665727320616E64204932432069A9
:1046BC006E7465726661636520617265206F6666F3
:1046CC006C696E652E00454550524F4D206E6F74CF
:1046DC0020696E697469616C697A65642E20506C0E
:1046EC006561736520656E746572207468652073EE
:1046FC00657269616C206E756D6265722028312E51
:10470C002E36353533352900506C6561736520655F
:10471C006E74657220746865206465766963657370
:10472C00204932432D6164647265737320283136DD
:10473C002E2E313237292E00282564293E00457251
:10474C00726F723A20706C6561736520656E74656A
:10475C007220612076616C69642076616C75652EBF
:10476C00004E65772049324320616464726573732F
:10477C002069732025642E00282573293E00506C77
:10478C00656173652073656C65637420796F7572F0
:10479C00206D6F746F722773206D61782E20637596
:1047AC007272656E743A0028312920302E31412006
:1047BC002020202028332920302E33204120202077
:1047CC00202028352920302E352041202020202063
:1047DC0028372920302E372041202020202028392E
:1047EC002920302E3920410028322920302E324108
:1047FC00202020202028342920302E342041202035
:10480C0020202028362920302E3620412020202020
:10481C002028382920302E38204120202020202804
:10482C00302920312E302041004E6577206D617883
:10483C002063757272656E74206973200053617603
:10484C00696E6720636F6E666967206461746100CE
:10485C00506C65617365207475726E207468652088
:10486C007472696D207265736973746F7220746FE2
:10487C002073657420746865206D6F746F7220638B
:10488C00757272656E742E006D617820637572722C
:10489C00656E743A2000506C6561736520726562B8
:1048AC006F6F7420746865206465766963652E008B
:0C48BC006E616E00696E66006F7666002B
:2070000055C000006EC000006CC000006AC0000068C0000066C0000064C0000062C0000043
:2070200060C000005EC00000F2C400005AC0000058C0000056C0000054C0000052C00000EE
:2070400050C0000078C000004CC000004AC0000048C0000046C0000044C0000042C00000BE
:2070600040C000003EC000003CC000003AC0000038C0000036C0000034C0000032C0000048
:2070800030C000002EC000002CC000002AC0000028C0000026C0000024C0000022C00000A8
:2070A00020C000001EC000001CC0000011241FBECFEFDAE0DEBFCDBF11E0A0E0B1E0E2E3BC
:2070C000FFE702C005900D92A83AB107D9F711E0A8EAB1E001C01D92AE3BB107E1F78FD30B
:2070E00026C78ECFF89410926F0010928100109285001092840081E085BF15BE47985D9AEB
:20710000289A0C94000008952091B2013091B3012F5F3F4F3093B3012093B201932F37FFA6
:2071200003C08EEF831B982F990F921710F447980895479A08951F920F920FB60F9211246E
:207140002F938F939F93EF93FF9310928500109284008091A8019091A901009741F00197D3
:207160009093A9018093A801892B09F45D9A8091AA019091AB01009741F001979093AB0126
:207180008093AA01892B09F4289AE0E0F0E0859194918F5F9F4F49F08091AC019091AD0151
:2071A00001969093AD018093AC01FF91EF919F918F912F910F900FBE0F901F90189584E0BC
:2071C0008093E9000DC08091E8008B778093E80003C08EB3882351F08091E80082FFF9CFBE
:2071E0008091E80085FFEFCF8091F1000895982F83E08093E9008091E80085FD0DC0809136
:20720000E8008E778093E80003C08EB3882369F08091E80080FFF9CF9093F1005D9884E6CB
:2072200090E09093A9018093A80108954F925F926F927F928F929F92AF92BF92CF92DF921E
:20724000EF92FF920F931F93CF93DF9384E08093E9008091E80082FF57C2289884E690E067
:207260009093AB018093AA01AADF182F853481F48CE49DE19093AD018093AC0107B600FC4B
:20728000FDCFF999FECF81E180935700E89503C0843519F494DF8DE00DC28C34E1F38035F9
:2072A000D1F3843721F484E4A2DF80E003C2813611F489E5FFC18134B1F481DF182F7FDFE3
:2072C00090E0880F991FAA2797FDA095BA2F312F330F20E0442737FD4095542F822B932B68
:2072E000A42BB52BB8C1803711F483E5E3C1833549F4C0E0D1E089917ADF21E0C730D20714
:20730000D1F7D9C1863521F481E371DF80E3D2C1833731F487E86BDF85E969DF8EE1CAC149
:207320008536B9F4E0E0F0E093E085E090935700E89507B600FCFDCF80935700E89507B65D
:2073400000FCFDCFE058FF4FA0E7E030FA0771F7A2CF823739F4E1E0F0E089E08093570024
:207360008491A8C1863439F4E0E0F0E089E08093570084919FC18E3439F4E3E0F0E089E0E5
:2073800080935700849196C1813539F4E2E0F0E089E08093570084918DC1823631F489E521
:2073A00026DF80E024DF80E885C1823419F0873609F0E5C01092AD011092AC0100DF082FE8
:2073C000FEDEF82EFCDE682E8554823008F071C1902F80E0CF2DD0E0C82BD92B10926F00B3
:2073E000173609F04BC081E180935700E895DD24CC24C3943FC0E090AE01F090AF010091CC
:20740000B0011091B101B6E46B16D9F4ED2DF0E0EE29FF29E4918E2FEADEDD2081F082E08D
:2074200090E0A0E0B0E0E80EF91E0A1F1B1FE092AE01F092AF010093B0011093B101DC2470
:2074400018C0D801C701B695A7959795879559D5CEDE82E090E0A0E0B0E0E80EF91E0A1FF2
:207460001B1FE092AE01F092AF010093B0011093B1012197209709F0BECF7DC08090AE01F5
:207480009090AF01A090B001B090B10196E4691609F05DC083E0F40180935700E89507B63E
:2074A00000FCFDCF54C0F6E46F1661F5772031F1E090AE01F090AF010091B0011091B1019E
:2074C0007EDED82ECC24852D90E08C299D29F7010C0140925700E895112482E090E0A0E08B
:2074E000B0E0E80EF91E0A1F1B1FE092AE01F092AF010093B0011093B10102C060DE582E1A
:20750000742423C0E090AE01F090AF010091B0011091B10116950795F794E79450DE682FFA
:20752000C701F7D48091AE019091AF01A091B001B091B1010296A11DB11D8093AE01909349
:20754000AF01A093B001B093B101219704C05524772444244394209709F0A5CF96E46916B6
:2075600041F485E0F40180935700E89507B600FCFDCF8DE03CDE82E080936F009CC0833492
:2075800071F40091AE011091AF0119DE90E021E0F8010C0120935700E89511247CCE8336C8
:2075A00019F5E090AE01F090AF010091B0011091B10105DEF701E16090E021E00C0120938C
:2075C0005700E895112482E090E0A0E0B0E0E80EF91E0A1F1B1FE092AE01F092AF0100936A
:2075E000B0011093B10157CE8D3661F4E091AE01F091AF0185E080935700E89507B600FCF2
:20760000FDCF49CE823551F4E091AE01F091AF0105911491812FEBDD802F4CC0843421F5FE
:20762000E090AE01F090AF010091B0011091B10116950795F794E794C2DD682FC70169D4DE
:207640008091AE019091AF01A091B001B091B1010296A11DB11D8093AE019093AF01A093D8
:20766000B001B093B10117CE843609F5E090AE01F090AF010091B0011091B101D801C70142
:20768000B695A795979587953CD4B1DD82E090E0A0E0B0E0E80EF91E0A1F1B1FE092AE010A
:2076A000F092AF010093B0011093B10104C08B3111F08FE39CDD83E08093E9009091E8002B
:2076C0008091E8008E778093E80095FF04C010C08EB38823C9F08091E80080FFF9CF809193
:2076E000E8008E778093E80003C08EB3882361F08091E80080FFF9CF84E08093E9008091F1
:20770000E8008B778093E800DF91CF911F910F91FF90EF90DF90CF90BF90AF909F908F90AC
:207720007F906F905F904F9008959091B601892F8F77813249F58091B7018032A1F081328A
:2077400019F5913A09F58091E800877F8093E8008DE091E067E070E00BD28091E8008B770B
:207760008093E8000895913279F48091E800877F8093E8008DE091E067E070E05DD2809192
:20778000E8008E778093E800089582E061EC42E0B5D083E061E842E1B1D084E060E842E1EF
:2077A000ADC084B7877F84BF88E10FB6F89480936000109260000FBE20E880E090E00FB63F
:2077C000F89420936100809361000FBE81E085BF92E095BF3F9A209A559AE1E6F0E02083A1
:2077E000108247985D9A289A109289008AEF8093880090936F0083E080938100F0C0409116
:20780000000850910108109201081092000894B714BE88E10FB6F8948093600010926000D5
:207820000FBE292F30E0F901E270F07091FD18C090FF05C0859194918F5F9F4F81F423FFFF
:207840000FC08091090190910A014817590741F0E0E0F0E0859194918F5F9F4F09F042DC64
:20786000A0DF78941092AD011092AC010CC0DEDC36D38091AC019091AD0181549F4110F00D
:207880001092140141DC80911401882381F78091E00081608093E00025DC80E090E0089598
:2078A000FA01923049F0933061F09130F9F485E191E022E130E01EC087E291E02EE330E04D
:2078C00019C0882329F485E691E024E030E012C0813029F489E691E022E230E00BC0823006
:2078E00029F48DE891E028E130E004C080E090E020E030E091838083C90108958093E9004E
:207900008091EB0081608093EB001092ED006093EC004093ED008091EE00881F8827881F62
:2079200008958091B60188238CF403C08EB38823B1F08091E80082FFF9CF8091E8008B772A
:207940008093E80008958EB3882349F08091E80080FFF9CF8091E8008E778093E800089594
:20796000EF92FF920F931F9345D04CD008ED10E0F80180818F77808380818068808380819B
:207980008F7D808319BC1EBA1092B40180EEE82EF12CF70180818B7F8083F8018081816052
:2079A000808380E060E042E0A9DFE1EEF0E080818E7F8083E2EEF0E0808181608083808144
:2079C00088608083F70180818E7F8083F8018081806180831F910F91FF90EF900895E7ED06
:2079E000F0E08081816080838AE482BF81E08093B501B6CFE8EDF0E080818E7F808310921C
:207A0000E20008951092DA001092E10008951F920F920FB60F9211242F933F934F935F93F6
:207A20006F937F938F939F93AF93BF93EF93FF938091DA0080FF1BC08091D80080FF17C0B2
:207A40008091DA008E7F8093DA008091D90080FF0BC080E189BD82E189BD09B400FEFDCF36
:207A600081E08EBB3BD203C019BC1EBA37D28091E10080FF17C08091E20080FF13C0809138
:207A8000E2008E7F8093E2008091E20080618093E2008091D80080628093D80019BC85E049
:207AA0008EBB1CD28091E10084FF2CC08091E20084FF28C080E189BD82E189BD09B400FEC5
:207AC000FDCF8091D8008F7D8093D8008091E1008F7E8093E1008091E2008F7E8093E20012
:207AE0008091E20081608093E2008091B401882331F48091E30087FD02C081E001C084E067
:207B00008EBBECD18091E10083FF21C08091E20083FF1DC08091E100877F8093E10082E06A
:207B20008EBB1092B4018091E1008E7F8093E1008091E2008E7F8093E2008091E2008061E9
:207B40008093E20080E060E042E0D8DEC7D1FF91EF91BF91AF919F918F917F916F915F9130
:207B60004F913F912F910F900FBE0F901F9018959C014091BC015091BD014617570718F49D
:207B8000F90190E044C06115710511F0AB01F8CF8091E8008E778093E80040E050E0F0CF0F
:207BA0008EB3882309F444C0853009F443C08091E80083FF02C081E008958091E80082FD70
:207BC00031C08091E80080FF22C08091F3009091F200782F60E0292F30E0262B372B07C07A
:207BE00081918093F100415050402F5F3F4F4115510519F02830310598F390E02830310566
:207C000009F491E08091E8008E778093E8004115510531F6992321F605C08EB3882341F075
:207C2000853041F08091E80082FFF7CF80E0089582E0089583E008959C016115710529F47C
:207C40008091E8008B778093E800F90126C08EB3882391F1853091F18091E80083FF02C06C
:207C600081E008958091E80082FFF1CF06C08091F10081936150704059F02091F300809191
:207C8000F200322F20E090E0822B932B892B79F78091E8008B778093E80061157105B9F601
:207CA00005C08EB3882341F0853041F08091E80080FFF7CF80E0089582E0089583E00895C2
:207CC0000F931F93DF93CF9300D0CDB7DEB7E6EBF1E08091F100819381E0EE3BF807C9F792
:207CE00024DD8091E80083FFE4C08091B6019091B701953009F46DC0963040F4913081F1A7
:207D0000913070F0933009F0D4C02AC0983009F4A3C0993009F4B2C0963009F0CAC07CC023
:207D2000803809F4C6C0823809F0C3C08091BA0187708093E9008091EB001092E9002091DB
:207D4000E800277F2093E80090E025E0969587952A95E1F781708093F1001092F10087C0D8
:207D6000882319F0823009F0A4C08F71823009F0A0C08091B801882331F52091BA01277097
:207D800009F497C02093E9008091EB0080FF1BC0933021F48091EB00806213C08091EB0018
:207DA00080618093EB0081E090E002C0880F991F2A95E2F78093EA001092EA008091EB00E5
:207DC00088608093EB001092E9008091E800877F51C0882309F06DC01091B8011F770FB79B
:207DE000F8948091E800877F8093E8009ADD8091E80080FFFCCF8091E3008078812B809398
:207E0000E30080688093E300112311F482E001C083E08EBB0FBF4DC08058823008F049C033
:207E20008091B8019091B9016091BA01AE014F5F5F4F36DDBC01009709F43BC08091E8008E
:207E4000877F8093E80089819A8192DE8091E8008B778093E8002DC0803859F58091E800AA
:207E6000877F8093E8008091B4018093F1008091E8008E778093E80054DD1BC08823C9F4CA
:207E80009091B8019230A8F48091E800877F8093E8009093B40145DD8091B401882331F420
:207EA0008091E30087FD02C081E001C084E08EBB6CDC8091E80083FF0AC08091EB0080624E
:207EC0008093EB008091E800877F8093E8000F900F90CF91DF911F910F91089508951F9360
:207EE0008EB3882361F01091E9001092E9008091E80083FF01C0E4DE17701093E9001F916F
:207F00000895F999FECF92BD81BDF89A992780B50895262FF999FECF1FBA92BD81BD20BDBD
:207F20000FB6F894FA9AF99A0FBE01960895F894FFCF4341544552494E4100777700080031
:207F40000000000000080112011001020000084123360001000201000109023E00020100FF
:207F600080320904000001020201000524001001042402040524060001070582030800FF0C
:207F800009040100020A000000070504021000010705830210000104030904220341007216
:207FA000006400750069006E006F0020004C0065006F006E006100720064006F0000001836
:1A7FC00003410072006400750069006E006F0020004C004C004300000000D7
:00000001FF
